{
  "contracts/StormYield.sol": {
    "StormYield": {
      "abi": [
        {
          "inputs": [],
          "stateMutability": "nonpayable",
          "type": "constructor"
        },
        {
          "anonymous": false,
          "inputs": [
            {
              "indexed": true,
              "internalType": "address",
              "name": "owner",
              "type": "address"
            },
            {
              "indexed": true,
              "internalType": "address",
              "name": "spender",
              "type": "address"
            },
            {
              "indexed": false,
              "internalType": "uint256",
              "name": "value",
              "type": "uint256"
            }
          ],
          "name": "Approval",
          "type": "event"
        },
        {
          "anonymous": false,
          "inputs": [
            {
              "indexed": true,
              "internalType": "uint256",
              "name": "epoch",
              "type": "uint256"
            },
            {
              "indexed": false,
              "internalType": "uint256",
              "name": "totalSupply",
              "type": "uint256"
            }
          ],
          "name": "LogRebase",
          "type": "event"
        },
        {
          "anonymous": false,
          "inputs": [
            {
              "indexed": true,
              "internalType": "address",
              "name": "previousOwner",
              "type": "address"
            }
          ],
          "name": "OwnershipRenounced",
          "type": "event"
        },
        {
          "anonymous": false,
          "inputs": [
            {
              "indexed": true,
              "internalType": "address",
              "name": "previousOwner",
              "type": "address"
            },
            {
              "indexed": true,
              "internalType": "address",
              "name": "newOwner",
              "type": "address"
            }
          ],
          "name": "OwnershipTransferred",
          "type": "event"
        },
        {
          "anonymous": false,
          "inputs": [
            {
              "indexed": true,
              "internalType": "address",
              "name": "from",
              "type": "address"
            },
            {
              "indexed": true,
              "internalType": "address",
              "name": "to",
              "type": "address"
            },
            {
              "indexed": false,
              "internalType": "uint256",
              "name": "value",
              "type": "uint256"
            }
          ],
          "name": "Transfer",
          "type": "event"
        },
        {
          "inputs": [],
          "name": "DECIMALS",
          "outputs": [
            {
              "internalType": "uint256",
              "name": "",
              "type": "uint256"
            }
          ],
          "stateMutability": "view",
          "type": "function"
        },
        {
          "inputs": [],
          "name": "MAX_UINT256",
          "outputs": [
            {
              "internalType": "uint256",
              "name": "",
              "type": "uint256"
            }
          ],
          "stateMutability": "view",
          "type": "function"
        },
        {
          "inputs": [],
          "name": "RATE_DECIMALS",
          "outputs": [
            {
              "internalType": "uint8",
              "name": "",
              "type": "uint8"
            }
          ],
          "stateMutability": "view",
          "type": "function"
        },
        {
          "inputs": [],
          "name": "_autoAddLiquidity",
          "outputs": [
            {
              "internalType": "bool",
              "name": "",
              "type": "bool"
            }
          ],
          "stateMutability": "view",
          "type": "function"
        },
        {
          "inputs": [],
          "name": "_autoRebase",
          "outputs": [
            {
              "internalType": "bool",
              "name": "",
              "type": "bool"
            }
          ],
          "stateMutability": "view",
          "type": "function"
        },
        {
          "inputs": [],
          "name": "_decimals",
          "outputs": [
            {
              "internalType": "uint8",
              "name": "",
              "type": "uint8"
            }
          ],
          "stateMutability": "view",
          "type": "function"
        },
        {
          "inputs": [],
          "name": "_initRebaseStartTime",
          "outputs": [
            {
              "internalType": "uint256",
              "name": "",
              "type": "uint256"
            }
          ],
          "stateMutability": "view",
          "type": "function"
        },
        {
          "inputs": [],
          "name": "_isRebaseStarted",
          "outputs": [
            {
              "internalType": "bool",
              "name": "",
              "type": "bool"
            }
          ],
          "stateMutability": "view",
          "type": "function"
        },
        {
          "inputs": [],
          "name": "_lastAddLiquidityTime",
          "outputs": [
            {
              "internalType": "uint256",
              "name": "",
              "type": "uint256"
            }
          ],
          "stateMutability": "view",
          "type": "function"
        },
        {
          "inputs": [],
          "name": "_lastRebasedTime",
          "outputs": [
            {
              "internalType": "uint256",
              "name": "",
              "type": "uint256"
            }
          ],
          "stateMutability": "view",
          "type": "function"
        },
        {
          "inputs": [],
          "name": "_name",
          "outputs": [
            {
              "internalType": "string",
              "name": "",
              "type": "string"
            }
          ],
          "stateMutability": "view",
          "type": "function"
        },
        {
          "inputs": [],
          "name": "_symbol",
          "outputs": [
            {
              "internalType": "string",
              "name": "",
              "type": "string"
            }
          ],
          "stateMutability": "view",
          "type": "function"
        },
        {
          "inputs": [],
          "name": "_totalSupply",
          "outputs": [
            {
              "internalType": "uint256",
              "name": "",
              "type": "uint256"
            }
          ],
          "stateMutability": "view",
          "type": "function"
        },
        {
          "inputs": [
            {
              "internalType": "address",
              "name": "owner_",
              "type": "address"
            },
            {
              "internalType": "address",
              "name": "spender",
              "type": "address"
            }
          ],
          "name": "allowance",
          "outputs": [
            {
              "internalType": "uint256",
              "name": "",
              "type": "uint256"
            }
          ],
          "stateMutability": "view",
          "type": "function"
        },
        {
          "inputs": [
            {
              "internalType": "address",
              "name": "spender",
              "type": "address"
            },
            {
              "internalType": "uint256",
              "name": "value",
              "type": "uint256"
            }
          ],
          "name": "approve",
          "outputs": [
            {
              "internalType": "bool",
              "name": "",
              "type": "bool"
            }
          ],
          "stateMutability": "nonpayable",
          "type": "function"
        },
        {
          "inputs": [],
          "name": "autoLiquidityReceiver",
          "outputs": [
            {
              "internalType": "address",
              "name": "",
              "type": "address"
            }
          ],
          "stateMutability": "view",
          "type": "function"
        },
        {
          "inputs": [
            {
              "internalType": "address",
              "name": "who",
              "type": "address"
            }
          ],
          "name": "balanceOf",
          "outputs": [
            {
              "internalType": "uint256",
              "name": "",
              "type": "uint256"
            }
          ],
          "stateMutability": "view",
          "type": "function"
        },
        {
          "inputs": [],
          "name": "blackHole",
          "outputs": [
            {
              "internalType": "address",
              "name": "",
              "type": "address"
            }
          ],
          "stateMutability": "view",
          "type": "function"
        },
        {
          "inputs": [],
          "name": "blackHoleFee",
          "outputs": [
            {
              "internalType": "uint256",
              "name": "",
              "type": "uint256"
            }
          ],
          "stateMutability": "view",
          "type": "function"
        },
        {
          "inputs": [
            {
              "internalType": "address",
              "name": "",
              "type": "address"
            }
          ],
          "name": "blacklist",
          "outputs": [
            {
              "internalType": "bool",
              "name": "",
              "type": "bool"
            }
          ],
          "stateMutability": "view",
          "type": "function"
        },
        {
          "inputs": [
            {
              "internalType": "address",
              "name": "_addr",
              "type": "address"
            }
          ],
          "name": "checkFeeExempt",
          "outputs": [
            {
              "internalType": "bool",
              "name": "",
              "type": "bool"
            }
          ],
          "stateMutability": "view",
          "type": "function"
        },
        {
          "inputs": [],
          "name": "decimals",
          "outputs": [
            {
              "internalType": "uint8",
              "name": "",
              "type": "uint8"
            }
          ],
          "stateMutability": "view",
          "type": "function"
        },
        {
          "inputs": [
            {
              "internalType": "address",
              "name": "spender",
              "type": "address"
            },
            {
              "internalType": "uint256",
              "name": "subtractedValue",
              "type": "uint256"
            }
          ],
          "name": "decreaseAllowance",
          "outputs": [
            {
              "internalType": "bool",
              "name": "",
              "type": "bool"
            }
          ],
          "stateMutability": "nonpayable",
          "type": "function"
        },
        {
          "inputs": [],
          "name": "feeDenominator",
          "outputs": [
            {
              "internalType": "uint256",
              "name": "",
              "type": "uint256"
            }
          ],
          "stateMutability": "view",
          "type": "function"
        },
        {
          "inputs": [],
          "name": "getCirculatingSupply",
          "outputs": [
            {
              "internalType": "uint256",
              "name": "",
              "type": "uint256"
            }
          ],
          "stateMutability": "view",
          "type": "function"
        },
        {
          "inputs": [
            {
              "internalType": "uint256",
              "name": "accuracy",
              "type": "uint256"
            }
          ],
          "name": "getLiquidityBacking",
          "outputs": [
            {
              "internalType": "uint256",
              "name": "",
              "type": "uint256"
            }
          ],
          "stateMutability": "view",
          "type": "function"
        },
        {
          "inputs": [
            {
              "internalType": "address",
              "name": "spender",
              "type": "address"
            },
            {
              "internalType": "uint256",
              "name": "addedValue",
              "type": "uint256"
            }
          ],
          "name": "increaseAllowance",
          "outputs": [
            {
              "internalType": "bool",
              "name": "",
              "type": "bool"
            }
          ],
          "stateMutability": "nonpayable",
          "type": "function"
        },
        {
          "inputs": [],
          "name": "isNotInSwap",
          "outputs": [
            {
              "internalType": "bool",
              "name": "",
              "type": "bool"
            }
          ],
          "stateMutability": "view",
          "type": "function"
        },
        {
          "inputs": [],
          "name": "isOwner",
          "outputs": [
            {
              "internalType": "bool",
              "name": "",
              "type": "bool"
            }
          ],
          "stateMutability": "view",
          "type": "function"
        },
        {
          "inputs": [],
          "name": "liquidityFee",
          "outputs": [
            {
              "internalType": "uint256",
              "name": "",
              "type": "uint256"
            }
          ],
          "stateMutability": "view",
          "type": "function"
        },
        {
          "inputs": [],
          "name": "manualSync",
          "outputs": [],
          "stateMutability": "nonpayable",
          "type": "function"
        },
        {
          "inputs": [],
          "name": "name",
          "outputs": [
            {
              "internalType": "string",
              "name": "",
              "type": "string"
            }
          ],
          "stateMutability": "view",
          "type": "function"
        },
        {
          "inputs": [],
          "name": "owner",
          "outputs": [
            {
              "internalType": "address",
              "name": "",
              "type": "address"
            }
          ],
          "stateMutability": "view",
          "type": "function"
        },
        {
          "inputs": [],
          "name": "pair",
          "outputs": [
            {
              "internalType": "address",
              "name": "",
              "type": "address"
            }
          ],
          "stateMutability": "view",
          "type": "function"
        },
        {
          "inputs": [],
          "name": "pairAddress",
          "outputs": [
            {
              "internalType": "address",
              "name": "",
              "type": "address"
            }
          ],
          "stateMutability": "view",
          "type": "function"
        },
        {
          "inputs": [],
          "name": "pairContract",
          "outputs": [
            {
              "internalType": "contract IPancakeSwapPair",
              "name": "",
              "type": "address"
            }
          ],
          "stateMutability": "view",
          "type": "function"
        },
        {
          "inputs": [],
          "name": "renounceOwnership",
          "outputs": [],
          "stateMutability": "nonpayable",
          "type": "function"
        },
        {
          "inputs": [],
          "name": "router",
          "outputs": [
            {
              "internalType": "contract IPancakeSwapRouter",
              "name": "",
              "type": "address"
            }
          ],
          "stateMutability": "view",
          "type": "function"
        },
        {
          "inputs": [],
          "name": "sellFee",
          "outputs": [
            {
              "internalType": "uint256",
              "name": "",
              "type": "uint256"
            }
          ],
          "stateMutability": "view",
          "type": "function"
        },
        {
          "inputs": [
            {
              "internalType": "bool",
              "name": "_flag",
              "type": "bool"
            }
          ],
          "name": "setAutoAddLiquidity",
          "outputs": [],
          "stateMutability": "nonpayable",
          "type": "function"
        },
        {
          "inputs": [
            {
              "internalType": "bool",
              "name": "_flag",
              "type": "bool"
            }
          ],
          "name": "setAutoRebase",
          "outputs": [],
          "stateMutability": "nonpayable",
          "type": "function"
        },
        {
          "inputs": [
            {
              "internalType": "address",
              "name": "_botAddress",
              "type": "address"
            },
            {
              "internalType": "bool",
              "name": "_flag",
              "type": "bool"
            }
          ],
          "name": "setBotBlacklist",
          "outputs": [],
          "stateMutability": "nonpayable",
          "type": "function"
        },
        {
          "inputs": [
            {
              "internalType": "address",
              "name": "_autoLiquidityReceiver",
              "type": "address"
            },
            {
              "internalType": "address",
              "name": "_stormYieldTreasuryReceiver",
              "type": "address"
            },
            {
              "internalType": "address",
              "name": "_stormYieldInsuranceFundReceiver",
              "type": "address"
            },
            {
              "internalType": "address",
              "name": "_blackHole",
              "type": "address"
            }
          ],
          "name": "setFeeReceivers",
          "outputs": [],
          "stateMutability": "nonpayable",
          "type": "function"
        },
        {
          "inputs": [
            {
              "internalType": "address",
              "name": "_address",
              "type": "address"
            }
          ],
          "name": "setLP",
          "outputs": [],
          "stateMutability": "nonpayable",
          "type": "function"
        },
        {
          "inputs": [
            {
              "internalType": "address",
              "name": "_pairAddress",
              "type": "address"
            }
          ],
          "name": "setPairAddress",
          "outputs": [],
          "stateMutability": "nonpayable",
          "type": "function"
        },
        {
          "inputs": [
            {
              "internalType": "address",
              "name": "_addr",
              "type": "address"
            }
          ],
          "name": "setWhitelist",
          "outputs": [],
          "stateMutability": "nonpayable",
          "type": "function"
        },
        {
          "inputs": [],
          "name": "startRebase",
          "outputs": [],
          "stateMutability": "nonpayable",
          "type": "function"
        },
        {
          "inputs": [],
          "name": "stormYieldInsuranceFundFee",
          "outputs": [
            {
              "internalType": "uint256",
              "name": "",
              "type": "uint256"
            }
          ],
          "stateMutability": "view",
          "type": "function"
        },
        {
          "inputs": [],
          "name": "stormYieldInsuranceFundReceiver",
          "outputs": [
            {
              "internalType": "address",
              "name": "",
              "type": "address"
            }
          ],
          "stateMutability": "view",
          "type": "function"
        },
        {
          "inputs": [],
          "name": "stormYieldTreasuryReceiver",
          "outputs": [
            {
              "internalType": "address",
              "name": "",
              "type": "address"
            }
          ],
          "stateMutability": "view",
          "type": "function"
        },
        {
          "inputs": [],
          "name": "swapEnabled",
          "outputs": [
            {
              "internalType": "bool",
              "name": "",
              "type": "bool"
            }
          ],
          "stateMutability": "view",
          "type": "function"
        },
        {
          "inputs": [],
          "name": "symbol",
          "outputs": [
            {
              "internalType": "string",
              "name": "",
              "type": "string"
            }
          ],
          "stateMutability": "view",
          "type": "function"
        },
        {
          "inputs": [],
          "name": "totalFee",
          "outputs": [
            {
              "internalType": "uint256",
              "name": "",
              "type": "uint256"
            }
          ],
          "stateMutability": "view",
          "type": "function"
        },
        {
          "inputs": [],
          "name": "totalSupply",
          "outputs": [
            {
              "internalType": "uint256",
              "name": "",
              "type": "uint256"
            }
          ],
          "stateMutability": "view",
          "type": "function"
        },
        {
          "inputs": [
            {
              "internalType": "address",
              "name": "to",
              "type": "address"
            },
            {
              "internalType": "uint256",
              "name": "value",
              "type": "uint256"
            }
          ],
          "name": "transfer",
          "outputs": [
            {
              "internalType": "bool",
              "name": "",
              "type": "bool"
            }
          ],
          "stateMutability": "nonpayable",
          "type": "function"
        },
        {
          "inputs": [
            {
              "internalType": "address",
              "name": "from",
              "type": "address"
            },
            {
              "internalType": "address",
              "name": "to",
              "type": "address"
            },
            {
              "internalType": "uint256",
              "name": "value",
              "type": "uint256"
            }
          ],
          "name": "transferFrom",
          "outputs": [
            {
              "internalType": "bool",
              "name": "",
              "type": "bool"
            }
          ],
          "stateMutability": "nonpayable",
          "type": "function"
        },
        {
          "inputs": [
            {
              "internalType": "address",
              "name": "newOwner",
              "type": "address"
            }
          ],
          "name": "transferOwnership",
          "outputs": [],
          "stateMutability": "nonpayable",
          "type": "function"
        },
        {
          "inputs": [],
          "name": "treasuryFee",
          "outputs": [
            {
              "internalType": "uint256",
              "name": "",
              "type": "uint256"
            }
          ],
          "stateMutability": "view",
          "type": "function"
        },
        {
          "inputs": [],
          "name": "withdrawAllToTreasury",
          "outputs": [],
          "stateMutability": "nonpayable",
          "type": "function"
        },
        {
          "stateMutability": "payable",
          "type": "receive"
        }
      ],
      "evm": {
        "bytecode": {
          "linkReferences": {},
          "object": "608060405262000040600f6200002c60326200002c6019601e6200045260201b620018261790919060201c565b6200045260201b620018261790919060201c565b600555600c805460ff60a01b191690553480156200005d57600080fd5b50604080518082018252600b81526a14dd1bdc9b48165a595b1960aa1b60208083019182528351808501909452600384526253545960e81b908401528151919291600591620000b0916000919062000620565b508151620000c690600190602085019062000620565b506002805460ff191660ff9290921691909117610100600160a81b03191661010033021790555050600b8054739ac64cc6e4415144c455bd8e4837fea55603e5c36001600160a01b031990911617908190556040805163c45a015560e01b815290516001600160a01b039092169163c45a015591600480820192602092909190829003018186803b1580156200015b57600080fd5b505afa15801562000170573d6000803e3d6000fd5b505050506040513d60208110156200018757600080fd5b5051600b54604080516315ab88c960e31b815290516001600160a01b039384169363c9c6539693169163ad5c4648916004808301926020929190829003018186803b158015620001d657600080fd5b505afa158015620001eb573d6000803e3d6000fd5b505050506040513d60208110156200020257600080fd5b5051604080516001600160e01b031960e085901b1681526001600160a01b0390921660048301523060248301525160448083019260209291908290030181600087803b1580156200025257600080fd5b505af115801562000267573d6000803e3d6000fd5b505050506040513d60208110156200027e57600080fd5b5051600c80546001600160a01b039283166001600160a01b0319918216178255600680548216731a25be1b836e553625effe5940ee0bd507b0ac1017905560078054821673ae3cda4c8932aa2aa77f98849ff68e71372fb64a17815560088054831673f1f47f90f6c8df3ab27efd1e7ed91fce819814cd17905560098054831673dd6ef0dd73c7d3437b067d295b5d5344a485f5d0179055306000908152601460209081526040808320600b5488168452825280832060001990559454600a80548616918816918217905560038054909516179093556409502f900060109081559154909416845260138252919092206407b6ae2fff199081905590546200038f92620004b4811b6200188017901c565b60115542600d819055600e55600c80546012805460ff1990811690915561ffff60a81b19909116600160b01b17909155600780546001600160a01b03908116600090815260046020526040808220805486166001908117909155308352912080549094161790925554620004049116620004fe565b60075460105460408051918252516001600160a01b03909216916000917fddf252ad1be2c89b69c2b068fc378daa952ba7f163c4a11628f55a4df523b3ef919081900360200190a3620006cc565b600082820183811015620004ad576040805162461bcd60e51b815260206004820152601b60248201527f536166654d6174683a206164646974696f6e206f766572666c6f770000000000604482015290519081900360640190fd5b9392505050565b6000620004ad83836040518060400160405280601a81526020017f536166654d6174683a206469766973696f6e206279207a65726f0000000000008152506200057960201b60201c565b6001600160a01b0381166200051257600080fd5b6002546040516001600160a01b0380841692610100900416907f8be0079c531659141344cd1fd0a4f28419497f9722a3daafe3b4186f6b6457e090600090a3600280546001600160a01b0390921661010002610100600160a81b0319909216919091179055565b60008183620006095760405162461bcd60e51b81526004018080602001828103825283818151815260200191508051906020019080838360005b83811015620005cd578181015183820152602001620005b3565b50505050905090810190601f168015620005fb5780820380516001836020036101000a031916815260200191505b509250505060405180910390fd5b5060008385816200061657fe5b0495945050505050565b828054600181600116156101000203166002900490600052602060002090601f016020900481019282620006585760008555620006a3565b82601f106200067357805160ff1916838001178555620006a3565b82800160010185558215620006a3579182015b82811115620006a357825182559160200191906001019062000686565b50620006b1929150620006b5565b5090565b5b80821115620006b15760008155600101620006b6565b6128cb80620006dc6000396000f3fe6080604052600436106103905760003560e01c806383b4ac68116101dc578063aac421f711610102578063d28d8852116100a0578063e15beb801161006f578063e15beb8014610af0578063f2fde38b14610b1c578063f887ea4014610b4f578063f9f92be414610b6457610397565b8063d28d885214610a43578063d439979014610a58578063d51ed1c814610a8b578063dd62ed3e14610ab557610397565b8063bd595581116100dc578063bd595581146109d8578063ca33e64c146109ed578063cc32d17614610a02578063cfbac92f14610a1757610397565b8063aac421f714610999578063afb9cf6d146109ae578063b09f1266146109c357610397565b80639b2912cc1161017a578063a457c2d711610149578063a457c2d7146108fd578063a8aa1b3114610936578063a8b089821461094b578063a9059cbb1461096057610397565b80639b2912cc1461088b5780639b87676c146108a05780639e90f9aa146108b5578063a22d4832146108ca57610397565b80638da5cb5b116101b65780638da5cb5b146108375780638f32d59b1461084c57806395d89b411461086157806398118cb41461087657610397565b806383b4ac68146107da578063854cff2f146107ef578063858931951461082257610397565b806337c9be87116102c15780635a604c521161025f578063706f86e91161022e578063706f86e91461076857806370a082311461077d578063715018a6146107b0578063753d02a1146107c557610397565b80635a604c52146107145780636912652c146107295780636d04730c1461073e5780636ddd17131461075357610397565b80633eaaf86b1161029b5780633eaaf86b146106a45780634d709adf146106b9578063564241cf146106ea578063568498c4146106ff57610397565b806337c9be87146105e557806339509351146106205780633c8e556d1461065957610397565b80632b14ca561161032e578063313ce56711610308578063313ce5671461057b57806332424aa3146105a657806332b75683146105bb57806333a581d2146105d057610397565b80632b14ca561461051c5780632e0f2625146105315780632f34d2821461054657610397565b806318160ddd1161036a57806318160ddd1461049a5780631df4ccfc146104af57806323b872dd146104c45780632b112e491461050757610397565b806306fdde031461039c578063095ea7b314610426578063180b0d7e1461047357610397565b3661039757005b600080fd5b3480156103a857600080fd5b506103b1610b97565b6040805160208082528351818301528351919283929083019185019080838360005b838110156103eb5781810151838201526020016103d3565b50505050905090810190601f1680156104185780820380516001836020036101000a031916815260200191505b509250505060405180910390f35b34801561043257600080fd5b5061045f6004803603604081101561044957600080fd5b506001600160a01b038135169060200135610c2d565b604080519115158252519081900360200190f35b34801561047f57600080fd5b50610488610c94565b60408051918252519081900360200190f35b3480156104a657600080fd5b50610488610c9a565b3480156104bb57600080fd5b50610488610ca0565b3480156104d057600080fd5b5061045f600480360360608110156104e757600080fd5b506001600160a01b03813581169160208101359091169060400135610ca6565b34801561051357600080fd5b50610488610d80565b34801561052857600080fd5b50610488610e03565b34801561053d57600080fd5b50610488610e08565b34801561055257600080fd5b506105796004803603602081101561056957600080fd5b50356001600160a01b0316610e0d565b005b34801561058757600080fd5b50610590610e40565b6040805160ff9092168252519081900360200190f35b3480156105b257600080fd5b50610590610e08565b3480156105c757600080fd5b50610488610e49565b3480156105dc57600080fd5b50610488610e4f565b3480156105f157600080fd5b506105796004803603604081101561060857600080fd5b506001600160a01b0381351690602001351515610e55565b34801561062c57600080fd5b5061045f6004803603604081101561064357600080fd5b506001600160a01b038135169060200135610ed5565b34801561066557600080fd5b506105796004803603608081101561067c57600080fd5b506001600160a01b038135811691602081013582169160408201358116916060013516610f68565b3480156106b057600080fd5b50610488610fc9565b3480156106c557600080fd5b506106ce610fcf565b604080516001600160a01b039092168252519081900360200190f35b3480156106f657600080fd5b50610488610fde565b34801561070b57600080fd5b506106ce610fe3565b34801561072057600080fd5b50610590610ff2565b34801561073557600080fd5b5061045f610ff7565b34801561074a57600080fd5b5061045f611007565b34801561075f57600080fd5b5061045f611010565b34801561077457600080fd5b50610579611015565b34801561078957600080fd5b50610488600480360360208110156107a057600080fd5b50356001600160a01b03166110b3565b3480156107bc57600080fd5b506105796110db565b3480156107d157600080fd5b5061057961113b565b3480156107e657600080fd5b5061045f6111a5565b3480156107fb57600080fd5b506105796004803603602081101561081257600080fd5b50356001600160a01b03166111b6565b34801561082e57600080fd5b506104886111eb565b34801561084357600080fd5b506106ce6111f0565b34801561085857600080fd5b5061045f611204565b34801561086d57600080fd5b506103b161121a565b34801561088257600080fd5b5061048861127a565b34801561089757600080fd5b5061048861127f565b3480156108ac57600080fd5b50610488611285565b3480156108c157600080fd5b506106ce61128b565b3480156108d657600080fd5b50610579600480360360208110156108ed57600080fd5b50356001600160a01b031661129a565b34801561090957600080fd5b5061045f6004803603604081101561092057600080fd5b506001600160a01b0381351690602001356112cd565b34801561094257600080fd5b506106ce6113b6565b34801561095757600080fd5b506106ce6113c5565b34801561096c57600080fd5b5061045f6004803603604081101561098357600080fd5b506001600160a01b0381351690602001356113d4565b3480156109a557600080fd5b506106ce611400565b3480156109ba57600080fd5b5061045f61140f565b3480156109cf57600080fd5b506103b161141f565b3480156109e457600080fd5b5061057961143e565b3480156109f957600080fd5b506106ce61166b565b348015610a0e57600080fd5b5061048861167a565b348015610a2357600080fd5b5061057960048036036020811015610a3a57600080fd5b5035151561167f565b348015610a4f57600080fd5b506103b16116d1565b348015610a6457600080fd5b5061045f60048036036020811015610a7b57600080fd5b50356001600160a01b03166116f8565b348015610a9757600080fd5b5061048860048036036020811015610aae57600080fd5b5035611716565b348015610ac157600080fd5b5061048860048036036040811015610ad857600080fd5b506001600160a01b038135811691602001351661176a565b348015610afc57600080fd5b5061057960048036036020811015610b1357600080fd5b50351515611795565b348015610b2857600080fd5b5061057960048036036020811015610b3f57600080fd5b50356001600160a01b03166117e8565b348015610b5b57600080fd5b506106ce611802565b348015610b7057600080fd5b5061045f60048036036020811015610b8757600080fd5b50356001600160a01b0316611811565b60008054604080516020601f6002600019610100600188161502019095169490940493840181900481028201810190925282815260609390929091830182828015610c235780601f10610bf857610100808354040283529160200191610c23565b820191906000526020600020905b815481529060010190602001808311610c0657829003601f168201915b5050505050905090565b3360008181526014602090815260408083206001600160a01b038716808552908352818420869055815186815291519394909390927f8c5be1e5ebec7d5bd14f71427d1e84f3dd0314c0f7b2291e5b200ac8c7c3b925928290030190a35060015b92915050565b6103e881565b60105490565b60055481565b6000826001600160a01b038116610cbc57600080fd5b6001600160a01b038516600090815260146020908152604080832033845290915290205460001914610d69576040805180820182526016815275496e73756666696369656e7420416c6c6f77616e636560501b6020808301919091526001600160a01b0388166000908152601482528381203382529091529190912054610d449185906118c2565b6001600160a01b03861660009081526014602090815260408083203384529091529020555b610d74858585611959565b50600195945050505050565b60115460136020527f8fa6efc3be94b5b348b21fea823fe8d100408cee9b7f90524494500445d8ff6c5461dead60009081527f2264e2d7bacabe6058f5009f42467b9be28015e7760f87409562384c94ac271c549092610dfe929091610df89190610df2906407b6ae2fff1990611b4a565b90611b4a565b90611880565b905090565b603c81565b600581565b610e15611204565b610e1e57600080fd5b600380546001600160a01b0319166001600160a01b0392909216919091179055565b60025460ff1690565b600e5481565b60001981565b610e5d611204565b610e6657600080fd5b610e6f82611b8c565b610eaa5760405162461bcd60e51b815260040180806020018281038252603b81526020018061285b603b913960400191505060405180910390fd5b6001600160a01b03919091166000908152601560205260409020805460ff1916911515919091179055565b3360009081526014602090815260408083206001600160a01b0386168452909152812054610f039083611826565b3360008181526014602090815260408083206001600160a01b0389168085529083529281902085905580519485525191937f8c5be1e5ebec7d5bd14f71427d1e84f3dd0314c0f7b2291e5b200ac8c7c3b925929081900390910190a350600192915050565b610f70611204565b610f7957600080fd5b600680546001600160a01b039586166001600160a01b0319918216179091556007805494861694821694909417909355600880549285169284169290921790915560098054919093169116179055565b60105481565b6003546001600160a01b031681565b603281565b6007546001600160a01b031681565b600781565b600c54600160b01b900460ff1681565b60125460ff1681565b600181565b61101d611204565b61102657600080fd5b60125460ff1615611077576040805162461bcd60e51b8152602060048201526016602482015275149958985cd948185b1c9958591e481cdd185c9d195960521b604482015290519081900360640190fd5b60125460ff1615611087576110b1565b42600d819055600e55600c805460ff60a81b1916600160a81b1790556012805460ff191660011790555b565b6011546001600160a01b0382166000908152601360205260408120549091610c8e9190611880565b6110e3611204565b6110ec57600080fd5b6002546040516101009091046001600160a01b0316907ff8df31144d9c2f0f6b59d69b8b98abd5459d07f2742c4df920b25aae33c6482090600090a260028054610100600160a81b0319169055565b600c60009054906101000a90046001600160a01b03166001600160a01b031663fff6cae96040518163ffffffff1660e01b8152600401600060405180830381600087803b15801561118b57600080fd5b505af115801561119f573d6000803e3d6000fd5b50505050565b600c54600160a01b900460ff161590565b6111be611204565b6111c757600080fd5b6001600160a01b03166000908152600460205260409020805460ff19166001179055565b600f81565b60025461010090046001600160a01b031690565b60025461010090046001600160a01b0316331490565b60018054604080516020601f60026000196101008789161502019095169490940493840181900481028201810190925282815260609390929091830182828015610c235780601f10610bf857610100808354040283529160200191610c23565b601e81565b600f5481565b600d5481565b6009546001600160a01b031681565b6112a2611204565b6112ab57600080fd5b600a80546001600160a01b0319166001600160a01b0392909216919091179055565b3360009081526014602090815260408083206001600160a01b0386168452909152812054808310611321573360009081526014602090815260408083206001600160a01b0388168452909152812055611350565b61132b8184611b4a565b3360009081526014602090815260408083206001600160a01b03891684529091529020555b3360008181526014602090815260408083206001600160a01b0389168085529083529281902054815190815290519293927f8c5be1e5ebec7d5bd14f71427d1e84f3dd0314c0f7b2291e5b200ac8c7c3b925929181900390910190a35060019392505050565b600c546001600160a01b031681565b600a546001600160a01b031681565b6000826001600160a01b0381166113ea57600080fd5b6113f5338585611959565b506001949350505050565b6008546001600160a01b031681565b600c54600160a81b900460ff1681565b6040518060400160405280600381526020016253545960e81b81525081565b600c805460ff60a01b1916600160a01b179055611459611204565b61146257600080fd5b6011543060009081526013602052604081205490916114819190611880565b9050600081116114c25760405162461bcd60e51b81526004018080602001828103825260398152602001806128016039913960400191505060405180910390fd5b604080516002808252606080830184529260208301908036833701905050905030816000815181106114f057fe5b6001600160a01b03928316602091820292909201810191909152600b54604080516315ab88c960e31b81529051919093169263ad5c4648926004808301939192829003018186803b15801561154457600080fd5b505afa158015611558573d6000803e3d6000fd5b505050506040513d602081101561156e57600080fd5b505181518290600190811061157f57fe5b6001600160a01b03928316602091820292909201810191909152600b5460075460405163791ac94760e01b81526004810187815260006024830181905292861660648301819052426084840181905260a060448501908152895160a48601528951969098169763791ac947978b978b969495939460c4019187810191028083838b5b83811015611619578181015183820152602001611601565b505050509050019650505050505050600060405180830381600087803b15801561164257600080fd5b505af1158015611656573d6000803e3d6000fd5b5050600c805460ff60a01b1916905550505050565b6006546001600160a01b031681565b601981565b611687611204565b61169057600080fd5b80156116b657600c805460ff60b01b1916600160b01b8315150217905542600f556116ce565b600c805460ff60b01b1916600160b01b831515021790555b50565b6040518060400160405280600b81526020016a14dd1bdc9b48165a595b1960aa1b81525081565b6001600160a01b031660009081526004602052604090205460ff1690565b601154600c546001600160a01b03166000908152601360205260408120549091829161174191611880565b905061176361174e610d80565b610df861175c846002611b92565b8690611b92565b9392505050565b6001600160a01b03918216600090815260146020908152604080832093909416825291909152205490565b61179d611204565b6117a657600080fd5b80156117cc57600c805460ff60a81b1916600160a81b8315150217905542600e556116ce565b600c8054821515600160a81b0260ff60a81b1990911617905550565b6117f0611204565b6117f957600080fd5b6116ce81611beb565b600b546001600160a01b031681565b60156020526000908152604090205460ff1681565b600082820183811015611763576040805162461bcd60e51b815260206004820152601b60248201527f536166654d6174683a206164646974696f6e206f766572666c6f770000000000604482015290519081900360640190fd5b600061176383836040518060400160405280601a81526020017f536166654d6174683a206469766973696f6e206279207a65726f000000000000815250611c65565b600081848411156119515760405162461bcd60e51b81526004018080602001828103825283818151815260200191508051906020019080838360005b838110156119165781810151838201526020016118fe565b50505050905090810190601f1680156119435780820380516001836020036101000a031916815260200191505b509250505060405180910390fd5b505050900390565b6001600160a01b03831660009081526015602052604081205460ff1615801561199b57506001600160a01b03831660009081526015602052604090205460ff16155b6119db576040805162461bcd60e51b815260206004820152600c60248201526b1a5b97d89b1858dadb1a5cdd60a21b604482015290519081900360640190fd5b600c54600160a01b900460ff16156119ff576119f8848484611cca565b9050611763565b611a07611d5c565b15611a1457611a14611dc2565b611a1c611f4d565b15611a2957611a29611fa0565b611a316122dd565b15611a3e57611a3e612308565b6000611a5560115484611b9290919063ffffffff16565b6001600160a01b038616600090815260136020526040902054909150611a7b9082611b4a565b6001600160a01b038616600090815260136020526040812091909155611aa18686612615565b611aab5781611ab6565b611ab6868684612669565b6001600160a01b038616600090815260136020526040902054909150611adc9082611826565b6001600160a01b03808716600081815260136020526040902092909255601154908816907fddf252ad1be2c89b69c2b068fc378daa952ba7f163c4a11628f55a4df523b3ef90611b2d908590611880565b60408051918252519081900360200190a350600195945050505050565b600061176383836040518060400160405280601e81526020017f536166654d6174683a207375627472616374696f6e206f766572666c6f7700008152506118c2565b3b151590565b600082611ba157506000610c8e565b82820282848281611bae57fe5b04146117635760405162461bcd60e51b815260040180806020018281038252602181526020018061283a6021913960400191505060405180910390fd5b6001600160a01b038116611bfe57600080fd5b6002546040516001600160a01b0380841692610100900416907f8be0079c531659141344cd1fd0a4f28419497f9722a3daafe3b4186f6b6457e090600090a3600280546001600160a01b0390921661010002610100600160a81b0319909216919091179055565b60008183611cb45760405162461bcd60e51b81526020600482018181528351602484015283519092839260449091019190850190808383600083156119165781810151838201526020016118fe565b506000838581611cc057fe5b0495945050505050565b600080611ce260115484611b9290919063ffffffff16565b6001600160a01b038616600090815260136020526040902054909150611d089082611b4a565b6001600160a01b038087166000908152601360205260408082209390935590861681522054611d379082611826565b6001600160a01b03851660009081526013602052604090205550600190509392505050565b600c54600090600160a81b900460ff168015611d8057506010546601c6bf52634000115b8015611d975750600c546001600160a01b03163314155b8015611dad5750600c54600160a01b900460ff16155b8015610dfe575050600e5461012c0142101590565b600c54600160a01b900460ff1615611dd9576110b1565b600d54600e546000914290810391900382611df68261012c611880565b90506000611e05826005611b92565b90506301e13380841015611e1d576103469450611e47565b6301e133808410158015611e3457506302d1cd4084105b15611e425760429450611e47565b600694505b60005b82811015611e7a57611e6f62989680610df8611e66828a611826565b60105490611b92565b601055600101611e4a565b50601054611e8f906407b6ae2fff1990611880565b601155611eaa611ea18361012c611b92565b600e5490611826565b600e556003546040805160016209351760e01b0319815290516001600160a01b039092169163fff6cae99160048082019260009290919082900301818387803b158015611ef657600080fd5b505af1158015611f0a573d6000803e3d6000fd5b505060105460408051918252518493507f72725a3b1e5bd622d6bcd1339bb31279c351abe8f541ac7fd320f24e1b1641f292509081900360200190a25050505050565b600c54600090600160b01b900460ff168015611f735750600c54600160a01b900460ff16155b8015611f8a5750600c546001600160a01b03163314155b8015610dfe575050600f546202a3000142101590565b600c805460ff60a01b1916600160a01b1790556011546006546001600160a01b03166000908152601360205260408120549091611fdd9190611880565b6006546001600160a01b03166000908152601360205260408082205430835291205491925061200c9190611826565b30600090815260136020526040808220929092556006546001600160a01b0316815290812081905561203f826002611880565b9050600061204d8383611b4a565b90508061205c575050506122ce565b6040805160028082526060808301845292602083019080368337019050509050308160008151811061208a57fe5b6001600160a01b03928316602091820292909201810191909152600b54604080516315ab88c960e31b81529051919093169263ad5c4648926004808301939192829003018186803b1580156120de57600080fd5b505afa1580156120f2573d6000803e3d6000fd5b505050506040513d602081101561210857600080fd5b505181518290600190811061211957fe5b6001600160a01b03928316602091820292909201810191909152600b5460405163791ac94760e01b8152600481018681526000602483018190523060648401819052426084850181905260a060448601908152895160a487015289514799979097169763791ac947978c9795968c9690939260c49091019187820191028083838b5b838110156121b357818101518382015260200161219b565b505050509050019650505050505050600060405180830381600087803b1580156121dc57600080fd5b505af11580156121f0573d6000803e3d6000fd5b5050505060006122098247611b4a90919063ffffffff16565b905060008511801561221b5750600081115b156122c357600b546006546040805163f305d71960e01b81523060048201526024810189905260006044820181905260648201526001600160a01b0392831660848201524260a48201529051919092169163f305d71991849160c48082019260609290919082900301818588803b15801561229557600080fd5b505af11580156122a9573d6000803e3d6000fd5b50505050506040513d60608110156122c057600080fd5b50505b505042600f55505050505b600c805460ff60a01b19169055565b600c54600090600160a01b900460ff16158015610dfe575050600c546001600160a01b031633141590565b600c805460ff60a01b1916600160a01b17905560115430600090815260136020526040812054909161233a9190611880565b90508061234757506122ce565b60408051600280825260608083018452479390929190602083019080368337019050509050308160008151811061237a57fe5b6001600160a01b03928316602091820292909201810191909152600b54604080516315ab88c960e31b81529051919093169263ad5c4648926004808301939192829003018186803b1580156123ce57600080fd5b505afa1580156123e2573d6000803e3d6000fd5b505050506040513d60208110156123f857600080fd5b505181518290600190811061240957fe5b60200260200101906001600160a01b031690816001600160a01b031681525050600b60009054906101000a90046001600160a01b03166001600160a01b031663791ac9478460008430426040518663ffffffff1660e01b81526004018086815260200185815260200180602001846001600160a01b03168152602001838152602001828103825285818151815260200191508051906020019060200280838360005b838110156124c35781810151838201526020016124ab565b505050509050019650505050505050600060405180830381600087803b1580156124ec57600080fd5b505af1158015612500573d6000803e3d6000fd5b5050505060006125198347611b4a90919063ffffffff16565b6007549091506000906001600160a01b031661254561253a60196032611826565b610df8856019611b92565b60405161753091906000818181858888f193505050503d8060008114612587576040519150601f19603f3d011682016040523d82523d6000602084013e61258c565b606091505b50506008549091506001600160a01b03166125b76125ac60196032611826565b610df8856032611b92565b60405161753091906000818181858888f193505050503d80600081146125f9576040519150601f19603f3d011682016040523d82523d6000602084013e6125fe565b606091505b5050505050505050600c805460ff60a01b19169055565b600c546000906001600160a01b03848116911614806126415750600c546001600160a01b038381169116145b8015611763575050506001600160a01b031660009081526004602052604090205460ff161590565b600554600c54600091906019906001600160a01b03868116911614156126a85760055461269790603c611826565b91506126a56019603c611826565b90505b60006126ba6103e8610df88786611b92565b90506126f16126d06103e8610df888600f611b92565b6009546001600160a01b031660009081526013602052604090205490611826565b6009546001600160a01b031660009081526013602052604090205561274061272a6103e8610df8612723866032611826565b8990611b92565b3060009081526013602052604090205490611826565b306000908152601360205260409020556127856127646103e8610df888601e611b92565b6006546001600160a01b031660009081526013602052604090205490611826565b6006546001600160a01b0390811660009081526013602052604090209190915560115430918916907fddf252ad1be2c89b69c2b068fc378daa952ba7f163c4a11628f55a4df523b3ef906127da908590611880565b60408051918252519081900360200190a36127f58582611b4a565b97965050505050505056fe5468657265206973206e6f2053746f726d205969656c6420746f6b656e206465706f736974656420696e20746f6b656e20636f6e7472616374536166654d6174683a206d756c7469706c69636174696f6e206f766572666c6f776f6e6c7920636f6e747261637420616464726573732c206e6f7420616c6c6f776564206578746572616e6c6c79206f776e6564206163636f756e74a264697066735822122013f267fd12a471c6da7ba347c1fc51d0d5dc769bd22532dd14b3663140222a7164736f6c63430007040033",
          "opcodes": "PUSH1 0x80 PUSH1 0x40 MSTORE PUSH3 0x40 PUSH1 0xF PUSH3 0x2C PUSH1 0x32 PUSH3 0x2C PUSH1 0x19 PUSH1 0x1E PUSH3 0x452 PUSH1 0x20 SHL PUSH3 0x1826 OR SWAP1 SWAP2 SWAP1 PUSH1 0x20 SHR JUMP JUMPDEST PUSH3 0x452 PUSH1 0x20 SHL PUSH3 0x1826 OR SWAP1 SWAP2 SWAP1 PUSH1 0x20 SHR JUMP JUMPDEST PUSH1 0x5 SSTORE PUSH1 0xC DUP1 SLOAD PUSH1 0xFF PUSH1 0xA0 SHL NOT AND SWAP1 SSTORE CALLVALUE DUP1 ISZERO PUSH3 0x5D JUMPI PUSH1 0x0 DUP1 REVERT JUMPDEST POP PUSH1 0x40 DUP1 MLOAD DUP1 DUP3 ADD DUP3 MSTORE PUSH1 0xB DUP2 MSTORE PUSH11 0x14DD1BDC9B48165A595B19 PUSH1 0xAA SHL PUSH1 0x20 DUP1 DUP4 ADD SWAP2 DUP3 MSTORE DUP4 MLOAD DUP1 DUP6 ADD SWAP1 SWAP5 MSTORE PUSH1 0x3 DUP5 MSTORE PUSH3 0x535459 PUSH1 0xE8 SHL SWAP1 DUP5 ADD MSTORE DUP2 MLOAD SWAP2 SWAP3 SWAP2 PUSH1 0x5 SWAP2 PUSH3 0xB0 SWAP2 PUSH1 0x0 SWAP2 SWAP1 PUSH3 0x620 JUMP JUMPDEST POP DUP2 MLOAD PUSH3 0xC6 SWAP1 PUSH1 0x1 SWAP1 PUSH1 0x20 DUP6 ADD SWAP1 PUSH3 0x620 JUMP JUMPDEST POP PUSH1 0x2 DUP1 SLOAD PUSH1 0xFF NOT AND PUSH1 0xFF SWAP3 SWAP1 SWAP3 AND SWAP2 SWAP1 SWAP2 OR PUSH2 0x100 PUSH1 0x1 PUSH1 0xA8 SHL SUB NOT AND PUSH2 0x100 CALLER MUL OR SWAP1 SSTORE POP POP PUSH1 0xB DUP1 SLOAD PUSH20 0x9AC64CC6E4415144C455BD8E4837FEA55603E5C3 PUSH1 0x1 PUSH1 0x1 PUSH1 0xA0 SHL SUB NOT SWAP1 SWAP2 AND OR SWAP1 DUP2 SWAP1 SSTORE PUSH1 0x40 DUP1 MLOAD PUSH4 0xC45A0155 PUSH1 0xE0 SHL DUP2 MSTORE SWAP1 MLOAD PUSH1 0x1 PUSH1 0x1 PUSH1 0xA0 SHL SUB SWAP1 SWAP3 AND SWAP2 PUSH4 0xC45A0155 SWAP2 PUSH1 0x4 DUP1 DUP3 ADD SWAP3 PUSH1 0x20 SWAP3 SWAP1 SWAP2 SWAP1 DUP3 SWAP1 SUB ADD DUP2 DUP7 DUP1 EXTCODESIZE ISZERO DUP1 ISZERO PUSH3 0x15B JUMPI PUSH1 0x0 DUP1 REVERT JUMPDEST POP GAS STATICCALL ISZERO DUP1 ISZERO PUSH3 0x170 JUMPI RETURNDATASIZE PUSH1 0x0 DUP1 RETURNDATACOPY RETURNDATASIZE PUSH1 0x0 REVERT JUMPDEST POP POP POP POP PUSH1 0x40 MLOAD RETURNDATASIZE PUSH1 0x20 DUP2 LT ISZERO PUSH3 0x187 JUMPI PUSH1 0x0 DUP1 REVERT JUMPDEST POP MLOAD PUSH1 0xB SLOAD PUSH1 0x40 DUP1 MLOAD PUSH4 0x15AB88C9 PUSH1 0xE3 SHL DUP2 MSTORE SWAP1 MLOAD PUSH1 0x1 PUSH1 0x1 PUSH1 0xA0 SHL SUB SWAP4 DUP5 AND SWAP4 PUSH4 0xC9C65396 SWAP4 AND SWAP2 PUSH4 0xAD5C4648 SWAP2 PUSH1 0x4 DUP1 DUP4 ADD SWAP3 PUSH1 0x20 SWAP3 SWAP2 SWAP1 DUP3 SWAP1 SUB ADD DUP2 DUP7 DUP1 EXTCODESIZE ISZERO DUP1 ISZERO PUSH3 0x1D6 JUMPI PUSH1 0x0 DUP1 REVERT JUMPDEST POP GAS STATICCALL ISZERO DUP1 ISZERO PUSH3 0x1EB JUMPI RETURNDATASIZE PUSH1 0x0 DUP1 RETURNDATACOPY RETURNDATASIZE PUSH1 0x0 REVERT JUMPDEST POP POP POP POP PUSH1 0x40 MLOAD RETURNDATASIZE PUSH1 0x20 DUP2 LT ISZERO PUSH3 0x202 JUMPI PUSH1 0x0 DUP1 REVERT JUMPDEST POP MLOAD PUSH1 0x40 DUP1 MLOAD PUSH1 0x1 PUSH1 0x1 PUSH1 0xE0 SHL SUB NOT PUSH1 0xE0 DUP6 SWAP1 SHL AND DUP2 MSTORE PUSH1 0x1 PUSH1 0x1 PUSH1 0xA0 SHL SUB SWAP1 SWAP3 AND PUSH1 0x4 DUP4 ADD MSTORE ADDRESS PUSH1 0x24 DUP4 ADD MSTORE MLOAD PUSH1 0x44 DUP1 DUP4 ADD SWAP3 PUSH1 0x20 SWAP3 SWAP2 SWAP1 DUP3 SWAP1 SUB ADD DUP2 PUSH1 0x0 DUP8 DUP1 EXTCODESIZE ISZERO DUP1 ISZERO PUSH3 0x252 JUMPI PUSH1 0x0 DUP1 REVERT JUMPDEST POP GAS CALL ISZERO DUP1 ISZERO PUSH3 0x267 JUMPI RETURNDATASIZE PUSH1 0x0 DUP1 RETURNDATACOPY RETURNDATASIZE PUSH1 0x0 REVERT JUMPDEST POP POP POP POP PUSH1 0x40 MLOAD RETURNDATASIZE PUSH1 0x20 DUP2 LT ISZERO PUSH3 0x27E JUMPI PUSH1 0x0 DUP1 REVERT JUMPDEST POP MLOAD PUSH1 0xC DUP1 SLOAD PUSH1 0x1 PUSH1 0x1 PUSH1 0xA0 SHL SUB SWAP3 DUP4 AND PUSH1 0x1 PUSH1 0x1 PUSH1 0xA0 SHL SUB NOT SWAP2 DUP3 AND OR DUP3 SSTORE PUSH1 0x6 DUP1 SLOAD DUP3 AND PUSH20 0x1A25BE1B836E553625EFFE5940EE0BD507B0AC10 OR SWAP1 SSTORE PUSH1 0x7 DUP1 SLOAD DUP3 AND PUSH20 0xAE3CDA4C8932AA2AA77F98849FF68E71372FB64A OR DUP2 SSTORE PUSH1 0x8 DUP1 SLOAD DUP4 AND PUSH20 0xF1F47F90F6C8DF3AB27EFD1E7ED91FCE819814CD OR SWAP1 SSTORE PUSH1 0x9 DUP1 SLOAD DUP4 AND PUSH20 0xDD6EF0DD73C7D3437B067D295B5D5344A485F5D0 OR SWAP1 SSTORE ADDRESS PUSH1 0x0 SWAP1 DUP2 MSTORE PUSH1 0x14 PUSH1 0x20 SWAP1 DUP2 MSTORE PUSH1 0x40 DUP1 DUP4 KECCAK256 PUSH1 0xB SLOAD DUP9 AND DUP5 MSTORE DUP3 MSTORE DUP1 DUP4 KECCAK256 PUSH1 0x0 NOT SWAP1 SSTORE SWAP5 SLOAD PUSH1 0xA DUP1 SLOAD DUP7 AND SWAP2 DUP9 AND SWAP2 DUP3 OR SWAP1 SSTORE PUSH1 0x3 DUP1 SLOAD SWAP1 SWAP6 AND OR SWAP1 SWAP4 SSTORE PUSH5 0x9502F9000 PUSH1 0x10 SWAP1 DUP2 SSTORE SWAP2 SLOAD SWAP1 SWAP5 AND DUP5 MSTORE PUSH1 0x13 DUP3 MSTORE SWAP2 SWAP1 SWAP3 KECCAK256 PUSH5 0x7B6AE2FFF NOT SWAP1 DUP2 SWAP1 SSTORE SWAP1 SLOAD PUSH3 0x38F SWAP3 PUSH3 0x4B4 DUP2 SHL PUSH3 0x1880 OR SWAP1 SHR JUMP JUMPDEST PUSH1 0x11 SSTORE TIMESTAMP PUSH1 0xD DUP2 SWAP1 SSTORE PUSH1 0xE SSTORE PUSH1 0xC DUP1 SLOAD PUSH1 0x12 DUP1 SLOAD PUSH1 0xFF NOT SWAP1 DUP2 AND SWAP1 SWAP2 SSTORE PUSH2 0xFFFF PUSH1 0xA8 SHL NOT SWAP1 SWAP2 AND PUSH1 0x1 PUSH1 0xB0 SHL OR SWAP1 SWAP2 SSTORE PUSH1 0x7 DUP1 SLOAD PUSH1 0x1 PUSH1 0x1 PUSH1 0xA0 SHL SUB SWAP1 DUP2 AND PUSH1 0x0 SWAP1 DUP2 MSTORE PUSH1 0x4 PUSH1 0x20 MSTORE PUSH1 0x40 DUP1 DUP3 KECCAK256 DUP1 SLOAD DUP7 AND PUSH1 0x1 SWAP1 DUP2 OR SWAP1 SWAP2 SSTORE ADDRESS DUP4 MSTORE SWAP2 KECCAK256 DUP1 SLOAD SWAP1 SWAP5 AND OR SWAP1 SWAP3 SSTORE SLOAD PUSH3 0x404 SWAP2 AND PUSH3 0x4FE JUMP JUMPDEST PUSH1 0x7 SLOAD PUSH1 0x10 SLOAD PUSH1 0x40 DUP1 MLOAD SWAP2 DUP3 MSTORE MLOAD PUSH1 0x1 PUSH1 0x1 PUSH1 0xA0 SHL SUB SWAP1 SWAP3 AND SWAP2 PUSH1 0x0 SWAP2 PUSH32 0xDDF252AD1BE2C89B69C2B068FC378DAA952BA7F163C4A11628F55A4DF523B3EF SWAP2 SWAP1 DUP2 SWAP1 SUB PUSH1 0x20 ADD SWAP1 LOG3 PUSH3 0x6CC JUMP JUMPDEST PUSH1 0x0 DUP3 DUP3 ADD DUP4 DUP2 LT ISZERO PUSH3 0x4AD JUMPI PUSH1 0x40 DUP1 MLOAD PUSH3 0x461BCD PUSH1 0xE5 SHL DUP2 MSTORE PUSH1 0x20 PUSH1 0x4 DUP3 ADD MSTORE PUSH1 0x1B PUSH1 0x24 DUP3 ADD MSTORE PUSH32 0x536166654D6174683A206164646974696F6E206F766572666C6F770000000000 PUSH1 0x44 DUP3 ADD MSTORE SWAP1 MLOAD SWAP1 DUP2 SWAP1 SUB PUSH1 0x64 ADD SWAP1 REVERT JUMPDEST SWAP4 SWAP3 POP POP POP JUMP JUMPDEST PUSH1 0x0 PUSH3 0x4AD DUP4 DUP4 PUSH1 0x40 MLOAD DUP1 PUSH1 0x40 ADD PUSH1 0x40 MSTORE DUP1 PUSH1 0x1A DUP2 MSTORE PUSH1 0x20 ADD PUSH32 0x536166654D6174683A206469766973696F6E206279207A65726F000000000000 DUP2 MSTORE POP PUSH3 0x579 PUSH1 0x20 SHL PUSH1 0x20 SHR JUMP JUMPDEST PUSH1 0x1 PUSH1 0x1 PUSH1 0xA0 SHL SUB DUP2 AND PUSH3 0x512 JUMPI PUSH1 0x0 DUP1 REVERT JUMPDEST PUSH1 0x2 SLOAD PUSH1 0x40 MLOAD PUSH1 0x1 PUSH1 0x1 PUSH1 0xA0 SHL SUB DUP1 DUP5 AND SWAP3 PUSH2 0x100 SWAP1 DIV AND SWAP1 PUSH32 0x8BE0079C531659141344CD1FD0A4F28419497F9722A3DAAFE3B4186F6B6457E0 SWAP1 PUSH1 0x0 SWAP1 LOG3 PUSH1 0x2 DUP1 SLOAD PUSH1 0x1 PUSH1 0x1 PUSH1 0xA0 SHL SUB SWAP1 SWAP3 AND PUSH2 0x100 MUL PUSH2 0x100 PUSH1 0x1 PUSH1 0xA8 SHL SUB NOT SWAP1 SWAP3 AND SWAP2 SWAP1 SWAP2 OR SWAP1 SSTORE JUMP JUMPDEST PUSH1 0x0 DUP2 DUP4 PUSH3 0x609 JUMPI PUSH1 0x40 MLOAD PUSH3 0x461BCD PUSH1 0xE5 SHL DUP2 MSTORE PUSH1 0x4 ADD DUP1 DUP1 PUSH1 0x20 ADD DUP3 DUP2 SUB DUP3 MSTORE DUP4 DUP2 DUP2 MLOAD DUP2 MSTORE PUSH1 0x20 ADD SWAP2 POP DUP1 MLOAD SWAP1 PUSH1 0x20 ADD SWAP1 DUP1 DUP4 DUP4 PUSH1 0x0 JUMPDEST DUP4 DUP2 LT ISZERO PUSH3 0x5CD JUMPI DUP2 DUP2 ADD MLOAD DUP4 DUP3 ADD MSTORE PUSH1 0x20 ADD PUSH3 0x5B3 JUMP JUMPDEST POP POP POP POP SWAP1 POP SWAP1 DUP2 ADD SWAP1 PUSH1 0x1F AND DUP1 ISZERO PUSH3 0x5FB JUMPI DUP1 DUP3 SUB DUP1 MLOAD PUSH1 0x1 DUP4 PUSH1 0x20 SUB PUSH2 0x100 EXP SUB NOT AND DUP2 MSTORE PUSH1 0x20 ADD SWAP2 POP JUMPDEST POP SWAP3 POP POP POP PUSH1 0x40 MLOAD DUP1 SWAP2 SUB SWAP1 REVERT JUMPDEST POP PUSH1 0x0 DUP4 DUP6 DUP2 PUSH3 0x616 JUMPI INVALID JUMPDEST DIV SWAP6 SWAP5 POP POP POP POP POP JUMP JUMPDEST DUP3 DUP1 SLOAD PUSH1 0x1 DUP2 PUSH1 0x1 AND ISZERO PUSH2 0x100 MUL SUB AND PUSH1 0x2 SWAP1 DIV SWAP1 PUSH1 0x0 MSTORE PUSH1 0x20 PUSH1 0x0 KECCAK256 SWAP1 PUSH1 0x1F ADD PUSH1 0x20 SWAP1 DIV DUP2 ADD SWAP3 DUP3 PUSH3 0x658 JUMPI PUSH1 0x0 DUP6 SSTORE PUSH3 0x6A3 JUMP JUMPDEST DUP3 PUSH1 0x1F LT PUSH3 0x673 JUMPI DUP1 MLOAD PUSH1 0xFF NOT AND DUP4 DUP1 ADD OR DUP6 SSTORE PUSH3 0x6A3 JUMP JUMPDEST DUP3 DUP1 ADD PUSH1 0x1 ADD DUP6 SSTORE DUP3 ISZERO PUSH3 0x6A3 JUMPI SWAP2 DUP3 ADD JUMPDEST DUP3 DUP2 GT ISZERO PUSH3 0x6A3 JUMPI DUP3 MLOAD DUP3 SSTORE SWAP2 PUSH1 0x20 ADD SWAP2 SWAP1 PUSH1 0x1 ADD SWAP1 PUSH3 0x686 JUMP JUMPDEST POP PUSH3 0x6B1 SWAP3 SWAP2 POP PUSH3 0x6B5 JUMP JUMPDEST POP SWAP1 JUMP JUMPDEST JUMPDEST DUP1 DUP3 GT ISZERO PUSH3 0x6B1 JUMPI PUSH1 0x0 DUP2 SSTORE PUSH1 0x1 ADD PUSH3 0x6B6 JUMP JUMPDEST PUSH2 0x28CB DUP1 PUSH3 0x6DC PUSH1 0x0 CODECOPY PUSH1 0x0 RETURN INVALID PUSH1 0x80 PUSH1 0x40 MSTORE PUSH1 0x4 CALLDATASIZE LT PUSH2 0x390 JUMPI PUSH1 0x0 CALLDATALOAD PUSH1 0xE0 SHR DUP1 PUSH4 0x83B4AC68 GT PUSH2 0x1DC JUMPI DUP1 PUSH4 0xAAC421F7 GT PUSH2 0x102 JUMPI DUP1 PUSH4 0xD28D8852 GT PUSH2 0xA0 JUMPI DUP1 PUSH4 0xE15BEB80 GT PUSH2 0x6F JUMPI DUP1 PUSH4 0xE15BEB80 EQ PUSH2 0xAF0 JUMPI DUP1 PUSH4 0xF2FDE38B EQ PUSH2 0xB1C JUMPI DUP1 PUSH4 0xF887EA40 EQ PUSH2 0xB4F JUMPI DUP1 PUSH4 0xF9F92BE4 EQ PUSH2 0xB64 JUMPI PUSH2 0x397 JUMP JUMPDEST DUP1 PUSH4 0xD28D8852 EQ PUSH2 0xA43 JUMPI DUP1 PUSH4 0xD4399790 EQ PUSH2 0xA58 JUMPI DUP1 PUSH4 0xD51ED1C8 EQ PUSH2 0xA8B JUMPI DUP1 PUSH4 0xDD62ED3E EQ PUSH2 0xAB5 JUMPI PUSH2 0x397 JUMP JUMPDEST DUP1 PUSH4 0xBD595581 GT PUSH2 0xDC JUMPI DUP1 PUSH4 0xBD595581 EQ PUSH2 0x9D8 JUMPI DUP1 PUSH4 0xCA33E64C EQ PUSH2 0x9ED JUMPI DUP1 PUSH4 0xCC32D176 EQ PUSH2 0xA02 JUMPI DUP1 PUSH4 0xCFBAC92F EQ PUSH2 0xA17 JUMPI PUSH2 0x397 JUMP JUMPDEST DUP1 PUSH4 0xAAC421F7 EQ PUSH2 0x999 JUMPI DUP1 PUSH4 0xAFB9CF6D EQ PUSH2 0x9AE JUMPI DUP1 PUSH4 0xB09F1266 EQ PUSH2 0x9C3 JUMPI PUSH2 0x397 JUMP JUMPDEST DUP1 PUSH4 0x9B2912CC GT PUSH2 0x17A JUMPI DUP1 PUSH4 0xA457C2D7 GT PUSH2 0x149 JUMPI DUP1 PUSH4 0xA457C2D7 EQ PUSH2 0x8FD JUMPI DUP1 PUSH4 0xA8AA1B31 EQ PUSH2 0x936 JUMPI DUP1 PUSH4 0xA8B08982 EQ PUSH2 0x94B JUMPI DUP1 PUSH4 0xA9059CBB EQ PUSH2 0x960 JUMPI PUSH2 0x397 JUMP JUMPDEST DUP1 PUSH4 0x9B2912CC EQ PUSH2 0x88B JUMPI DUP1 PUSH4 0x9B87676C EQ PUSH2 0x8A0 JUMPI DUP1 PUSH4 0x9E90F9AA EQ PUSH2 0x8B5 JUMPI DUP1 PUSH4 0xA22D4832 EQ PUSH2 0x8CA JUMPI PUSH2 0x397 JUMP JUMPDEST DUP1 PUSH4 0x8DA5CB5B GT PUSH2 0x1B6 JUMPI DUP1 PUSH4 0x8DA5CB5B EQ PUSH2 0x837 JUMPI DUP1 PUSH4 0x8F32D59B EQ PUSH2 0x84C JUMPI DUP1 PUSH4 0x95D89B41 EQ PUSH2 0x861 JUMPI DUP1 PUSH4 0x98118CB4 EQ PUSH2 0x876 JUMPI PUSH2 0x397 JUMP JUMPDEST DUP1 PUSH4 0x83B4AC68 EQ PUSH2 0x7DA JUMPI DUP1 PUSH4 0x854CFF2F EQ PUSH2 0x7EF JUMPI DUP1 PUSH4 0x85893195 EQ PUSH2 0x822 JUMPI PUSH2 0x397 JUMP JUMPDEST DUP1 PUSH4 0x37C9BE87 GT PUSH2 0x2C1 JUMPI DUP1 PUSH4 0x5A604C52 GT PUSH2 0x25F JUMPI DUP1 PUSH4 0x706F86E9 GT PUSH2 0x22E JUMPI DUP1 PUSH4 0x706F86E9 EQ PUSH2 0x768 JUMPI DUP1 PUSH4 0x70A08231 EQ PUSH2 0x77D JUMPI DUP1 PUSH4 0x715018A6 EQ PUSH2 0x7B0 JUMPI DUP1 PUSH4 0x753D02A1 EQ PUSH2 0x7C5 JUMPI PUSH2 0x397 JUMP JUMPDEST DUP1 PUSH4 0x5A604C52 EQ PUSH2 0x714 JUMPI DUP1 PUSH4 0x6912652C EQ PUSH2 0x729 JUMPI DUP1 PUSH4 0x6D04730C EQ PUSH2 0x73E JUMPI DUP1 PUSH4 0x6DDD1713 EQ PUSH2 0x753 JUMPI PUSH2 0x397 JUMP JUMPDEST DUP1 PUSH4 0x3EAAF86B GT PUSH2 0x29B JUMPI DUP1 PUSH4 0x3EAAF86B EQ PUSH2 0x6A4 JUMPI DUP1 PUSH4 0x4D709ADF EQ PUSH2 0x6B9 JUMPI DUP1 PUSH4 0x564241CF EQ PUSH2 0x6EA JUMPI DUP1 PUSH4 0x568498C4 EQ PUSH2 0x6FF JUMPI PUSH2 0x397 JUMP JUMPDEST DUP1 PUSH4 0x37C9BE87 EQ PUSH2 0x5E5 JUMPI DUP1 PUSH4 0x39509351 EQ PUSH2 0x620 JUMPI DUP1 PUSH4 0x3C8E556D EQ PUSH2 0x659 JUMPI PUSH2 0x397 JUMP JUMPDEST DUP1 PUSH4 0x2B14CA56 GT PUSH2 0x32E JUMPI DUP1 PUSH4 0x313CE567 GT PUSH2 0x308 JUMPI DUP1 PUSH4 0x313CE567 EQ PUSH2 0x57B JUMPI DUP1 PUSH4 0x32424AA3 EQ PUSH2 0x5A6 JUMPI DUP1 PUSH4 0x32B75683 EQ PUSH2 0x5BB JUMPI DUP1 PUSH4 0x33A581D2 EQ PUSH2 0x5D0 JUMPI PUSH2 0x397 JUMP JUMPDEST DUP1 PUSH4 0x2B14CA56 EQ PUSH2 0x51C JUMPI DUP1 PUSH4 0x2E0F2625 EQ PUSH2 0x531 JUMPI DUP1 PUSH4 0x2F34D282 EQ PUSH2 0x546 JUMPI PUSH2 0x397 JUMP JUMPDEST DUP1 PUSH4 0x18160DDD GT PUSH2 0x36A JUMPI DUP1 PUSH4 0x18160DDD EQ PUSH2 0x49A JUMPI DUP1 PUSH4 0x1DF4CCFC EQ PUSH2 0x4AF JUMPI DUP1 PUSH4 0x23B872DD EQ PUSH2 0x4C4 JUMPI DUP1 PUSH4 0x2B112E49 EQ PUSH2 0x507 JUMPI PUSH2 0x397 JUMP JUMPDEST DUP1 PUSH4 0x6FDDE03 EQ PUSH2 0x39C JUMPI DUP1 PUSH4 0x95EA7B3 EQ PUSH2 0x426 JUMPI DUP1 PUSH4 0x180B0D7E EQ PUSH2 0x473 JUMPI PUSH2 0x397 JUMP JUMPDEST CALLDATASIZE PUSH2 0x397 JUMPI STOP JUMPDEST PUSH1 0x0 DUP1 REVERT JUMPDEST CALLVALUE DUP1 ISZERO PUSH2 0x3A8 JUMPI PUSH1 0x0 DUP1 REVERT JUMPDEST POP PUSH2 0x3B1 PUSH2 0xB97 JUMP JUMPDEST PUSH1 0x40 DUP1 MLOAD PUSH1 0x20 DUP1 DUP3 MSTORE DUP4 MLOAD DUP2 DUP4 ADD MSTORE DUP4 MLOAD SWAP2 SWAP3 DUP4 SWAP3 SWAP1 DUP4 ADD SWAP2 DUP6 ADD SWAP1 DUP1 DUP4 DUP4 PUSH1 0x0 JUMPDEST DUP4 DUP2 LT ISZERO PUSH2 0x3EB JUMPI DUP2 DUP2 ADD MLOAD DUP4 DUP3 ADD MSTORE PUSH1 0x20 ADD PUSH2 0x3D3 JUMP JUMPDEST POP POP POP POP SWAP1 POP SWAP1 DUP2 ADD SWAP1 PUSH1 0x1F AND DUP1 ISZERO PUSH2 0x418 JUMPI DUP1 DUP3 SUB DUP1 MLOAD PUSH1 0x1 DUP4 PUSH1 0x20 SUB PUSH2 0x100 EXP SUB NOT AND DUP2 MSTORE PUSH1 0x20 ADD SWAP2 POP JUMPDEST POP SWAP3 POP POP POP PUSH1 0x40 MLOAD DUP1 SWAP2 SUB SWAP1 RETURN JUMPDEST CALLVALUE DUP1 ISZERO PUSH2 0x432 JUMPI PUSH1 0x0 DUP1 REVERT JUMPDEST POP PUSH2 0x45F PUSH1 0x4 DUP1 CALLDATASIZE SUB PUSH1 0x40 DUP2 LT ISZERO PUSH2 0x449 JUMPI PUSH1 0x0 DUP1 REVERT JUMPDEST POP PUSH1 0x1 PUSH1 0x1 PUSH1 0xA0 SHL SUB DUP2 CALLDATALOAD AND SWAP1 PUSH1 0x20 ADD CALLDATALOAD PUSH2 0xC2D JUMP JUMPDEST PUSH1 0x40 DUP1 MLOAD SWAP2 ISZERO ISZERO DUP3 MSTORE MLOAD SWAP1 DUP2 SWAP1 SUB PUSH1 0x20 ADD SWAP1 RETURN JUMPDEST CALLVALUE DUP1 ISZERO PUSH2 0x47F JUMPI PUSH1 0x0 DUP1 REVERT JUMPDEST POP PUSH2 0x488 PUSH2 0xC94 JUMP JUMPDEST PUSH1 0x40 DUP1 MLOAD SWAP2 DUP3 MSTORE MLOAD SWAP1 DUP2 SWAP1 SUB PUSH1 0x20 ADD SWAP1 RETURN JUMPDEST CALLVALUE DUP1 ISZERO PUSH2 0x4A6 JUMPI PUSH1 0x0 DUP1 REVERT JUMPDEST POP PUSH2 0x488 PUSH2 0xC9A JUMP JUMPDEST CALLVALUE DUP1 ISZERO PUSH2 0x4BB JUMPI PUSH1 0x0 DUP1 REVERT JUMPDEST POP PUSH2 0x488 PUSH2 0xCA0 JUMP JUMPDEST CALLVALUE DUP1 ISZERO PUSH2 0x4D0 JUMPI PUSH1 0x0 DUP1 REVERT JUMPDEST POP PUSH2 0x45F PUSH1 0x4 DUP1 CALLDATASIZE SUB PUSH1 0x60 DUP2 LT ISZERO PUSH2 0x4E7 JUMPI PUSH1 0x0 DUP1 REVERT JUMPDEST POP PUSH1 0x1 PUSH1 0x1 PUSH1 0xA0 SHL SUB DUP2 CALLDATALOAD DUP2 AND SWAP2 PUSH1 0x20 DUP2 ADD CALLDATALOAD SWAP1 SWAP2 AND SWAP1 PUSH1 0x40 ADD CALLDATALOAD PUSH2 0xCA6 JUMP JUMPDEST CALLVALUE DUP1 ISZERO PUSH2 0x513 JUMPI PUSH1 0x0 DUP1 REVERT JUMPDEST POP PUSH2 0x488 PUSH2 0xD80 JUMP JUMPDEST CALLVALUE DUP1 ISZERO PUSH2 0x528 JUMPI PUSH1 0x0 DUP1 REVERT JUMPDEST POP PUSH2 0x488 PUSH2 0xE03 JUMP JUMPDEST CALLVALUE DUP1 ISZERO PUSH2 0x53D JUMPI PUSH1 0x0 DUP1 REVERT JUMPDEST POP PUSH2 0x488 PUSH2 0xE08 JUMP JUMPDEST CALLVALUE DUP1 ISZERO PUSH2 0x552 JUMPI PUSH1 0x0 DUP1 REVERT JUMPDEST POP PUSH2 0x579 PUSH1 0x4 DUP1 CALLDATASIZE SUB PUSH1 0x20 DUP2 LT ISZERO PUSH2 0x569 JUMPI PUSH1 0x0 DUP1 REVERT JUMPDEST POP CALLDATALOAD PUSH1 0x1 PUSH1 0x1 PUSH1 0xA0 SHL SUB AND PUSH2 0xE0D JUMP JUMPDEST STOP JUMPDEST CALLVALUE DUP1 ISZERO PUSH2 0x587 JUMPI PUSH1 0x0 DUP1 REVERT JUMPDEST POP PUSH2 0x590 PUSH2 0xE40 JUMP JUMPDEST PUSH1 0x40 DUP1 MLOAD PUSH1 0xFF SWAP1 SWAP3 AND DUP3 MSTORE MLOAD SWAP1 DUP2 SWAP1 SUB PUSH1 0x20 ADD SWAP1 RETURN JUMPDEST CALLVALUE DUP1 ISZERO PUSH2 0x5B2 JUMPI PUSH1 0x0 DUP1 REVERT JUMPDEST POP PUSH2 0x590 PUSH2 0xE08 JUMP JUMPDEST CALLVALUE DUP1 ISZERO PUSH2 0x5C7 JUMPI PUSH1 0x0 DUP1 REVERT JUMPDEST POP PUSH2 0x488 PUSH2 0xE49 JUMP JUMPDEST CALLVALUE DUP1 ISZERO PUSH2 0x5DC JUMPI PUSH1 0x0 DUP1 REVERT JUMPDEST POP PUSH2 0x488 PUSH2 0xE4F JUMP JUMPDEST CALLVALUE DUP1 ISZERO PUSH2 0x5F1 JUMPI PUSH1 0x0 DUP1 REVERT JUMPDEST POP PUSH2 0x579 PUSH1 0x4 DUP1 CALLDATASIZE SUB PUSH1 0x40 DUP2 LT ISZERO PUSH2 0x608 JUMPI PUSH1 0x0 DUP1 REVERT JUMPDEST POP PUSH1 0x1 PUSH1 0x1 PUSH1 0xA0 SHL SUB DUP2 CALLDATALOAD AND SWAP1 PUSH1 0x20 ADD CALLDATALOAD ISZERO ISZERO PUSH2 0xE55 JUMP JUMPDEST CALLVALUE DUP1 ISZERO PUSH2 0x62C JUMPI PUSH1 0x0 DUP1 REVERT JUMPDEST POP PUSH2 0x45F PUSH1 0x4 DUP1 CALLDATASIZE SUB PUSH1 0x40 DUP2 LT ISZERO PUSH2 0x643 JUMPI PUSH1 0x0 DUP1 REVERT JUMPDEST POP PUSH1 0x1 PUSH1 0x1 PUSH1 0xA0 SHL SUB DUP2 CALLDATALOAD AND SWAP1 PUSH1 0x20 ADD CALLDATALOAD PUSH2 0xED5 JUMP JUMPDEST CALLVALUE DUP1 ISZERO PUSH2 0x665 JUMPI PUSH1 0x0 DUP1 REVERT JUMPDEST POP PUSH2 0x579 PUSH1 0x4 DUP1 CALLDATASIZE SUB PUSH1 0x80 DUP2 LT ISZERO PUSH2 0x67C JUMPI PUSH1 0x0 DUP1 REVERT JUMPDEST POP PUSH1 0x1 PUSH1 0x1 PUSH1 0xA0 SHL SUB DUP2 CALLDATALOAD DUP2 AND SWAP2 PUSH1 0x20 DUP2 ADD CALLDATALOAD DUP3 AND SWAP2 PUSH1 0x40 DUP3 ADD CALLDATALOAD DUP2 AND SWAP2 PUSH1 0x60 ADD CALLDATALOAD AND PUSH2 0xF68 JUMP JUMPDEST CALLVALUE DUP1 ISZERO PUSH2 0x6B0 JUMPI PUSH1 0x0 DUP1 REVERT JUMPDEST POP PUSH2 0x488 PUSH2 0xFC9 JUMP JUMPDEST CALLVALUE DUP1 ISZERO PUSH2 0x6C5 JUMPI PUSH1 0x0 DUP1 REVERT JUMPDEST POP PUSH2 0x6CE PUSH2 0xFCF JUMP JUMPDEST PUSH1 0x40 DUP1 MLOAD PUSH1 0x1 PUSH1 0x1 PUSH1 0xA0 SHL SUB SWAP1 SWAP3 AND DUP3 MSTORE MLOAD SWAP1 DUP2 SWAP1 SUB PUSH1 0x20 ADD SWAP1 RETURN JUMPDEST CALLVALUE DUP1 ISZERO PUSH2 0x6F6 JUMPI PUSH1 0x0 DUP1 REVERT JUMPDEST POP PUSH2 0x488 PUSH2 0xFDE JUMP JUMPDEST CALLVALUE DUP1 ISZERO PUSH2 0x70B JUMPI PUSH1 0x0 DUP1 REVERT JUMPDEST POP PUSH2 0x6CE PUSH2 0xFE3 JUMP JUMPDEST CALLVALUE DUP1 ISZERO PUSH2 0x720 JUMPI PUSH1 0x0 DUP1 REVERT JUMPDEST POP PUSH2 0x590 PUSH2 0xFF2 JUMP JUMPDEST CALLVALUE DUP1 ISZERO PUSH2 0x735 JUMPI PUSH1 0x0 DUP1 REVERT JUMPDEST POP PUSH2 0x45F PUSH2 0xFF7 JUMP JUMPDEST CALLVALUE DUP1 ISZERO PUSH2 0x74A JUMPI PUSH1 0x0 DUP1 REVERT JUMPDEST POP PUSH2 0x45F PUSH2 0x1007 JUMP JUMPDEST CALLVALUE DUP1 ISZERO PUSH2 0x75F JUMPI PUSH1 0x0 DUP1 REVERT JUMPDEST POP PUSH2 0x45F PUSH2 0x1010 JUMP JUMPDEST CALLVALUE DUP1 ISZERO PUSH2 0x774 JUMPI PUSH1 0x0 DUP1 REVERT JUMPDEST POP PUSH2 0x579 PUSH2 0x1015 JUMP JUMPDEST CALLVALUE DUP1 ISZERO PUSH2 0x789 JUMPI PUSH1 0x0 DUP1 REVERT JUMPDEST POP PUSH2 0x488 PUSH1 0x4 DUP1 CALLDATASIZE SUB PUSH1 0x20 DUP2 LT ISZERO PUSH2 0x7A0 JUMPI PUSH1 0x0 DUP1 REVERT JUMPDEST POP CALLDATALOAD PUSH1 0x1 PUSH1 0x1 PUSH1 0xA0 SHL SUB AND PUSH2 0x10B3 JUMP JUMPDEST CALLVALUE DUP1 ISZERO PUSH2 0x7BC JUMPI PUSH1 0x0 DUP1 REVERT JUMPDEST POP PUSH2 0x579 PUSH2 0x10DB JUMP JUMPDEST CALLVALUE DUP1 ISZERO PUSH2 0x7D1 JUMPI PUSH1 0x0 DUP1 REVERT JUMPDEST POP PUSH2 0x579 PUSH2 0x113B JUMP JUMPDEST CALLVALUE DUP1 ISZERO PUSH2 0x7E6 JUMPI PUSH1 0x0 DUP1 REVERT JUMPDEST POP PUSH2 0x45F PUSH2 0x11A5 JUMP JUMPDEST CALLVALUE DUP1 ISZERO PUSH2 0x7FB JUMPI PUSH1 0x0 DUP1 REVERT JUMPDEST POP PUSH2 0x579 PUSH1 0x4 DUP1 CALLDATASIZE SUB PUSH1 0x20 DUP2 LT ISZERO PUSH2 0x812 JUMPI PUSH1 0x0 DUP1 REVERT JUMPDEST POP CALLDATALOAD PUSH1 0x1 PUSH1 0x1 PUSH1 0xA0 SHL SUB AND PUSH2 0x11B6 JUMP JUMPDEST CALLVALUE DUP1 ISZERO PUSH2 0x82E JUMPI PUSH1 0x0 DUP1 REVERT JUMPDEST POP PUSH2 0x488 PUSH2 0x11EB JUMP JUMPDEST CALLVALUE DUP1 ISZERO PUSH2 0x843 JUMPI PUSH1 0x0 DUP1 REVERT JUMPDEST POP PUSH2 0x6CE PUSH2 0x11F0 JUMP JUMPDEST CALLVALUE DUP1 ISZERO PUSH2 0x858 JUMPI PUSH1 0x0 DUP1 REVERT JUMPDEST POP PUSH2 0x45F PUSH2 0x1204 JUMP JUMPDEST CALLVALUE DUP1 ISZERO PUSH2 0x86D JUMPI PUSH1 0x0 DUP1 REVERT JUMPDEST POP PUSH2 0x3B1 PUSH2 0x121A JUMP JUMPDEST CALLVALUE DUP1 ISZERO PUSH2 0x882 JUMPI PUSH1 0x0 DUP1 REVERT JUMPDEST POP PUSH2 0x488 PUSH2 0x127A JUMP JUMPDEST CALLVALUE DUP1 ISZERO PUSH2 0x897 JUMPI PUSH1 0x0 DUP1 REVERT JUMPDEST POP PUSH2 0x488 PUSH2 0x127F JUMP JUMPDEST CALLVALUE DUP1 ISZERO PUSH2 0x8AC JUMPI PUSH1 0x0 DUP1 REVERT JUMPDEST POP PUSH2 0x488 PUSH2 0x1285 JUMP JUMPDEST CALLVALUE DUP1 ISZERO PUSH2 0x8C1 JUMPI PUSH1 0x0 DUP1 REVERT JUMPDEST POP PUSH2 0x6CE PUSH2 0x128B JUMP JUMPDEST CALLVALUE DUP1 ISZERO PUSH2 0x8D6 JUMPI PUSH1 0x0 DUP1 REVERT JUMPDEST POP PUSH2 0x579 PUSH1 0x4 DUP1 CALLDATASIZE SUB PUSH1 0x20 DUP2 LT ISZERO PUSH2 0x8ED JUMPI PUSH1 0x0 DUP1 REVERT JUMPDEST POP CALLDATALOAD PUSH1 0x1 PUSH1 0x1 PUSH1 0xA0 SHL SUB AND PUSH2 0x129A JUMP JUMPDEST CALLVALUE DUP1 ISZERO PUSH2 0x909 JUMPI PUSH1 0x0 DUP1 REVERT JUMPDEST POP PUSH2 0x45F PUSH1 0x4 DUP1 CALLDATASIZE SUB PUSH1 0x40 DUP2 LT ISZERO PUSH2 0x920 JUMPI PUSH1 0x0 DUP1 REVERT JUMPDEST POP PUSH1 0x1 PUSH1 0x1 PUSH1 0xA0 SHL SUB DUP2 CALLDATALOAD AND SWAP1 PUSH1 0x20 ADD CALLDATALOAD PUSH2 0x12CD JUMP JUMPDEST CALLVALUE DUP1 ISZERO PUSH2 0x942 JUMPI PUSH1 0x0 DUP1 REVERT JUMPDEST POP PUSH2 0x6CE PUSH2 0x13B6 JUMP JUMPDEST CALLVALUE DUP1 ISZERO PUSH2 0x957 JUMPI PUSH1 0x0 DUP1 REVERT JUMPDEST POP PUSH2 0x6CE PUSH2 0x13C5 JUMP JUMPDEST CALLVALUE DUP1 ISZERO PUSH2 0x96C JUMPI PUSH1 0x0 DUP1 REVERT JUMPDEST POP PUSH2 0x45F PUSH1 0x4 DUP1 CALLDATASIZE SUB PUSH1 0x40 DUP2 LT ISZERO PUSH2 0x983 JUMPI PUSH1 0x0 DUP1 REVERT JUMPDEST POP PUSH1 0x1 PUSH1 0x1 PUSH1 0xA0 SHL SUB DUP2 CALLDATALOAD AND SWAP1 PUSH1 0x20 ADD CALLDATALOAD PUSH2 0x13D4 JUMP JUMPDEST CALLVALUE DUP1 ISZERO PUSH2 0x9A5 JUMPI PUSH1 0x0 DUP1 REVERT JUMPDEST POP PUSH2 0x6CE PUSH2 0x1400 JUMP JUMPDEST CALLVALUE DUP1 ISZERO PUSH2 0x9BA JUMPI PUSH1 0x0 DUP1 REVERT JUMPDEST POP PUSH2 0x45F PUSH2 0x140F JUMP JUMPDEST CALLVALUE DUP1 ISZERO PUSH2 0x9CF JUMPI PUSH1 0x0 DUP1 REVERT JUMPDEST POP PUSH2 0x3B1 PUSH2 0x141F JUMP JUMPDEST CALLVALUE DUP1 ISZERO PUSH2 0x9E4 JUMPI PUSH1 0x0 DUP1 REVERT JUMPDEST POP PUSH2 0x579 PUSH2 0x143E JUMP JUMPDEST CALLVALUE DUP1 ISZERO PUSH2 0x9F9 JUMPI PUSH1 0x0 DUP1 REVERT JUMPDEST POP PUSH2 0x6CE PUSH2 0x166B JUMP JUMPDEST CALLVALUE DUP1 ISZERO PUSH2 0xA0E JUMPI PUSH1 0x0 DUP1 REVERT JUMPDEST POP PUSH2 0x488 PUSH2 0x167A JUMP JUMPDEST CALLVALUE DUP1 ISZERO PUSH2 0xA23 JUMPI PUSH1 0x0 DUP1 REVERT JUMPDEST POP PUSH2 0x579 PUSH1 0x4 DUP1 CALLDATASIZE SUB PUSH1 0x20 DUP2 LT ISZERO PUSH2 0xA3A JUMPI PUSH1 0x0 DUP1 REVERT JUMPDEST POP CALLDATALOAD ISZERO ISZERO PUSH2 0x167F JUMP JUMPDEST CALLVALUE DUP1 ISZERO PUSH2 0xA4F JUMPI PUSH1 0x0 DUP1 REVERT JUMPDEST POP PUSH2 0x3B1 PUSH2 0x16D1 JUMP JUMPDEST CALLVALUE DUP1 ISZERO PUSH2 0xA64 JUMPI PUSH1 0x0 DUP1 REVERT JUMPDEST POP PUSH2 0x45F PUSH1 0x4 DUP1 CALLDATASIZE SUB PUSH1 0x20 DUP2 LT ISZERO PUSH2 0xA7B JUMPI PUSH1 0x0 DUP1 REVERT JUMPDEST POP CALLDATALOAD PUSH1 0x1 PUSH1 0x1 PUSH1 0xA0 SHL SUB AND PUSH2 0x16F8 JUMP JUMPDEST CALLVALUE DUP1 ISZERO PUSH2 0xA97 JUMPI PUSH1 0x0 DUP1 REVERT JUMPDEST POP PUSH2 0x488 PUSH1 0x4 DUP1 CALLDATASIZE SUB PUSH1 0x20 DUP2 LT ISZERO PUSH2 0xAAE JUMPI PUSH1 0x0 DUP1 REVERT JUMPDEST POP CALLDATALOAD PUSH2 0x1716 JUMP JUMPDEST CALLVALUE DUP1 ISZERO PUSH2 0xAC1 JUMPI PUSH1 0x0 DUP1 REVERT JUMPDEST POP PUSH2 0x488 PUSH1 0x4 DUP1 CALLDATASIZE SUB PUSH1 0x40 DUP2 LT ISZERO PUSH2 0xAD8 JUMPI PUSH1 0x0 DUP1 REVERT JUMPDEST POP PUSH1 0x1 PUSH1 0x1 PUSH1 0xA0 SHL SUB DUP2 CALLDATALOAD DUP2 AND SWAP2 PUSH1 0x20 ADD CALLDATALOAD AND PUSH2 0x176A JUMP JUMPDEST CALLVALUE DUP1 ISZERO PUSH2 0xAFC JUMPI PUSH1 0x0 DUP1 REVERT JUMPDEST POP PUSH2 0x579 PUSH1 0x4 DUP1 CALLDATASIZE SUB PUSH1 0x20 DUP2 LT ISZERO PUSH2 0xB13 JUMPI PUSH1 0x0 DUP1 REVERT JUMPDEST POP CALLDATALOAD ISZERO ISZERO PUSH2 0x1795 JUMP JUMPDEST CALLVALUE DUP1 ISZERO PUSH2 0xB28 JUMPI PUSH1 0x0 DUP1 REVERT JUMPDEST POP PUSH2 0x579 PUSH1 0x4 DUP1 CALLDATASIZE SUB PUSH1 0x20 DUP2 LT ISZERO PUSH2 0xB3F JUMPI PUSH1 0x0 DUP1 REVERT JUMPDEST POP CALLDATALOAD PUSH1 0x1 PUSH1 0x1 PUSH1 0xA0 SHL SUB AND PUSH2 0x17E8 JUMP JUMPDEST CALLVALUE DUP1 ISZERO PUSH2 0xB5B JUMPI PUSH1 0x0 DUP1 REVERT JUMPDEST POP PUSH2 0x6CE PUSH2 0x1802 JUMP JUMPDEST CALLVALUE DUP1 ISZERO PUSH2 0xB70 JUMPI PUSH1 0x0 DUP1 REVERT JUMPDEST POP PUSH2 0x45F PUSH1 0x4 DUP1 CALLDATASIZE SUB PUSH1 0x20 DUP2 LT ISZERO PUSH2 0xB87 JUMPI PUSH1 0x0 DUP1 REVERT JUMPDEST POP CALLDATALOAD PUSH1 0x1 PUSH1 0x1 PUSH1 0xA0 SHL SUB AND PUSH2 0x1811 JUMP JUMPDEST PUSH1 0x0 DUP1 SLOAD PUSH1 0x40 DUP1 MLOAD PUSH1 0x20 PUSH1 0x1F PUSH1 0x2 PUSH1 0x0 NOT PUSH2 0x100 PUSH1 0x1 DUP9 AND ISZERO MUL ADD SWAP1 SWAP6 AND SWAP5 SWAP1 SWAP5 DIV SWAP4 DUP5 ADD DUP2 SWAP1 DIV DUP2 MUL DUP3 ADD DUP2 ADD SWAP1 SWAP3 MSTORE DUP3 DUP2 MSTORE PUSH1 0x60 SWAP4 SWAP1 SWAP3 SWAP1 SWAP2 DUP4 ADD DUP3 DUP3 DUP1 ISZERO PUSH2 0xC23 JUMPI DUP1 PUSH1 0x1F LT PUSH2 0xBF8 JUMPI PUSH2 0x100 DUP1 DUP4 SLOAD DIV MUL DUP4 MSTORE SWAP2 PUSH1 0x20 ADD SWAP2 PUSH2 0xC23 JUMP JUMPDEST DUP3 ADD SWAP2 SWAP1 PUSH1 0x0 MSTORE PUSH1 0x20 PUSH1 0x0 KECCAK256 SWAP1 JUMPDEST DUP2 SLOAD DUP2 MSTORE SWAP1 PUSH1 0x1 ADD SWAP1 PUSH1 0x20 ADD DUP1 DUP4 GT PUSH2 0xC06 JUMPI DUP3 SWAP1 SUB PUSH1 0x1F AND DUP3 ADD SWAP2 JUMPDEST POP POP POP POP POP SWAP1 POP SWAP1 JUMP JUMPDEST CALLER PUSH1 0x0 DUP2 DUP2 MSTORE PUSH1 0x14 PUSH1 0x20 SWAP1 DUP2 MSTORE PUSH1 0x40 DUP1 DUP4 KECCAK256 PUSH1 0x1 PUSH1 0x1 PUSH1 0xA0 SHL SUB DUP8 AND DUP1 DUP6 MSTORE SWAP1 DUP4 MSTORE DUP2 DUP5 KECCAK256 DUP7 SWAP1 SSTORE DUP2 MLOAD DUP7 DUP2 MSTORE SWAP2 MLOAD SWAP4 SWAP5 SWAP1 SWAP4 SWAP1 SWAP3 PUSH32 0x8C5BE1E5EBEC7D5BD14F71427D1E84F3DD0314C0F7B2291E5B200AC8C7C3B925 SWAP3 DUP3 SWAP1 SUB ADD SWAP1 LOG3 POP PUSH1 0x1 JUMPDEST SWAP3 SWAP2 POP POP JUMP JUMPDEST PUSH2 0x3E8 DUP2 JUMP JUMPDEST PUSH1 0x10 SLOAD SWAP1 JUMP JUMPDEST PUSH1 0x5 SLOAD DUP2 JUMP JUMPDEST PUSH1 0x0 DUP3 PUSH1 0x1 PUSH1 0x1 PUSH1 0xA0 SHL SUB DUP2 AND PUSH2 0xCBC JUMPI PUSH1 0x0 DUP1 REVERT JUMPDEST PUSH1 0x1 PUSH1 0x1 PUSH1 0xA0 SHL SUB DUP6 AND PUSH1 0x0 SWAP1 DUP2 MSTORE PUSH1 0x14 PUSH1 0x20 SWAP1 DUP2 MSTORE PUSH1 0x40 DUP1 DUP4 KECCAK256 CALLER DUP5 MSTORE SWAP1 SWAP2 MSTORE SWAP1 KECCAK256 SLOAD PUSH1 0x0 NOT EQ PUSH2 0xD69 JUMPI PUSH1 0x40 DUP1 MLOAD DUP1 DUP3 ADD DUP3 MSTORE PUSH1 0x16 DUP2 MSTORE PUSH22 0x496E73756666696369656E7420416C6C6F77616E6365 PUSH1 0x50 SHL PUSH1 0x20 DUP1 DUP4 ADD SWAP2 SWAP1 SWAP2 MSTORE PUSH1 0x1 PUSH1 0x1 PUSH1 0xA0 SHL SUB DUP9 AND PUSH1 0x0 SWAP1 DUP2 MSTORE PUSH1 0x14 DUP3 MSTORE DUP4 DUP2 KECCAK256 CALLER DUP3 MSTORE SWAP1 SWAP2 MSTORE SWAP2 SWAP1 SWAP2 KECCAK256 SLOAD PUSH2 0xD44 SWAP2 DUP6 SWAP1 PUSH2 0x18C2 JUMP JUMPDEST PUSH1 0x1 PUSH1 0x1 PUSH1 0xA0 SHL SUB DUP7 AND PUSH1 0x0 SWAP1 DUP2 MSTORE PUSH1 0x14 PUSH1 0x20 SWAP1 DUP2 MSTORE PUSH1 0x40 DUP1 DUP4 KECCAK256 CALLER DUP5 MSTORE SWAP1 SWAP2 MSTORE SWAP1 KECCAK256 SSTORE JUMPDEST PUSH2 0xD74 DUP6 DUP6 DUP6 PUSH2 0x1959 JUMP JUMPDEST POP PUSH1 0x1 SWAP6 SWAP5 POP POP POP POP POP JUMP JUMPDEST PUSH1 0x11 SLOAD PUSH1 0x13 PUSH1 0x20 MSTORE PUSH32 0x8FA6EFC3BE94B5B348B21FEA823FE8D100408CEE9B7F90524494500445D8FF6C SLOAD PUSH2 0xDEAD PUSH1 0x0 SWAP1 DUP2 MSTORE PUSH32 0x2264E2D7BACABE6058F5009F42467B9BE28015E7760F87409562384C94AC271C SLOAD SWAP1 SWAP3 PUSH2 0xDFE SWAP3 SWAP1 SWAP2 PUSH2 0xDF8 SWAP2 SWAP1 PUSH2 0xDF2 SWAP1 PUSH5 0x7B6AE2FFF NOT SWAP1 PUSH2 0x1B4A JUMP JUMPDEST SWAP1 PUSH2 0x1B4A JUMP JUMPDEST SWAP1 PUSH2 0x1880 JUMP JUMPDEST SWAP1 POP SWAP1 JUMP JUMPDEST PUSH1 0x3C DUP2 JUMP JUMPDEST PUSH1 0x5 DUP2 JUMP JUMPDEST PUSH2 0xE15 PUSH2 0x1204 JUMP JUMPDEST PUSH2 0xE1E JUMPI PUSH1 0x0 DUP1 REVERT JUMPDEST PUSH1 0x3 DUP1 SLOAD PUSH1 0x1 PUSH1 0x1 PUSH1 0xA0 SHL SUB NOT AND PUSH1 0x1 PUSH1 0x1 PUSH1 0xA0 SHL SUB SWAP3 SWAP1 SWAP3 AND SWAP2 SWAP1 SWAP2 OR SWAP1 SSTORE JUMP JUMPDEST PUSH1 0x2 SLOAD PUSH1 0xFF AND SWAP1 JUMP JUMPDEST PUSH1 0xE SLOAD DUP2 JUMP JUMPDEST PUSH1 0x0 NOT DUP2 JUMP JUMPDEST PUSH2 0xE5D PUSH2 0x1204 JUMP JUMPDEST PUSH2 0xE66 JUMPI PUSH1 0x0 DUP1 REVERT JUMPDEST PUSH2 0xE6F DUP3 PUSH2 0x1B8C JUMP JUMPDEST PUSH2 0xEAA JUMPI PUSH1 0x40 MLOAD PUSH3 0x461BCD PUSH1 0xE5 SHL DUP2 MSTORE PUSH1 0x4 ADD DUP1 DUP1 PUSH1 0x20 ADD DUP3 DUP2 SUB DUP3 MSTORE PUSH1 0x3B DUP2 MSTORE PUSH1 0x20 ADD DUP1 PUSH2 0x285B PUSH1 0x3B SWAP2 CODECOPY PUSH1 0x40 ADD SWAP2 POP POP PUSH1 0x40 MLOAD DUP1 SWAP2 SUB SWAP1 REVERT JUMPDEST PUSH1 0x1 PUSH1 0x1 PUSH1 0xA0 SHL SUB SWAP2 SWAP1 SWAP2 AND PUSH1 0x0 SWAP1 DUP2 MSTORE PUSH1 0x15 PUSH1 0x20 MSTORE PUSH1 0x40 SWAP1 KECCAK256 DUP1 SLOAD PUSH1 0xFF NOT AND SWAP2 ISZERO ISZERO SWAP2 SWAP1 SWAP2 OR SWAP1 SSTORE JUMP JUMPDEST CALLER PUSH1 0x0 SWAP1 DUP2 MSTORE PUSH1 0x14 PUSH1 0x20 SWAP1 DUP2 MSTORE PUSH1 0x40 DUP1 DUP4 KECCAK256 PUSH1 0x1 PUSH1 0x1 PUSH1 0xA0 SHL SUB DUP7 AND DUP5 MSTORE SWAP1 SWAP2 MSTORE DUP2 KECCAK256 SLOAD PUSH2 0xF03 SWAP1 DUP4 PUSH2 0x1826 JUMP JUMPDEST CALLER PUSH1 0x0 DUP2 DUP2 MSTORE PUSH1 0x14 PUSH1 0x20 SWAP1 DUP2 MSTORE PUSH1 0x40 DUP1 DUP4 KECCAK256 PUSH1 0x1 PUSH1 0x1 PUSH1 0xA0 SHL SUB DUP10 AND DUP1 DUP6 MSTORE SWAP1 DUP4 MSTORE SWAP3 DUP2 SWAP1 KECCAK256 DUP6 SWAP1 SSTORE DUP1 MLOAD SWAP5 DUP6 MSTORE MLOAD SWAP2 SWAP4 PUSH32 0x8C5BE1E5EBEC7D5BD14F71427D1E84F3DD0314C0F7B2291E5B200AC8C7C3B925 SWAP3 SWAP1 DUP2 SWAP1 SUB SWAP1 SWAP2 ADD SWAP1 LOG3 POP PUSH1 0x1 SWAP3 SWAP2 POP POP JUMP JUMPDEST PUSH2 0xF70 PUSH2 0x1204 JUMP JUMPDEST PUSH2 0xF79 JUMPI PUSH1 0x0 DUP1 REVERT JUMPDEST PUSH1 0x6 DUP1 SLOAD PUSH1 0x1 PUSH1 0x1 PUSH1 0xA0 SHL SUB SWAP6 DUP7 AND PUSH1 0x1 PUSH1 0x1 PUSH1 0xA0 SHL SUB NOT SWAP2 DUP3 AND OR SWAP1 SWAP2 SSTORE PUSH1 0x7 DUP1 SLOAD SWAP5 DUP7 AND SWAP5 DUP3 AND SWAP5 SWAP1 SWAP5 OR SWAP1 SWAP4 SSTORE PUSH1 0x8 DUP1 SLOAD SWAP3 DUP6 AND SWAP3 DUP5 AND SWAP3 SWAP1 SWAP3 OR SWAP1 SWAP2 SSTORE PUSH1 0x9 DUP1 SLOAD SWAP2 SWAP1 SWAP4 AND SWAP2 AND OR SWAP1 SSTORE JUMP JUMPDEST PUSH1 0x10 SLOAD DUP2 JUMP JUMPDEST PUSH1 0x3 SLOAD PUSH1 0x1 PUSH1 0x1 PUSH1 0xA0 SHL SUB AND DUP2 JUMP JUMPDEST PUSH1 0x32 DUP2 JUMP JUMPDEST PUSH1 0x7 SLOAD PUSH1 0x1 PUSH1 0x1 PUSH1 0xA0 SHL SUB AND DUP2 JUMP JUMPDEST PUSH1 0x7 DUP2 JUMP JUMPDEST PUSH1 0xC SLOAD PUSH1 0x1 PUSH1 0xB0 SHL SWAP1 DIV PUSH1 0xFF AND DUP2 JUMP JUMPDEST PUSH1 0x12 SLOAD PUSH1 0xFF AND DUP2 JUMP JUMPDEST PUSH1 0x1 DUP2 JUMP JUMPDEST PUSH2 0x101D PUSH2 0x1204 JUMP JUMPDEST PUSH2 0x1026 JUMPI PUSH1 0x0 DUP1 REVERT JUMPDEST PUSH1 0x12 SLOAD PUSH1 0xFF AND ISZERO PUSH2 0x1077 JUMPI PUSH1 0x40 DUP1 MLOAD PUSH3 0x461BCD PUSH1 0xE5 SHL DUP2 MSTORE PUSH1 0x20 PUSH1 0x4 DUP3 ADD MSTORE PUSH1 0x16 PUSH1 0x24 DUP3 ADD MSTORE PUSH22 0x149958985CD948185B1C9958591E481CDD185C9D1959 PUSH1 0x52 SHL PUSH1 0x44 DUP3 ADD MSTORE SWAP1 MLOAD SWAP1 DUP2 SWAP1 SUB PUSH1 0x64 ADD SWAP1 REVERT JUMPDEST PUSH1 0x12 SLOAD PUSH1 0xFF AND ISZERO PUSH2 0x1087 JUMPI PUSH2 0x10B1 JUMP JUMPDEST TIMESTAMP PUSH1 0xD DUP2 SWAP1 SSTORE PUSH1 0xE SSTORE PUSH1 0xC DUP1 SLOAD PUSH1 0xFF PUSH1 0xA8 SHL NOT AND PUSH1 0x1 PUSH1 0xA8 SHL OR SWAP1 SSTORE PUSH1 0x12 DUP1 SLOAD PUSH1 0xFF NOT AND PUSH1 0x1 OR SWAP1 SSTORE JUMPDEST JUMP JUMPDEST PUSH1 0x11 SLOAD PUSH1 0x1 PUSH1 0x1 PUSH1 0xA0 SHL SUB DUP3 AND PUSH1 0x0 SWAP1 DUP2 MSTORE PUSH1 0x13 PUSH1 0x20 MSTORE PUSH1 0x40 DUP2 KECCAK256 SLOAD SWAP1 SWAP2 PUSH2 0xC8E SWAP2 SWAP1 PUSH2 0x1880 JUMP JUMPDEST PUSH2 0x10E3 PUSH2 0x1204 JUMP JUMPDEST PUSH2 0x10EC JUMPI PUSH1 0x0 DUP1 REVERT JUMPDEST PUSH1 0x2 SLOAD PUSH1 0x40 MLOAD PUSH2 0x100 SWAP1 SWAP2 DIV PUSH1 0x1 PUSH1 0x1 PUSH1 0xA0 SHL SUB AND SWAP1 PUSH32 0xF8DF31144D9C2F0F6B59D69B8B98ABD5459D07F2742C4DF920B25AAE33C64820 SWAP1 PUSH1 0x0 SWAP1 LOG2 PUSH1 0x2 DUP1 SLOAD PUSH2 0x100 PUSH1 0x1 PUSH1 0xA8 SHL SUB NOT AND SWAP1 SSTORE JUMP JUMPDEST PUSH1 0xC PUSH1 0x0 SWAP1 SLOAD SWAP1 PUSH2 0x100 EXP SWAP1 DIV PUSH1 0x1 PUSH1 0x1 PUSH1 0xA0 SHL SUB AND PUSH1 0x1 PUSH1 0x1 PUSH1 0xA0 SHL SUB AND PUSH4 0xFFF6CAE9 PUSH1 0x40 MLOAD DUP2 PUSH4 0xFFFFFFFF AND PUSH1 0xE0 SHL DUP2 MSTORE PUSH1 0x4 ADD PUSH1 0x0 PUSH1 0x40 MLOAD DUP1 DUP4 SUB DUP2 PUSH1 0x0 DUP8 DUP1 EXTCODESIZE ISZERO DUP1 ISZERO PUSH2 0x118B JUMPI PUSH1 0x0 DUP1 REVERT JUMPDEST POP GAS CALL ISZERO DUP1 ISZERO PUSH2 0x119F JUMPI RETURNDATASIZE PUSH1 0x0 DUP1 RETURNDATACOPY RETURNDATASIZE PUSH1 0x0 REVERT JUMPDEST POP POP POP POP JUMP JUMPDEST PUSH1 0xC SLOAD PUSH1 0x1 PUSH1 0xA0 SHL SWAP1 DIV PUSH1 0xFF AND ISZERO SWAP1 JUMP JUMPDEST PUSH2 0x11BE PUSH2 0x1204 JUMP JUMPDEST PUSH2 0x11C7 JUMPI PUSH1 0x0 DUP1 REVERT JUMPDEST PUSH1 0x1 PUSH1 0x1 PUSH1 0xA0 SHL SUB AND PUSH1 0x0 SWAP1 DUP2 MSTORE PUSH1 0x4 PUSH1 0x20 MSTORE PUSH1 0x40 SWAP1 KECCAK256 DUP1 SLOAD PUSH1 0xFF NOT AND PUSH1 0x1 OR SWAP1 SSTORE JUMP JUMPDEST PUSH1 0xF DUP2 JUMP JUMPDEST PUSH1 0x2 SLOAD PUSH2 0x100 SWAP1 DIV PUSH1 0x1 PUSH1 0x1 PUSH1 0xA0 SHL SUB AND SWAP1 JUMP JUMPDEST PUSH1 0x2 SLOAD PUSH2 0x100 SWAP1 DIV PUSH1 0x1 PUSH1 0x1 PUSH1 0xA0 SHL SUB AND CALLER EQ SWAP1 JUMP JUMPDEST PUSH1 0x1 DUP1 SLOAD PUSH1 0x40 DUP1 MLOAD PUSH1 0x20 PUSH1 0x1F PUSH1 0x2 PUSH1 0x0 NOT PUSH2 0x100 DUP8 DUP10 AND ISZERO MUL ADD SWAP1 SWAP6 AND SWAP5 SWAP1 SWAP5 DIV SWAP4 DUP5 ADD DUP2 SWAP1 DIV DUP2 MUL DUP3 ADD DUP2 ADD SWAP1 SWAP3 MSTORE DUP3 DUP2 MSTORE PUSH1 0x60 SWAP4 SWAP1 SWAP3 SWAP1 SWAP2 DUP4 ADD DUP3 DUP3 DUP1 ISZERO PUSH2 0xC23 JUMPI DUP1 PUSH1 0x1F LT PUSH2 0xBF8 JUMPI PUSH2 0x100 DUP1 DUP4 SLOAD DIV MUL DUP4 MSTORE SWAP2 PUSH1 0x20 ADD SWAP2 PUSH2 0xC23 JUMP JUMPDEST PUSH1 0x1E DUP2 JUMP JUMPDEST PUSH1 0xF SLOAD DUP2 JUMP JUMPDEST PUSH1 0xD SLOAD DUP2 JUMP JUMPDEST PUSH1 0x9 SLOAD PUSH1 0x1 PUSH1 0x1 PUSH1 0xA0 SHL SUB AND DUP2 JUMP JUMPDEST PUSH2 0x12A2 PUSH2 0x1204 JUMP JUMPDEST PUSH2 0x12AB JUMPI PUSH1 0x0 DUP1 REVERT JUMPDEST PUSH1 0xA DUP1 SLOAD PUSH1 0x1 PUSH1 0x1 PUSH1 0xA0 SHL SUB NOT AND PUSH1 0x1 PUSH1 0x1 PUSH1 0xA0 SHL SUB SWAP3 SWAP1 SWAP3 AND SWAP2 SWAP1 SWAP2 OR SWAP1 SSTORE JUMP JUMPDEST CALLER PUSH1 0x0 SWAP1 DUP2 MSTORE PUSH1 0x14 PUSH1 0x20 SWAP1 DUP2 MSTORE PUSH1 0x40 DUP1 DUP4 KECCAK256 PUSH1 0x1 PUSH1 0x1 PUSH1 0xA0 SHL SUB DUP7 AND DUP5 MSTORE SWAP1 SWAP2 MSTORE DUP2 KECCAK256 SLOAD DUP1 DUP4 LT PUSH2 0x1321 JUMPI CALLER PUSH1 0x0 SWAP1 DUP2 MSTORE PUSH1 0x14 PUSH1 0x20 SWAP1 DUP2 MSTORE PUSH1 0x40 DUP1 DUP4 KECCAK256 PUSH1 0x1 PUSH1 0x1 PUSH1 0xA0 SHL SUB DUP9 AND DUP5 MSTORE SWAP1 SWAP2 MSTORE DUP2 KECCAK256 SSTORE PUSH2 0x1350 JUMP JUMPDEST PUSH2 0x132B DUP2 DUP5 PUSH2 0x1B4A JUMP JUMPDEST CALLER PUSH1 0x0 SWAP1 DUP2 MSTORE PUSH1 0x14 PUSH1 0x20 SWAP1 DUP2 MSTORE PUSH1 0x40 DUP1 DUP4 KECCAK256 PUSH1 0x1 PUSH1 0x1 PUSH1 0xA0 SHL SUB DUP10 AND DUP5 MSTORE SWAP1 SWAP2 MSTORE SWAP1 KECCAK256 SSTORE JUMPDEST CALLER PUSH1 0x0 DUP2 DUP2 MSTORE PUSH1 0x14 PUSH1 0x20 SWAP1 DUP2 MSTORE PUSH1 0x40 DUP1 DUP4 KECCAK256 PUSH1 0x1 PUSH1 0x1 PUSH1 0xA0 SHL SUB DUP10 AND DUP1 DUP6 MSTORE SWAP1 DUP4 MSTORE SWAP3 DUP2 SWAP1 KECCAK256 SLOAD DUP2 MLOAD SWAP1 DUP2 MSTORE SWAP1 MLOAD SWAP3 SWAP4 SWAP3 PUSH32 0x8C5BE1E5EBEC7D5BD14F71427D1E84F3DD0314C0F7B2291E5B200AC8C7C3B925 SWAP3 SWAP2 DUP2 SWAP1 SUB SWAP1 SWAP2 ADD SWAP1 LOG3 POP PUSH1 0x1 SWAP4 SWAP3 POP POP POP JUMP JUMPDEST PUSH1 0xC SLOAD PUSH1 0x1 PUSH1 0x1 PUSH1 0xA0 SHL SUB AND DUP2 JUMP JUMPDEST PUSH1 0xA SLOAD PUSH1 0x1 PUSH1 0x1 PUSH1 0xA0 SHL SUB AND DUP2 JUMP JUMPDEST PUSH1 0x0 DUP3 PUSH1 0x1 PUSH1 0x1 PUSH1 0xA0 SHL SUB DUP2 AND PUSH2 0x13EA JUMPI PUSH1 0x0 DUP1 REVERT JUMPDEST PUSH2 0x13F5 CALLER DUP6 DUP6 PUSH2 0x1959 JUMP JUMPDEST POP PUSH1 0x1 SWAP5 SWAP4 POP POP POP POP JUMP JUMPDEST PUSH1 0x8 SLOAD PUSH1 0x1 PUSH1 0x1 PUSH1 0xA0 SHL SUB AND DUP2 JUMP JUMPDEST PUSH1 0xC SLOAD PUSH1 0x1 PUSH1 0xA8 SHL SWAP1 DIV PUSH1 0xFF AND DUP2 JUMP JUMPDEST PUSH1 0x40 MLOAD DUP1 PUSH1 0x40 ADD PUSH1 0x40 MSTORE DUP1 PUSH1 0x3 DUP2 MSTORE PUSH1 0x20 ADD PUSH3 0x535459 PUSH1 0xE8 SHL DUP2 MSTORE POP DUP2 JUMP JUMPDEST PUSH1 0xC DUP1 SLOAD PUSH1 0xFF PUSH1 0xA0 SHL NOT AND PUSH1 0x1 PUSH1 0xA0 SHL OR SWAP1 SSTORE PUSH2 0x1459 PUSH2 0x1204 JUMP JUMPDEST PUSH2 0x1462 JUMPI PUSH1 0x0 DUP1 REVERT JUMPDEST PUSH1 0x11 SLOAD ADDRESS PUSH1 0x0 SWAP1 DUP2 MSTORE PUSH1 0x13 PUSH1 0x20 MSTORE PUSH1 0x40 DUP2 KECCAK256 SLOAD SWAP1 SWAP2 PUSH2 0x1481 SWAP2 SWAP1 PUSH2 0x1880 JUMP JUMPDEST SWAP1 POP PUSH1 0x0 DUP2 GT PUSH2 0x14C2 JUMPI PUSH1 0x40 MLOAD PUSH3 0x461BCD PUSH1 0xE5 SHL DUP2 MSTORE PUSH1 0x4 ADD DUP1 DUP1 PUSH1 0x20 ADD DUP3 DUP2 SUB DUP3 MSTORE PUSH1 0x39 DUP2 MSTORE PUSH1 0x20 ADD DUP1 PUSH2 0x2801 PUSH1 0x39 SWAP2 CODECOPY PUSH1 0x40 ADD SWAP2 POP POP PUSH1 0x40 MLOAD DUP1 SWAP2 SUB SWAP1 REVERT JUMPDEST PUSH1 0x40 DUP1 MLOAD PUSH1 0x2 DUP1 DUP3 MSTORE PUSH1 0x60 DUP1 DUP4 ADD DUP5 MSTORE SWAP3 PUSH1 0x20 DUP4 ADD SWAP1 DUP1 CALLDATASIZE DUP4 CALLDATACOPY ADD SWAP1 POP POP SWAP1 POP ADDRESS DUP2 PUSH1 0x0 DUP2 MLOAD DUP2 LT PUSH2 0x14F0 JUMPI INVALID JUMPDEST PUSH1 0x1 PUSH1 0x1 PUSH1 0xA0 SHL SUB SWAP3 DUP4 AND PUSH1 0x20 SWAP2 DUP3 MUL SWAP3 SWAP1 SWAP3 ADD DUP2 ADD SWAP2 SWAP1 SWAP2 MSTORE PUSH1 0xB SLOAD PUSH1 0x40 DUP1 MLOAD PUSH4 0x15AB88C9 PUSH1 0xE3 SHL DUP2 MSTORE SWAP1 MLOAD SWAP2 SWAP1 SWAP4 AND SWAP3 PUSH4 0xAD5C4648 SWAP3 PUSH1 0x4 DUP1 DUP4 ADD SWAP4 SWAP2 SWAP3 DUP3 SWAP1 SUB ADD DUP2 DUP7 DUP1 EXTCODESIZE ISZERO DUP1 ISZERO PUSH2 0x1544 JUMPI PUSH1 0x0 DUP1 REVERT JUMPDEST POP GAS STATICCALL ISZERO DUP1 ISZERO PUSH2 0x1558 JUMPI RETURNDATASIZE PUSH1 0x0 DUP1 RETURNDATACOPY RETURNDATASIZE PUSH1 0x0 REVERT JUMPDEST POP POP POP POP PUSH1 0x40 MLOAD RETURNDATASIZE PUSH1 0x20 DUP2 LT ISZERO PUSH2 0x156E JUMPI PUSH1 0x0 DUP1 REVERT JUMPDEST POP MLOAD DUP2 MLOAD DUP3 SWAP1 PUSH1 0x1 SWAP1 DUP2 LT PUSH2 0x157F JUMPI INVALID JUMPDEST PUSH1 0x1 PUSH1 0x1 PUSH1 0xA0 SHL SUB SWAP3 DUP4 AND PUSH1 0x20 SWAP2 DUP3 MUL SWAP3 SWAP1 SWAP3 ADD DUP2 ADD SWAP2 SWAP1 SWAP2 MSTORE PUSH1 0xB SLOAD PUSH1 0x7 SLOAD PUSH1 0x40 MLOAD PUSH4 0x791AC947 PUSH1 0xE0 SHL DUP2 MSTORE PUSH1 0x4 DUP2 ADD DUP8 DUP2 MSTORE PUSH1 0x0 PUSH1 0x24 DUP4 ADD DUP2 SWAP1 MSTORE SWAP3 DUP7 AND PUSH1 0x64 DUP4 ADD DUP2 SWAP1 MSTORE TIMESTAMP PUSH1 0x84 DUP5 ADD DUP2 SWAP1 MSTORE PUSH1 0xA0 PUSH1 0x44 DUP6 ADD SWAP1 DUP2 MSTORE DUP10 MLOAD PUSH1 0xA4 DUP7 ADD MSTORE DUP10 MLOAD SWAP7 SWAP1 SWAP9 AND SWAP8 PUSH4 0x791AC947 SWAP8 DUP12 SWAP8 DUP12 SWAP7 SWAP5 SWAP6 SWAP4 SWAP5 PUSH1 0xC4 ADD SWAP2 DUP8 DUP2 ADD SWAP2 MUL DUP1 DUP4 DUP4 DUP12 JUMPDEST DUP4 DUP2 LT ISZERO PUSH2 0x1619 JUMPI DUP2 DUP2 ADD MLOAD DUP4 DUP3 ADD MSTORE PUSH1 0x20 ADD PUSH2 0x1601 JUMP JUMPDEST POP POP POP POP SWAP1 POP ADD SWAP7 POP POP POP POP POP POP POP PUSH1 0x0 PUSH1 0x40 MLOAD DUP1 DUP4 SUB DUP2 PUSH1 0x0 DUP8 DUP1 EXTCODESIZE ISZERO DUP1 ISZERO PUSH2 0x1642 JUMPI PUSH1 0x0 DUP1 REVERT JUMPDEST POP GAS CALL ISZERO DUP1 ISZERO PUSH2 0x1656 JUMPI RETURNDATASIZE PUSH1 0x0 DUP1 RETURNDATACOPY RETURNDATASIZE PUSH1 0x0 REVERT JUMPDEST POP POP PUSH1 0xC DUP1 SLOAD PUSH1 0xFF PUSH1 0xA0 SHL NOT AND SWAP1 SSTORE POP POP POP POP JUMP JUMPDEST PUSH1 0x6 SLOAD PUSH1 0x1 PUSH1 0x1 PUSH1 0xA0 SHL SUB AND DUP2 JUMP JUMPDEST PUSH1 0x19 DUP2 JUMP JUMPDEST PUSH2 0x1687 PUSH2 0x1204 JUMP JUMPDEST PUSH2 0x1690 JUMPI PUSH1 0x0 DUP1 REVERT JUMPDEST DUP1 ISZERO PUSH2 0x16B6 JUMPI PUSH1 0xC DUP1 SLOAD PUSH1 0xFF PUSH1 0xB0 SHL NOT AND PUSH1 0x1 PUSH1 0xB0 SHL DUP4 ISZERO ISZERO MUL OR SWAP1 SSTORE TIMESTAMP PUSH1 0xF SSTORE PUSH2 0x16CE JUMP JUMPDEST PUSH1 0xC DUP1 SLOAD PUSH1 0xFF PUSH1 0xB0 SHL NOT AND PUSH1 0x1 PUSH1 0xB0 SHL DUP4 ISZERO ISZERO MUL OR SWAP1 SSTORE JUMPDEST POP JUMP JUMPDEST PUSH1 0x40 MLOAD DUP1 PUSH1 0x40 ADD PUSH1 0x40 MSTORE DUP1 PUSH1 0xB DUP2 MSTORE PUSH1 0x20 ADD PUSH11 0x14DD1BDC9B48165A595B19 PUSH1 0xAA SHL DUP2 MSTORE POP DUP2 JUMP JUMPDEST PUSH1 0x1 PUSH1 0x1 PUSH1 0xA0 SHL SUB AND PUSH1 0x0 SWAP1 DUP2 MSTORE PUSH1 0x4 PUSH1 0x20 MSTORE PUSH1 0x40 SWAP1 KECCAK256 SLOAD PUSH1 0xFF AND SWAP1 JUMP JUMPDEST PUSH1 0x11 SLOAD PUSH1 0xC SLOAD PUSH1 0x1 PUSH1 0x1 PUSH1 0xA0 SHL SUB AND PUSH1 0x0 SWAP1 DUP2 MSTORE PUSH1 0x13 PUSH1 0x20 MSTORE PUSH1 0x40 DUP2 KECCAK256 SLOAD SWAP1 SWAP2 DUP3 SWAP2 PUSH2 0x1741 SWAP2 PUSH2 0x1880 JUMP JUMPDEST SWAP1 POP PUSH2 0x1763 PUSH2 0x174E PUSH2 0xD80 JUMP JUMPDEST PUSH2 0xDF8 PUSH2 0x175C DUP5 PUSH1 0x2 PUSH2 0x1B92 JUMP JUMPDEST DUP7 SWAP1 PUSH2 0x1B92 JUMP JUMPDEST SWAP4 SWAP3 POP POP POP JUMP JUMPDEST PUSH1 0x1 PUSH1 0x1 PUSH1 0xA0 SHL SUB SWAP2 DUP3 AND PUSH1 0x0 SWAP1 DUP2 MSTORE PUSH1 0x14 PUSH1 0x20 SWAP1 DUP2 MSTORE PUSH1 0x40 DUP1 DUP4 KECCAK256 SWAP4 SWAP1 SWAP5 AND DUP3 MSTORE SWAP2 SWAP1 SWAP2 MSTORE KECCAK256 SLOAD SWAP1 JUMP JUMPDEST PUSH2 0x179D PUSH2 0x1204 JUMP JUMPDEST PUSH2 0x17A6 JUMPI PUSH1 0x0 DUP1 REVERT JUMPDEST DUP1 ISZERO PUSH2 0x17CC JUMPI PUSH1 0xC DUP1 SLOAD PUSH1 0xFF PUSH1 0xA8 SHL NOT AND PUSH1 0x1 PUSH1 0xA8 SHL DUP4 ISZERO ISZERO MUL OR SWAP1 SSTORE TIMESTAMP PUSH1 0xE SSTORE PUSH2 0x16CE JUMP JUMPDEST PUSH1 0xC DUP1 SLOAD DUP3 ISZERO ISZERO PUSH1 0x1 PUSH1 0xA8 SHL MUL PUSH1 0xFF PUSH1 0xA8 SHL NOT SWAP1 SWAP2 AND OR SWAP1 SSTORE POP JUMP JUMPDEST PUSH2 0x17F0 PUSH2 0x1204 JUMP JUMPDEST PUSH2 0x17F9 JUMPI PUSH1 0x0 DUP1 REVERT JUMPDEST PUSH2 0x16CE DUP2 PUSH2 0x1BEB JUMP JUMPDEST PUSH1 0xB SLOAD PUSH1 0x1 PUSH1 0x1 PUSH1 0xA0 SHL SUB AND DUP2 JUMP JUMPDEST PUSH1 0x15 PUSH1 0x20 MSTORE PUSH1 0x0 SWAP1 DUP2 MSTORE PUSH1 0x40 SWAP1 KECCAK256 SLOAD PUSH1 0xFF AND DUP2 JUMP JUMPDEST PUSH1 0x0 DUP3 DUP3 ADD DUP4 DUP2 LT ISZERO PUSH2 0x1763 JUMPI PUSH1 0x40 DUP1 MLOAD PUSH3 0x461BCD PUSH1 0xE5 SHL DUP2 MSTORE PUSH1 0x20 PUSH1 0x4 DUP3 ADD MSTORE PUSH1 0x1B PUSH1 0x24 DUP3 ADD MSTORE PUSH32 0x536166654D6174683A206164646974696F6E206F766572666C6F770000000000 PUSH1 0x44 DUP3 ADD MSTORE SWAP1 MLOAD SWAP1 DUP2 SWAP1 SUB PUSH1 0x64 ADD SWAP1 REVERT JUMPDEST PUSH1 0x0 PUSH2 0x1763 DUP4 DUP4 PUSH1 0x40 MLOAD DUP1 PUSH1 0x40 ADD PUSH1 0x40 MSTORE DUP1 PUSH1 0x1A DUP2 MSTORE PUSH1 0x20 ADD PUSH32 0x536166654D6174683A206469766973696F6E206279207A65726F000000000000 DUP2 MSTORE POP PUSH2 0x1C65 JUMP JUMPDEST PUSH1 0x0 DUP2 DUP5 DUP5 GT ISZERO PUSH2 0x1951 JUMPI PUSH1 0x40 MLOAD PUSH3 0x461BCD PUSH1 0xE5 SHL DUP2 MSTORE PUSH1 0x4 ADD DUP1 DUP1 PUSH1 0x20 ADD DUP3 DUP2 SUB DUP3 MSTORE DUP4 DUP2 DUP2 MLOAD DUP2 MSTORE PUSH1 0x20 ADD SWAP2 POP DUP1 MLOAD SWAP1 PUSH1 0x20 ADD SWAP1 DUP1 DUP4 DUP4 PUSH1 0x0 JUMPDEST DUP4 DUP2 LT ISZERO PUSH2 0x1916 JUMPI DUP2 DUP2 ADD MLOAD DUP4 DUP3 ADD MSTORE PUSH1 0x20 ADD PUSH2 0x18FE JUMP JUMPDEST POP POP POP POP SWAP1 POP SWAP1 DUP2 ADD SWAP1 PUSH1 0x1F AND DUP1 ISZERO PUSH2 0x1943 JUMPI DUP1 DUP3 SUB DUP1 MLOAD PUSH1 0x1 DUP4 PUSH1 0x20 SUB PUSH2 0x100 EXP SUB NOT AND DUP2 MSTORE PUSH1 0x20 ADD SWAP2 POP JUMPDEST POP SWAP3 POP POP POP PUSH1 0x40 MLOAD DUP1 SWAP2 SUB SWAP1 REVERT JUMPDEST POP POP POP SWAP1 SUB SWAP1 JUMP JUMPDEST PUSH1 0x1 PUSH1 0x1 PUSH1 0xA0 SHL SUB DUP4 AND PUSH1 0x0 SWAP1 DUP2 MSTORE PUSH1 0x15 PUSH1 0x20 MSTORE PUSH1 0x40 DUP2 KECCAK256 SLOAD PUSH1 0xFF AND ISZERO DUP1 ISZERO PUSH2 0x199B JUMPI POP PUSH1 0x1 PUSH1 0x1 PUSH1 0xA0 SHL SUB DUP4 AND PUSH1 0x0 SWAP1 DUP2 MSTORE PUSH1 0x15 PUSH1 0x20 MSTORE PUSH1 0x40 SWAP1 KECCAK256 SLOAD PUSH1 0xFF AND ISZERO JUMPDEST PUSH2 0x19DB JUMPI PUSH1 0x40 DUP1 MLOAD PUSH3 0x461BCD PUSH1 0xE5 SHL DUP2 MSTORE PUSH1 0x20 PUSH1 0x4 DUP3 ADD MSTORE PUSH1 0xC PUSH1 0x24 DUP3 ADD MSTORE PUSH12 0x1A5B97D89B1858DADB1A5CDD PUSH1 0xA2 SHL PUSH1 0x44 DUP3 ADD MSTORE SWAP1 MLOAD SWAP1 DUP2 SWAP1 SUB PUSH1 0x64 ADD SWAP1 REVERT JUMPDEST PUSH1 0xC SLOAD PUSH1 0x1 PUSH1 0xA0 SHL SWAP1 DIV PUSH1 0xFF AND ISZERO PUSH2 0x19FF JUMPI PUSH2 0x19F8 DUP5 DUP5 DUP5 PUSH2 0x1CCA JUMP JUMPDEST SWAP1 POP PUSH2 0x1763 JUMP JUMPDEST PUSH2 0x1A07 PUSH2 0x1D5C JUMP JUMPDEST ISZERO PUSH2 0x1A14 JUMPI PUSH2 0x1A14 PUSH2 0x1DC2 JUMP JUMPDEST PUSH2 0x1A1C PUSH2 0x1F4D JUMP JUMPDEST ISZERO PUSH2 0x1A29 JUMPI PUSH2 0x1A29 PUSH2 0x1FA0 JUMP JUMPDEST PUSH2 0x1A31 PUSH2 0x22DD JUMP JUMPDEST ISZERO PUSH2 0x1A3E JUMPI PUSH2 0x1A3E PUSH2 0x2308 JUMP JUMPDEST PUSH1 0x0 PUSH2 0x1A55 PUSH1 0x11 SLOAD DUP5 PUSH2 0x1B92 SWAP1 SWAP2 SWAP1 PUSH4 0xFFFFFFFF AND JUMP JUMPDEST PUSH1 0x1 PUSH1 0x1 PUSH1 0xA0 SHL SUB DUP7 AND PUSH1 0x0 SWAP1 DUP2 MSTORE PUSH1 0x13 PUSH1 0x20 MSTORE PUSH1 0x40 SWAP1 KECCAK256 SLOAD SWAP1 SWAP2 POP PUSH2 0x1A7B SWAP1 DUP3 PUSH2 0x1B4A JUMP JUMPDEST PUSH1 0x1 PUSH1 0x1 PUSH1 0xA0 SHL SUB DUP7 AND PUSH1 0x0 SWAP1 DUP2 MSTORE PUSH1 0x13 PUSH1 0x20 MSTORE PUSH1 0x40 DUP2 KECCAK256 SWAP2 SWAP1 SWAP2 SSTORE PUSH2 0x1AA1 DUP7 DUP7 PUSH2 0x2615 JUMP JUMPDEST PUSH2 0x1AAB JUMPI DUP2 PUSH2 0x1AB6 JUMP JUMPDEST PUSH2 0x1AB6 DUP7 DUP7 DUP5 PUSH2 0x2669 JUMP JUMPDEST PUSH1 0x1 PUSH1 0x1 PUSH1 0xA0 SHL SUB DUP7 AND PUSH1 0x0 SWAP1 DUP2 MSTORE PUSH1 0x13 PUSH1 0x20 MSTORE PUSH1 0x40 SWAP1 KECCAK256 SLOAD SWAP1 SWAP2 POP PUSH2 0x1ADC SWAP1 DUP3 PUSH2 0x1826 JUMP JUMPDEST PUSH1 0x1 PUSH1 0x1 PUSH1 0xA0 SHL SUB DUP1 DUP8 AND PUSH1 0x0 DUP2 DUP2 MSTORE PUSH1 0x13 PUSH1 0x20 MSTORE PUSH1 0x40 SWAP1 KECCAK256 SWAP3 SWAP1 SWAP3 SSTORE PUSH1 0x11 SLOAD SWAP1 DUP9 AND SWAP1 PUSH32 0xDDF252AD1BE2C89B69C2B068FC378DAA952BA7F163C4A11628F55A4DF523B3EF SWAP1 PUSH2 0x1B2D SWAP1 DUP6 SWAP1 PUSH2 0x1880 JUMP JUMPDEST PUSH1 0x40 DUP1 MLOAD SWAP2 DUP3 MSTORE MLOAD SWAP1 DUP2 SWAP1 SUB PUSH1 0x20 ADD SWAP1 LOG3 POP PUSH1 0x1 SWAP6 SWAP5 POP POP POP POP POP JUMP JUMPDEST PUSH1 0x0 PUSH2 0x1763 DUP4 DUP4 PUSH1 0x40 MLOAD DUP1 PUSH1 0x40 ADD PUSH1 0x40 MSTORE DUP1 PUSH1 0x1E DUP2 MSTORE PUSH1 0x20 ADD PUSH32 0x536166654D6174683A207375627472616374696F6E206F766572666C6F770000 DUP2 MSTORE POP PUSH2 0x18C2 JUMP JUMPDEST EXTCODESIZE ISZERO ISZERO SWAP1 JUMP JUMPDEST PUSH1 0x0 DUP3 PUSH2 0x1BA1 JUMPI POP PUSH1 0x0 PUSH2 0xC8E JUMP JUMPDEST DUP3 DUP3 MUL DUP3 DUP5 DUP3 DUP2 PUSH2 0x1BAE JUMPI INVALID JUMPDEST DIV EQ PUSH2 0x1763 JUMPI PUSH1 0x40 MLOAD PUSH3 0x461BCD PUSH1 0xE5 SHL DUP2 MSTORE PUSH1 0x4 ADD DUP1 DUP1 PUSH1 0x20 ADD DUP3 DUP2 SUB DUP3 MSTORE PUSH1 0x21 DUP2 MSTORE PUSH1 0x20 ADD DUP1 PUSH2 0x283A PUSH1 0x21 SWAP2 CODECOPY PUSH1 0x40 ADD SWAP2 POP POP PUSH1 0x40 MLOAD DUP1 SWAP2 SUB SWAP1 REVERT JUMPDEST PUSH1 0x1 PUSH1 0x1 PUSH1 0xA0 SHL SUB DUP2 AND PUSH2 0x1BFE JUMPI PUSH1 0x0 DUP1 REVERT JUMPDEST PUSH1 0x2 SLOAD PUSH1 0x40 MLOAD PUSH1 0x1 PUSH1 0x1 PUSH1 0xA0 SHL SUB DUP1 DUP5 AND SWAP3 PUSH2 0x100 SWAP1 DIV AND SWAP1 PUSH32 0x8BE0079C531659141344CD1FD0A4F28419497F9722A3DAAFE3B4186F6B6457E0 SWAP1 PUSH1 0x0 SWAP1 LOG3 PUSH1 0x2 DUP1 SLOAD PUSH1 0x1 PUSH1 0x1 PUSH1 0xA0 SHL SUB SWAP1 SWAP3 AND PUSH2 0x100 MUL PUSH2 0x100 PUSH1 0x1 PUSH1 0xA8 SHL SUB NOT SWAP1 SWAP3 AND SWAP2 SWAP1 SWAP2 OR SWAP1 SSTORE JUMP JUMPDEST PUSH1 0x0 DUP2 DUP4 PUSH2 0x1CB4 JUMPI PUSH1 0x40 MLOAD PUSH3 0x461BCD PUSH1 0xE5 SHL DUP2 MSTORE PUSH1 0x20 PUSH1 0x4 DUP3 ADD DUP2 DUP2 MSTORE DUP4 MLOAD PUSH1 0x24 DUP5 ADD MSTORE DUP4 MLOAD SWAP1 SWAP3 DUP4 SWAP3 PUSH1 0x44 SWAP1 SWAP2 ADD SWAP2 SWAP1 DUP6 ADD SWAP1 DUP1 DUP4 DUP4 PUSH1 0x0 DUP4 ISZERO PUSH2 0x1916 JUMPI DUP2 DUP2 ADD MLOAD DUP4 DUP3 ADD MSTORE PUSH1 0x20 ADD PUSH2 0x18FE JUMP JUMPDEST POP PUSH1 0x0 DUP4 DUP6 DUP2 PUSH2 0x1CC0 JUMPI INVALID JUMPDEST DIV SWAP6 SWAP5 POP POP POP POP POP JUMP JUMPDEST PUSH1 0x0 DUP1 PUSH2 0x1CE2 PUSH1 0x11 SLOAD DUP5 PUSH2 0x1B92 SWAP1 SWAP2 SWAP1 PUSH4 0xFFFFFFFF AND JUMP JUMPDEST PUSH1 0x1 PUSH1 0x1 PUSH1 0xA0 SHL SUB DUP7 AND PUSH1 0x0 SWAP1 DUP2 MSTORE PUSH1 0x13 PUSH1 0x20 MSTORE PUSH1 0x40 SWAP1 KECCAK256 SLOAD SWAP1 SWAP2 POP PUSH2 0x1D08 SWAP1 DUP3 PUSH2 0x1B4A JUMP JUMPDEST PUSH1 0x1 PUSH1 0x1 PUSH1 0xA0 SHL SUB DUP1 DUP8 AND PUSH1 0x0 SWAP1 DUP2 MSTORE PUSH1 0x13 PUSH1 0x20 MSTORE PUSH1 0x40 DUP1 DUP3 KECCAK256 SWAP4 SWAP1 SWAP4 SSTORE SWAP1 DUP7 AND DUP2 MSTORE KECCAK256 SLOAD PUSH2 0x1D37 SWAP1 DUP3 PUSH2 0x1826 JUMP JUMPDEST PUSH1 0x1 PUSH1 0x1 PUSH1 0xA0 SHL SUB DUP6 AND PUSH1 0x0 SWAP1 DUP2 MSTORE PUSH1 0x13 PUSH1 0x20 MSTORE PUSH1 0x40 SWAP1 KECCAK256 SSTORE POP PUSH1 0x1 SWAP1 POP SWAP4 SWAP3 POP POP POP JUMP JUMPDEST PUSH1 0xC SLOAD PUSH1 0x0 SWAP1 PUSH1 0x1 PUSH1 0xA8 SHL SWAP1 DIV PUSH1 0xFF AND DUP1 ISZERO PUSH2 0x1D80 JUMPI POP PUSH1 0x10 SLOAD PUSH7 0x1C6BF52634000 GT JUMPDEST DUP1 ISZERO PUSH2 0x1D97 JUMPI POP PUSH1 0xC SLOAD PUSH1 0x1 PUSH1 0x1 PUSH1 0xA0 SHL SUB AND CALLER EQ ISZERO JUMPDEST DUP1 ISZERO PUSH2 0x1DAD JUMPI POP PUSH1 0xC SLOAD PUSH1 0x1 PUSH1 0xA0 SHL SWAP1 DIV PUSH1 0xFF AND ISZERO JUMPDEST DUP1 ISZERO PUSH2 0xDFE JUMPI POP POP PUSH1 0xE SLOAD PUSH2 0x12C ADD TIMESTAMP LT ISZERO SWAP1 JUMP JUMPDEST PUSH1 0xC SLOAD PUSH1 0x1 PUSH1 0xA0 SHL SWAP1 DIV PUSH1 0xFF AND ISZERO PUSH2 0x1DD9 JUMPI PUSH2 0x10B1 JUMP JUMPDEST PUSH1 0xD SLOAD PUSH1 0xE SLOAD PUSH1 0x0 SWAP2 TIMESTAMP SWAP1 DUP2 SUB SWAP2 SWAP1 SUB DUP3 PUSH2 0x1DF6 DUP3 PUSH2 0x12C PUSH2 0x1880 JUMP JUMPDEST SWAP1 POP PUSH1 0x0 PUSH2 0x1E05 DUP3 PUSH1 0x5 PUSH2 0x1B92 JUMP JUMPDEST SWAP1 POP PUSH4 0x1E13380 DUP5 LT ISZERO PUSH2 0x1E1D JUMPI PUSH2 0x346 SWAP5 POP PUSH2 0x1E47 JUMP JUMPDEST PUSH4 0x1E13380 DUP5 LT ISZERO DUP1 ISZERO PUSH2 0x1E34 JUMPI POP PUSH4 0x2D1CD40 DUP5 LT JUMPDEST ISZERO PUSH2 0x1E42 JUMPI PUSH1 0x42 SWAP5 POP PUSH2 0x1E47 JUMP JUMPDEST PUSH1 0x6 SWAP5 POP JUMPDEST PUSH1 0x0 JUMPDEST DUP3 DUP2 LT ISZERO PUSH2 0x1E7A JUMPI PUSH2 0x1E6F PUSH3 0x989680 PUSH2 0xDF8 PUSH2 0x1E66 DUP3 DUP11 PUSH2 0x1826 JUMP JUMPDEST PUSH1 0x10 SLOAD SWAP1 PUSH2 0x1B92 JUMP JUMPDEST PUSH1 0x10 SSTORE PUSH1 0x1 ADD PUSH2 0x1E4A JUMP JUMPDEST POP PUSH1 0x10 SLOAD PUSH2 0x1E8F SWAP1 PUSH5 0x7B6AE2FFF NOT SWAP1 PUSH2 0x1880 JUMP JUMPDEST PUSH1 0x11 SSTORE PUSH2 0x1EAA PUSH2 0x1EA1 DUP4 PUSH2 0x12C PUSH2 0x1B92 JUMP JUMPDEST PUSH1 0xE SLOAD SWAP1 PUSH2 0x1826 JUMP JUMPDEST PUSH1 0xE SSTORE PUSH1 0x3 SLOAD PUSH1 0x40 DUP1 MLOAD PUSH1 0x1 PUSH3 0x93517 PUSH1 0xE0 SHL SUB NOT DUP2 MSTORE SWAP1 MLOAD PUSH1 0x1 PUSH1 0x1 PUSH1 0xA0 SHL SUB SWAP1 SWAP3 AND SWAP2 PUSH4 0xFFF6CAE9 SWAP2 PUSH1 0x4 DUP1 DUP3 ADD SWAP3 PUSH1 0x0 SWAP3 SWAP1 SWAP2 SWAP1 DUP3 SWAP1 SUB ADD DUP2 DUP4 DUP8 DUP1 EXTCODESIZE ISZERO DUP1 ISZERO PUSH2 0x1EF6 JUMPI PUSH1 0x0 DUP1 REVERT JUMPDEST POP GAS CALL ISZERO DUP1 ISZERO PUSH2 0x1F0A JUMPI RETURNDATASIZE PUSH1 0x0 DUP1 RETURNDATACOPY RETURNDATASIZE PUSH1 0x0 REVERT JUMPDEST POP POP PUSH1 0x10 SLOAD PUSH1 0x40 DUP1 MLOAD SWAP2 DUP3 MSTORE MLOAD DUP5 SWAP4 POP PUSH32 0x72725A3B1E5BD622D6BCD1339BB31279C351ABE8F541AC7FD320F24E1B1641F2 SWAP3 POP SWAP1 DUP2 SWAP1 SUB PUSH1 0x20 ADD SWAP1 LOG2 POP POP POP POP POP JUMP JUMPDEST PUSH1 0xC SLOAD PUSH1 0x0 SWAP1 PUSH1 0x1 PUSH1 0xB0 SHL SWAP1 DIV PUSH1 0xFF AND DUP1 ISZERO PUSH2 0x1F73 JUMPI POP PUSH1 0xC SLOAD PUSH1 0x1 PUSH1 0xA0 SHL SWAP1 DIV PUSH1 0xFF AND ISZERO JUMPDEST DUP1 ISZERO PUSH2 0x1F8A JUMPI POP PUSH1 0xC SLOAD PUSH1 0x1 PUSH1 0x1 PUSH1 0xA0 SHL SUB AND CALLER EQ ISZERO JUMPDEST DUP1 ISZERO PUSH2 0xDFE JUMPI POP POP PUSH1 0xF SLOAD PUSH3 0x2A300 ADD TIMESTAMP LT ISZERO SWAP1 JUMP JUMPDEST PUSH1 0xC DUP1 SLOAD PUSH1 0xFF PUSH1 0xA0 SHL NOT AND PUSH1 0x1 PUSH1 0xA0 SHL OR SWAP1 SSTORE PUSH1 0x11 SLOAD PUSH1 0x6 SLOAD PUSH1 0x1 PUSH1 0x1 PUSH1 0xA0 SHL SUB AND PUSH1 0x0 SWAP1 DUP2 MSTORE PUSH1 0x13 PUSH1 0x20 MSTORE PUSH1 0x40 DUP2 KECCAK256 SLOAD SWAP1 SWAP2 PUSH2 0x1FDD SWAP2 SWAP1 PUSH2 0x1880 JUMP JUMPDEST PUSH1 0x6 SLOAD PUSH1 0x1 PUSH1 0x1 PUSH1 0xA0 SHL SUB AND PUSH1 0x0 SWAP1 DUP2 MSTORE PUSH1 0x13 PUSH1 0x20 MSTORE PUSH1 0x40 DUP1 DUP3 KECCAK256 SLOAD ADDRESS DUP4 MSTORE SWAP2 KECCAK256 SLOAD SWAP2 SWAP3 POP PUSH2 0x200C SWAP2 SWAP1 PUSH2 0x1826 JUMP JUMPDEST ADDRESS PUSH1 0x0 SWAP1 DUP2 MSTORE PUSH1 0x13 PUSH1 0x20 MSTORE PUSH1 0x40 DUP1 DUP3 KECCAK256 SWAP3 SWAP1 SWAP3 SSTORE PUSH1 0x6 SLOAD PUSH1 0x1 PUSH1 0x1 PUSH1 0xA0 SHL SUB AND DUP2 MSTORE SWAP1 DUP2 KECCAK256 DUP2 SWAP1 SSTORE PUSH2 0x203F DUP3 PUSH1 0x2 PUSH2 0x1880 JUMP JUMPDEST SWAP1 POP PUSH1 0x0 PUSH2 0x204D DUP4 DUP4 PUSH2 0x1B4A JUMP JUMPDEST SWAP1 POP DUP1 PUSH2 0x205C JUMPI POP POP POP PUSH2 0x22CE JUMP JUMPDEST PUSH1 0x40 DUP1 MLOAD PUSH1 0x2 DUP1 DUP3 MSTORE PUSH1 0x60 DUP1 DUP4 ADD DUP5 MSTORE SWAP3 PUSH1 0x20 DUP4 ADD SWAP1 DUP1 CALLDATASIZE DUP4 CALLDATACOPY ADD SWAP1 POP POP SWAP1 POP ADDRESS DUP2 PUSH1 0x0 DUP2 MLOAD DUP2 LT PUSH2 0x208A JUMPI INVALID JUMPDEST PUSH1 0x1 PUSH1 0x1 PUSH1 0xA0 SHL SUB SWAP3 DUP4 AND PUSH1 0x20 SWAP2 DUP3 MUL SWAP3 SWAP1 SWAP3 ADD DUP2 ADD SWAP2 SWAP1 SWAP2 MSTORE PUSH1 0xB SLOAD PUSH1 0x40 DUP1 MLOAD PUSH4 0x15AB88C9 PUSH1 0xE3 SHL DUP2 MSTORE SWAP1 MLOAD SWAP2 SWAP1 SWAP4 AND SWAP3 PUSH4 0xAD5C4648 SWAP3 PUSH1 0x4 DUP1 DUP4 ADD SWAP4 SWAP2 SWAP3 DUP3 SWAP1 SUB ADD DUP2 DUP7 DUP1 EXTCODESIZE ISZERO DUP1 ISZERO PUSH2 0x20DE JUMPI PUSH1 0x0 DUP1 REVERT JUMPDEST POP GAS STATICCALL ISZERO DUP1 ISZERO PUSH2 0x20F2 JUMPI RETURNDATASIZE PUSH1 0x0 DUP1 RETURNDATACOPY RETURNDATASIZE PUSH1 0x0 REVERT JUMPDEST POP POP POP POP PUSH1 0x40 MLOAD RETURNDATASIZE PUSH1 0x20 DUP2 LT ISZERO PUSH2 0x2108 JUMPI PUSH1 0x0 DUP1 REVERT JUMPDEST POP MLOAD DUP2 MLOAD DUP3 SWAP1 PUSH1 0x1 SWAP1 DUP2 LT PUSH2 0x2119 JUMPI INVALID JUMPDEST PUSH1 0x1 PUSH1 0x1 PUSH1 0xA0 SHL SUB SWAP3 DUP4 AND PUSH1 0x20 SWAP2 DUP3 MUL SWAP3 SWAP1 SWAP3 ADD DUP2 ADD SWAP2 SWAP1 SWAP2 MSTORE PUSH1 0xB SLOAD PUSH1 0x40 MLOAD PUSH4 0x791AC947 PUSH1 0xE0 SHL DUP2 MSTORE PUSH1 0x4 DUP2 ADD DUP7 DUP2 MSTORE PUSH1 0x0 PUSH1 0x24 DUP4 ADD DUP2 SWAP1 MSTORE ADDRESS PUSH1 0x64 DUP5 ADD DUP2 SWAP1 MSTORE TIMESTAMP PUSH1 0x84 DUP6 ADD DUP2 SWAP1 MSTORE PUSH1 0xA0 PUSH1 0x44 DUP7 ADD SWAP1 DUP2 MSTORE DUP10 MLOAD PUSH1 0xA4 DUP8 ADD MSTORE DUP10 MLOAD SELFBALANCE SWAP10 SWAP8 SWAP1 SWAP8 AND SWAP8 PUSH4 0x791AC947 SWAP8 DUP13 SWAP8 SWAP6 SWAP7 DUP13 SWAP7 SWAP1 SWAP4 SWAP3 PUSH1 0xC4 SWAP1 SWAP2 ADD SWAP2 DUP8 DUP3 ADD SWAP2 MUL DUP1 DUP4 DUP4 DUP12 JUMPDEST DUP4 DUP2 LT ISZERO PUSH2 0x21B3 JUMPI DUP2 DUP2 ADD MLOAD DUP4 DUP3 ADD MSTORE PUSH1 0x20 ADD PUSH2 0x219B JUMP JUMPDEST POP POP POP POP SWAP1 POP ADD SWAP7 POP POP POP POP POP POP POP PUSH1 0x0 PUSH1 0x40 MLOAD DUP1 DUP4 SUB DUP2 PUSH1 0x0 DUP8 DUP1 EXTCODESIZE ISZERO DUP1 ISZERO PUSH2 0x21DC JUMPI PUSH1 0x0 DUP1 REVERT JUMPDEST POP GAS CALL ISZERO DUP1 ISZERO PUSH2 0x21F0 JUMPI RETURNDATASIZE PUSH1 0x0 DUP1 RETURNDATACOPY RETURNDATASIZE PUSH1 0x0 REVERT JUMPDEST POP POP POP POP PUSH1 0x0 PUSH2 0x2209 DUP3 SELFBALANCE PUSH2 0x1B4A SWAP1 SWAP2 SWAP1 PUSH4 0xFFFFFFFF AND JUMP JUMPDEST SWAP1 POP PUSH1 0x0 DUP6 GT DUP1 ISZERO PUSH2 0x221B JUMPI POP PUSH1 0x0 DUP2 GT JUMPDEST ISZERO PUSH2 0x22C3 JUMPI PUSH1 0xB SLOAD PUSH1 0x6 SLOAD PUSH1 0x40 DUP1 MLOAD PUSH4 0xF305D719 PUSH1 0xE0 SHL DUP2 MSTORE ADDRESS PUSH1 0x4 DUP3 ADD MSTORE PUSH1 0x24 DUP2 ADD DUP10 SWAP1 MSTORE PUSH1 0x0 PUSH1 0x44 DUP3 ADD DUP2 SWAP1 MSTORE PUSH1 0x64 DUP3 ADD MSTORE PUSH1 0x1 PUSH1 0x1 PUSH1 0xA0 SHL SUB SWAP3 DUP4 AND PUSH1 0x84 DUP3 ADD MSTORE TIMESTAMP PUSH1 0xA4 DUP3 ADD MSTORE SWAP1 MLOAD SWAP2 SWAP1 SWAP3 AND SWAP2 PUSH4 0xF305D719 SWAP2 DUP5 SWAP2 PUSH1 0xC4 DUP1 DUP3 ADD SWAP3 PUSH1 0x60 SWAP3 SWAP1 SWAP2 SWAP1 DUP3 SWAP1 SUB ADD DUP2 DUP6 DUP9 DUP1 EXTCODESIZE ISZERO DUP1 ISZERO PUSH2 0x2295 JUMPI PUSH1 0x0 DUP1 REVERT JUMPDEST POP GAS CALL ISZERO DUP1 ISZERO PUSH2 0x22A9 JUMPI RETURNDATASIZE PUSH1 0x0 DUP1 RETURNDATACOPY RETURNDATASIZE PUSH1 0x0 REVERT JUMPDEST POP POP POP POP POP PUSH1 0x40 MLOAD RETURNDATASIZE PUSH1 0x60 DUP2 LT ISZERO PUSH2 0x22C0 JUMPI PUSH1 0x0 DUP1 REVERT JUMPDEST POP POP JUMPDEST POP POP TIMESTAMP PUSH1 0xF SSTORE POP POP POP POP JUMPDEST PUSH1 0xC DUP1 SLOAD PUSH1 0xFF PUSH1 0xA0 SHL NOT AND SWAP1 SSTORE JUMP JUMPDEST PUSH1 0xC SLOAD PUSH1 0x0 SWAP1 PUSH1 0x1 PUSH1 0xA0 SHL SWAP1 DIV PUSH1 0xFF AND ISZERO DUP1 ISZERO PUSH2 0xDFE JUMPI POP POP PUSH1 0xC SLOAD PUSH1 0x1 PUSH1 0x1 PUSH1 0xA0 SHL SUB AND CALLER EQ ISZERO SWAP1 JUMP JUMPDEST PUSH1 0xC DUP1 SLOAD PUSH1 0xFF PUSH1 0xA0 SHL NOT AND PUSH1 0x1 PUSH1 0xA0 SHL OR SWAP1 SSTORE PUSH1 0x11 SLOAD ADDRESS PUSH1 0x0 SWAP1 DUP2 MSTORE PUSH1 0x13 PUSH1 0x20 MSTORE PUSH1 0x40 DUP2 KECCAK256 SLOAD SWAP1 SWAP2 PUSH2 0x233A SWAP2 SWAP1 PUSH2 0x1880 JUMP JUMPDEST SWAP1 POP DUP1 PUSH2 0x2347 JUMPI POP PUSH2 0x22CE JUMP JUMPDEST PUSH1 0x40 DUP1 MLOAD PUSH1 0x2 DUP1 DUP3 MSTORE PUSH1 0x60 DUP1 DUP4 ADD DUP5 MSTORE SELFBALANCE SWAP4 SWAP1 SWAP3 SWAP2 SWAP1 PUSH1 0x20 DUP4 ADD SWAP1 DUP1 CALLDATASIZE DUP4 CALLDATACOPY ADD SWAP1 POP POP SWAP1 POP ADDRESS DUP2 PUSH1 0x0 DUP2 MLOAD DUP2 LT PUSH2 0x237A JUMPI INVALID JUMPDEST PUSH1 0x1 PUSH1 0x1 PUSH1 0xA0 SHL SUB SWAP3 DUP4 AND PUSH1 0x20 SWAP2 DUP3 MUL SWAP3 SWAP1 SWAP3 ADD DUP2 ADD SWAP2 SWAP1 SWAP2 MSTORE PUSH1 0xB SLOAD PUSH1 0x40 DUP1 MLOAD PUSH4 0x15AB88C9 PUSH1 0xE3 SHL DUP2 MSTORE SWAP1 MLOAD SWAP2 SWAP1 SWAP4 AND SWAP3 PUSH4 0xAD5C4648 SWAP3 PUSH1 0x4 DUP1 DUP4 ADD SWAP4 SWAP2 SWAP3 DUP3 SWAP1 SUB ADD DUP2 DUP7 DUP1 EXTCODESIZE ISZERO DUP1 ISZERO PUSH2 0x23CE JUMPI PUSH1 0x0 DUP1 REVERT JUMPDEST POP GAS STATICCALL ISZERO DUP1 ISZERO PUSH2 0x23E2 JUMPI RETURNDATASIZE PUSH1 0x0 DUP1 RETURNDATACOPY RETURNDATASIZE PUSH1 0x0 REVERT JUMPDEST POP POP POP POP PUSH1 0x40 MLOAD RETURNDATASIZE PUSH1 0x20 DUP2 LT ISZERO PUSH2 0x23F8 JUMPI PUSH1 0x0 DUP1 REVERT JUMPDEST POP MLOAD DUP2 MLOAD DUP3 SWAP1 PUSH1 0x1 SWAP1 DUP2 LT PUSH2 0x2409 JUMPI INVALID JUMPDEST PUSH1 0x20 MUL PUSH1 0x20 ADD ADD SWAP1 PUSH1 0x1 PUSH1 0x1 PUSH1 0xA0 SHL SUB AND SWAP1 DUP2 PUSH1 0x1 PUSH1 0x1 PUSH1 0xA0 SHL SUB AND DUP2 MSTORE POP POP PUSH1 0xB PUSH1 0x0 SWAP1 SLOAD SWAP1 PUSH2 0x100 EXP SWAP1 DIV PUSH1 0x1 PUSH1 0x1 PUSH1 0xA0 SHL SUB AND PUSH1 0x1 PUSH1 0x1 PUSH1 0xA0 SHL SUB AND PUSH4 0x791AC947 DUP5 PUSH1 0x0 DUP5 ADDRESS TIMESTAMP PUSH1 0x40 MLOAD DUP7 PUSH4 0xFFFFFFFF AND PUSH1 0xE0 SHL DUP2 MSTORE PUSH1 0x4 ADD DUP1 DUP7 DUP2 MSTORE PUSH1 0x20 ADD DUP6 DUP2 MSTORE PUSH1 0x20 ADD DUP1 PUSH1 0x20 ADD DUP5 PUSH1 0x1 PUSH1 0x1 PUSH1 0xA0 SHL SUB AND DUP2 MSTORE PUSH1 0x20 ADD DUP4 DUP2 MSTORE PUSH1 0x20 ADD DUP3 DUP2 SUB DUP3 MSTORE DUP6 DUP2 DUP2 MLOAD DUP2 MSTORE PUSH1 0x20 ADD SWAP2 POP DUP1 MLOAD SWAP1 PUSH1 0x20 ADD SWAP1 PUSH1 0x20 MUL DUP1 DUP4 DUP4 PUSH1 0x0 JUMPDEST DUP4 DUP2 LT ISZERO PUSH2 0x24C3 JUMPI DUP2 DUP2 ADD MLOAD DUP4 DUP3 ADD MSTORE PUSH1 0x20 ADD PUSH2 0x24AB JUMP JUMPDEST POP POP POP POP SWAP1 POP ADD SWAP7 POP POP POP POP POP POP POP PUSH1 0x0 PUSH1 0x40 MLOAD DUP1 DUP4 SUB DUP2 PUSH1 0x0 DUP8 DUP1 EXTCODESIZE ISZERO DUP1 ISZERO PUSH2 0x24EC JUMPI PUSH1 0x0 DUP1 REVERT JUMPDEST POP GAS CALL ISZERO DUP1 ISZERO PUSH2 0x2500 JUMPI RETURNDATASIZE PUSH1 0x0 DUP1 RETURNDATACOPY RETURNDATASIZE PUSH1 0x0 REVERT JUMPDEST POP POP POP POP PUSH1 0x0 PUSH2 0x2519 DUP4 SELFBALANCE PUSH2 0x1B4A SWAP1 SWAP2 SWAP1 PUSH4 0xFFFFFFFF AND JUMP JUMPDEST PUSH1 0x7 SLOAD SWAP1 SWAP2 POP PUSH1 0x0 SWAP1 PUSH1 0x1 PUSH1 0x1 PUSH1 0xA0 SHL SUB AND PUSH2 0x2545 PUSH2 0x253A PUSH1 0x19 PUSH1 0x32 PUSH2 0x1826 JUMP JUMPDEST PUSH2 0xDF8 DUP6 PUSH1 0x19 PUSH2 0x1B92 JUMP JUMPDEST PUSH1 0x40 MLOAD PUSH2 0x7530 SWAP2 SWAP1 PUSH1 0x0 DUP2 DUP2 DUP2 DUP6 DUP9 DUP9 CALL SWAP4 POP POP POP POP RETURNDATASIZE DUP1 PUSH1 0x0 DUP2 EQ PUSH2 0x2587 JUMPI PUSH1 0x40 MLOAD SWAP2 POP PUSH1 0x1F NOT PUSH1 0x3F RETURNDATASIZE ADD AND DUP3 ADD PUSH1 0x40 MSTORE RETURNDATASIZE DUP3 MSTORE RETURNDATASIZE PUSH1 0x0 PUSH1 0x20 DUP5 ADD RETURNDATACOPY PUSH2 0x258C JUMP JUMPDEST PUSH1 0x60 SWAP2 POP JUMPDEST POP POP PUSH1 0x8 SLOAD SWAP1 SWAP2 POP PUSH1 0x1 PUSH1 0x1 PUSH1 0xA0 SHL SUB AND PUSH2 0x25B7 PUSH2 0x25AC PUSH1 0x19 PUSH1 0x32 PUSH2 0x1826 JUMP JUMPDEST PUSH2 0xDF8 DUP6 PUSH1 0x32 PUSH2 0x1B92 JUMP JUMPDEST PUSH1 0x40 MLOAD PUSH2 0x7530 SWAP2 SWAP1 PUSH1 0x0 DUP2 DUP2 DUP2 DUP6 DUP9 DUP9 CALL SWAP4 POP POP POP POP RETURNDATASIZE DUP1 PUSH1 0x0 DUP2 EQ PUSH2 0x25F9 JUMPI PUSH1 0x40 MLOAD SWAP2 POP PUSH1 0x1F NOT PUSH1 0x3F RETURNDATASIZE ADD AND DUP3 ADD PUSH1 0x40 MSTORE RETURNDATASIZE DUP3 MSTORE RETURNDATASIZE PUSH1 0x0 PUSH1 0x20 DUP5 ADD RETURNDATACOPY PUSH2 0x25FE JUMP JUMPDEST PUSH1 0x60 SWAP2 POP JUMPDEST POP POP POP POP POP POP POP POP PUSH1 0xC DUP1 SLOAD PUSH1 0xFF PUSH1 0xA0 SHL NOT AND SWAP1 SSTORE JUMP JUMPDEST PUSH1 0xC SLOAD PUSH1 0x0 SWAP1 PUSH1 0x1 PUSH1 0x1 PUSH1 0xA0 SHL SUB DUP5 DUP2 AND SWAP2 AND EQ DUP1 PUSH2 0x2641 JUMPI POP PUSH1 0xC SLOAD PUSH1 0x1 PUSH1 0x1 PUSH1 0xA0 SHL SUB DUP4 DUP2 AND SWAP2 AND EQ JUMPDEST DUP1 ISZERO PUSH2 0x1763 JUMPI POP POP POP PUSH1 0x1 PUSH1 0x1 PUSH1 0xA0 SHL SUB AND PUSH1 0x0 SWAP1 DUP2 MSTORE PUSH1 0x4 PUSH1 0x20 MSTORE PUSH1 0x40 SWAP1 KECCAK256 SLOAD PUSH1 0xFF AND ISZERO SWAP1 JUMP JUMPDEST PUSH1 0x5 SLOAD PUSH1 0xC SLOAD PUSH1 0x0 SWAP2 SWAP1 PUSH1 0x19 SWAP1 PUSH1 0x1 PUSH1 0x1 PUSH1 0xA0 SHL SUB DUP7 DUP2 AND SWAP2 AND EQ ISZERO PUSH2 0x26A8 JUMPI PUSH1 0x5 SLOAD PUSH2 0x2697 SWAP1 PUSH1 0x3C PUSH2 0x1826 JUMP JUMPDEST SWAP2 POP PUSH2 0x26A5 PUSH1 0x19 PUSH1 0x3C PUSH2 0x1826 JUMP JUMPDEST SWAP1 POP JUMPDEST PUSH1 0x0 PUSH2 0x26BA PUSH2 0x3E8 PUSH2 0xDF8 DUP8 DUP7 PUSH2 0x1B92 JUMP JUMPDEST SWAP1 POP PUSH2 0x26F1 PUSH2 0x26D0 PUSH2 0x3E8 PUSH2 0xDF8 DUP9 PUSH1 0xF PUSH2 0x1B92 JUMP JUMPDEST PUSH1 0x9 SLOAD PUSH1 0x1 PUSH1 0x1 PUSH1 0xA0 SHL SUB AND PUSH1 0x0 SWAP1 DUP2 MSTORE PUSH1 0x13 PUSH1 0x20 MSTORE PUSH1 0x40 SWAP1 KECCAK256 SLOAD SWAP1 PUSH2 0x1826 JUMP JUMPDEST PUSH1 0x9 SLOAD PUSH1 0x1 PUSH1 0x1 PUSH1 0xA0 SHL SUB AND PUSH1 0x0 SWAP1 DUP2 MSTORE PUSH1 0x13 PUSH1 0x20 MSTORE PUSH1 0x40 SWAP1 KECCAK256 SSTORE PUSH2 0x2740 PUSH2 0x272A PUSH2 0x3E8 PUSH2 0xDF8 PUSH2 0x2723 DUP7 PUSH1 0x32 PUSH2 0x1826 JUMP JUMPDEST DUP10 SWAP1 PUSH2 0x1B92 JUMP JUMPDEST ADDRESS PUSH1 0x0 SWAP1 DUP2 MSTORE PUSH1 0x13 PUSH1 0x20 MSTORE PUSH1 0x40 SWAP1 KECCAK256 SLOAD SWAP1 PUSH2 0x1826 JUMP JUMPDEST ADDRESS PUSH1 0x0 SWAP1 DUP2 MSTORE PUSH1 0x13 PUSH1 0x20 MSTORE PUSH1 0x40 SWAP1 KECCAK256 SSTORE PUSH2 0x2785 PUSH2 0x2764 PUSH2 0x3E8 PUSH2 0xDF8 DUP9 PUSH1 0x1E PUSH2 0x1B92 JUMP JUMPDEST PUSH1 0x6 SLOAD PUSH1 0x1 PUSH1 0x1 PUSH1 0xA0 SHL SUB AND PUSH1 0x0 SWAP1 DUP2 MSTORE PUSH1 0x13 PUSH1 0x20 MSTORE PUSH1 0x40 SWAP1 KECCAK256 SLOAD SWAP1 PUSH2 0x1826 JUMP JUMPDEST PUSH1 0x6 SLOAD PUSH1 0x1 PUSH1 0x1 PUSH1 0xA0 SHL SUB SWAP1 DUP2 AND PUSH1 0x0 SWAP1 DUP2 MSTORE PUSH1 0x13 PUSH1 0x20 MSTORE PUSH1 0x40 SWAP1 KECCAK256 SWAP2 SWAP1 SWAP2 SSTORE PUSH1 0x11 SLOAD ADDRESS SWAP2 DUP10 AND SWAP1 PUSH32 0xDDF252AD1BE2C89B69C2B068FC378DAA952BA7F163C4A11628F55A4DF523B3EF SWAP1 PUSH2 0x27DA SWAP1 DUP6 SWAP1 PUSH2 0x1880 JUMP JUMPDEST PUSH1 0x40 DUP1 MLOAD SWAP2 DUP3 MSTORE MLOAD SWAP1 DUP2 SWAP1 SUB PUSH1 0x20 ADD SWAP1 LOG3 PUSH2 0x27F5 DUP6 DUP3 PUSH2 0x1B4A JUMP JUMPDEST SWAP8 SWAP7 POP POP POP POP POP POP POP JUMP INVALID SLOAD PUSH9 0x657265206973206E6F KECCAK256 MSTORE8 PUSH21 0x6F726D205969656C6420746F6B656E206465706F73 PUSH10 0x74656420696E20746F6B PUSH6 0x6E20636F6E74 PUSH19 0x616374536166654D6174683A206D756C746970 PUSH13 0x69636174696F6E206F76657266 PUSH13 0x6F776F6E6C7920636F6E747261 PUSH4 0x74206164 PUSH5 0x726573732C KECCAK256 PUSH15 0x6F7420616C6C6F7765642065787465 PUSH19 0x616E6C6C79206F776E6564206163636F756E74 LOG2 PUSH5 0x6970667358 0x22 SLT KECCAK256 SGT CALLCODE PUSH8 0xFD12A471C6DA7BA3 SELFBALANCE 0xC1 0xFC MLOAD 0xD0 0xD5 0xDC PUSH23 0x9BD22532DD14B3663140222A7164736F6C634300070400 CALLER "
        },
        "methodIdentifiers": {
          "DECIMALS()": "2e0f2625",
          "MAX_UINT256()": "33a581d2",
          "RATE_DECIMALS()": "5a604c52",
          "_autoAddLiquidity()": "6912652c",
          "_autoRebase()": "afb9cf6d",
          "_decimals()": "32424aa3",
          "_initRebaseStartTime()": "9b87676c",
          "_isRebaseStarted()": "6d04730c",
          "_lastAddLiquidityTime()": "9b2912cc",
          "_lastRebasedTime()": "32b75683",
          "_name()": "d28d8852",
          "_symbol()": "b09f1266",
          "_totalSupply()": "3eaaf86b",
          "allowance(address,address)": "dd62ed3e",
          "approve(address,uint256)": "095ea7b3",
          "autoLiquidityReceiver()": "ca33e64c",
          "balanceOf(address)": "70a08231",
          "blackHole()": "9e90f9aa",
          "blackHoleFee()": "85893195",
          "blacklist(address)": "f9f92be4",
          "checkFeeExempt(address)": "d4399790",
          "decimals()": "313ce567",
          "decreaseAllowance(address,uint256)": "a457c2d7",
          "feeDenominator()": "180b0d7e",
          "getCirculatingSupply()": "2b112e49",
          "getLiquidityBacking(uint256)": "d51ed1c8",
          "increaseAllowance(address,uint256)": "39509351",
          "isNotInSwap()": "83b4ac68",
          "isOwner()": "8f32d59b",
          "liquidityFee()": "98118cb4",
          "manualSync()": "753d02a1",
          "name()": "06fdde03",
          "owner()": "8da5cb5b",
          "pair()": "a8aa1b31",
          "pairAddress()": "a8b08982",
          "pairContract()": "4d709adf",
          "renounceOwnership()": "715018a6",
          "router()": "f887ea40",
          "sellFee()": "2b14ca56",
          "setAutoAddLiquidity(bool)": "cfbac92f",
          "setAutoRebase(bool)": "e15beb80",
          "setBotBlacklist(address,bool)": "37c9be87",
          "setFeeReceivers(address,address,address,address)": "3c8e556d",
          "setLP(address)": "2f34d282",
          "setPairAddress(address)": "a22d4832",
          "setWhitelist(address)": "854cff2f",
          "startRebase()": "706f86e9",
          "stormYieldInsuranceFundFee()": "564241cf",
          "stormYieldInsuranceFundReceiver()": "aac421f7",
          "stormYieldTreasuryReceiver()": "568498c4",
          "swapEnabled()": "6ddd1713",
          "symbol()": "95d89b41",
          "totalFee()": "1df4ccfc",
          "totalSupply()": "18160ddd",
          "transfer(address,uint256)": "a9059cbb",
          "transferFrom(address,address,uint256)": "23b872dd",
          "transferOwnership(address)": "f2fde38b",
          "treasuryFee()": "cc32d176",
          "withdrawAllToTreasury()": "bd595581"
        }
      },
      "storageLayout": {
        "storage": [
          {
            "astId": 1220,
            "contract": "contracts/StormYield.sol:StormYield",
            "label": "_name",
            "offset": 0,
            "slot": "0",
            "type": "t_string_storage"
          },
          {
            "astId": 1222,
            "contract": "contracts/StormYield.sol:StormYield",
            "label": "_symbol",
            "offset": 0,
            "slot": "1",
            "type": "t_string_storage"
          },
          {
            "astId": 1224,
            "contract": "contracts/StormYield.sol:StormYield",
            "label": "_decimals",
            "offset": 0,
            "slot": "2",
            "type": "t_uint8"
          },
          {
            "astId": 1115,
            "contract": "contracts/StormYield.sol:StormYield",
            "label": "_owner",
            "offset": 1,
            "slot": "2",
            "type": "t_address"
          },
          {
            "astId": 1298,
            "contract": "contracts/StormYield.sol:StormYield",
            "label": "pairContract",
            "offset": 0,
            "slot": "3",
            "type": "t_contract(IPancakeSwapPair)664"
          },
          {
            "astId": 1302,
            "contract": "contracts/StormYield.sol:StormYield",
            "label": "_isFeeExempt",
            "offset": 0,
            "slot": "4",
            "type": "t_mapping(t_address,t_bool)"
          },
          {
            "astId": 1368,
            "contract": "contracts/StormYield.sol:StormYield",
            "label": "totalFee",
            "offset": 0,
            "slot": "5",
            "type": "t_uint256"
          },
          {
            "astId": 1379,
            "contract": "contracts/StormYield.sol:StormYield",
            "label": "autoLiquidityReceiver",
            "offset": 0,
            "slot": "6",
            "type": "t_address"
          },
          {
            "astId": 1381,
            "contract": "contracts/StormYield.sol:StormYield",
            "label": "stormYieldTreasuryReceiver",
            "offset": 0,
            "slot": "7",
            "type": "t_address"
          },
          {
            "astId": 1383,
            "contract": "contracts/StormYield.sol:StormYield",
            "label": "stormYieldInsuranceFundReceiver",
            "offset": 0,
            "slot": "8",
            "type": "t_address"
          },
          {
            "astId": 1385,
            "contract": "contracts/StormYield.sol:StormYield",
            "label": "blackHole",
            "offset": 0,
            "slot": "9",
            "type": "t_address"
          },
          {
            "astId": 1387,
            "contract": "contracts/StormYield.sol:StormYield",
            "label": "pairAddress",
            "offset": 0,
            "slot": "10",
            "type": "t_address"
          },
          {
            "astId": 1392,
            "contract": "contracts/StormYield.sol:StormYield",
            "label": "router",
            "offset": 0,
            "slot": "11",
            "type": "t_contract(IPancakeSwapRouter)1052"
          },
          {
            "astId": 1394,
            "contract": "contracts/StormYield.sol:StormYield",
            "label": "pair",
            "offset": 0,
            "slot": "12",
            "type": "t_address"
          },
          {
            "astId": 1397,
            "contract": "contracts/StormYield.sol:StormYield",
            "label": "inSwap",
            "offset": 20,
            "slot": "12",
            "type": "t_bool"
          },
          {
            "astId": 1430,
            "contract": "contracts/StormYield.sol:StormYield",
            "label": "_autoRebase",
            "offset": 21,
            "slot": "12",
            "type": "t_bool"
          },
          {
            "astId": 1432,
            "contract": "contracts/StormYield.sol:StormYield",
            "label": "_autoAddLiquidity",
            "offset": 22,
            "slot": "12",
            "type": "t_bool"
          },
          {
            "astId": 1434,
            "contract": "contracts/StormYield.sol:StormYield",
            "label": "_initRebaseStartTime",
            "offset": 0,
            "slot": "13",
            "type": "t_uint256"
          },
          {
            "astId": 1436,
            "contract": "contracts/StormYield.sol:StormYield",
            "label": "_lastRebasedTime",
            "offset": 0,
            "slot": "14",
            "type": "t_uint256"
          },
          {
            "astId": 1438,
            "contract": "contracts/StormYield.sol:StormYield",
            "label": "_lastAddLiquidityTime",
            "offset": 0,
            "slot": "15",
            "type": "t_uint256"
          },
          {
            "astId": 1440,
            "contract": "contracts/StormYield.sol:StormYield",
            "label": "_totalSupply",
            "offset": 0,
            "slot": "16",
            "type": "t_uint256"
          },
          {
            "astId": 1442,
            "contract": "contracts/StormYield.sol:StormYield",
            "label": "_gonsPerFragment",
            "offset": 0,
            "slot": "17",
            "type": "t_uint256"
          },
          {
            "astId": 1444,
            "contract": "contracts/StormYield.sol:StormYield",
            "label": "_isRebaseStarted",
            "offset": 0,
            "slot": "18",
            "type": "t_bool"
          },
          {
            "astId": 1448,
            "contract": "contracts/StormYield.sol:StormYield",
            "label": "_gonBalances",
            "offset": 0,
            "slot": "19",
            "type": "t_mapping(t_address,t_uint256)"
          },
          {
            "astId": 1454,
            "contract": "contracts/StormYield.sol:StormYield",
            "label": "_allowedFragments",
            "offset": 0,
            "slot": "20",
            "type": "t_mapping(t_address,t_mapping(t_address,t_uint256))"
          },
          {
            "astId": 1458,
            "contract": "contracts/StormYield.sol:StormYield",
            "label": "blacklist",
            "offset": 0,
            "slot": "21",
            "type": "t_mapping(t_address,t_bool)"
          }
        ],
        "types": {
          "t_address": {
            "encoding": "inplace",
            "label": "address",
            "numberOfBytes": "20"
          },
          "t_bool": {
            "encoding": "inplace",
            "label": "bool",
            "numberOfBytes": "1"
          },
          "t_contract(IPancakeSwapPair)664": {
            "encoding": "inplace",
            "label": "contract IPancakeSwapPair",
            "numberOfBytes": "20"
          },
          "t_contract(IPancakeSwapRouter)1052": {
            "encoding": "inplace",
            "label": "contract IPancakeSwapRouter",
            "numberOfBytes": "20"
          },
          "t_mapping(t_address,t_bool)": {
            "encoding": "mapping",
            "key": "t_address",
            "label": "mapping(address => bool)",
            "numberOfBytes": "32",
            "value": "t_bool"
          },
          "t_mapping(t_address,t_mapping(t_address,t_uint256))": {
            "encoding": "mapping",
            "key": "t_address",
            "label": "mapping(address => mapping(address => uint256))",
            "numberOfBytes": "32",
            "value": "t_mapping(t_address,t_uint256)"
          },
          "t_mapping(t_address,t_uint256)": {
            "encoding": "mapping",
            "key": "t_address",
            "label": "mapping(address => uint256)",
            "numberOfBytes": "32",
            "value": "t_uint256"
          },
          "t_string_storage": {
            "encoding": "bytes",
            "label": "string",
            "numberOfBytes": "32"
          },
          "t_uint256": {
            "encoding": "inplace",
            "label": "uint256",
            "numberOfBytes": "32"
          },
          "t_uint8": {
            "encoding": "inplace",
            "label": "uint8",
            "numberOfBytes": "1"
          }
        }
      }
    }
  }
}