{
  "_format": "hh-sol-artifact-1",
  "contractName": "StormYield",
  "sourceName": "contracts/StormYield.sol",
  "abi": [
    {
      "inputs": [],
      "stateMutability": "nonpayable",
      "type": "constructor"
    },
    {
      "anonymous": false,
      "inputs": [
        {
          "indexed": true,
          "internalType": "address",
          "name": "owner",
          "type": "address"
        },
        {
          "indexed": true,
          "internalType": "address",
          "name": "spender",
          "type": "address"
        },
        {
          "indexed": false,
          "internalType": "uint256",
          "name": "value",
          "type": "uint256"
        }
      ],
      "name": "Approval",
      "type": "event"
    },
    {
      "anonymous": false,
      "inputs": [
        {
          "indexed": true,
          "internalType": "uint256",
          "name": "epoch",
          "type": "uint256"
        },
        {
          "indexed": false,
          "internalType": "uint256",
          "name": "totalSupply",
          "type": "uint256"
        }
      ],
      "name": "LogRebase",
      "type": "event"
    },
    {
      "anonymous": false,
      "inputs": [
        {
          "indexed": true,
          "internalType": "address",
          "name": "previousOwner",
          "type": "address"
        }
      ],
      "name": "OwnershipRenounced",
      "type": "event"
    },
    {
      "anonymous": false,
      "inputs": [
        {
          "indexed": true,
          "internalType": "address",
          "name": "previousOwner",
          "type": "address"
        },
        {
          "indexed": true,
          "internalType": "address",
          "name": "newOwner",
          "type": "address"
        }
      ],
      "name": "OwnershipTransferred",
      "type": "event"
    },
    {
      "anonymous": false,
      "inputs": [
        {
          "indexed": true,
          "internalType": "address",
          "name": "from",
          "type": "address"
        },
        {
          "indexed": true,
          "internalType": "address",
          "name": "to",
          "type": "address"
        },
        {
          "indexed": false,
          "internalType": "uint256",
          "name": "value",
          "type": "uint256"
        }
      ],
      "name": "Transfer",
      "type": "event"
    },
    {
      "inputs": [],
      "name": "DECIMALS",
      "outputs": [
        {
          "internalType": "uint256",
          "name": "",
          "type": "uint256"
        }
      ],
      "stateMutability": "view",
      "type": "function"
    },
    {
      "inputs": [],
      "name": "MAX_UINT256",
      "outputs": [
        {
          "internalType": "uint256",
          "name": "",
          "type": "uint256"
        }
      ],
      "stateMutability": "view",
      "type": "function"
    },
    {
      "inputs": [],
      "name": "RATE_DECIMALS",
      "outputs": [
        {
          "internalType": "uint8",
          "name": "",
          "type": "uint8"
        }
      ],
      "stateMutability": "view",
      "type": "function"
    },
    {
      "inputs": [],
      "name": "_autoAddLiquidity",
      "outputs": [
        {
          "internalType": "bool",
          "name": "",
          "type": "bool"
        }
      ],
      "stateMutability": "view",
      "type": "function"
    },
    {
      "inputs": [],
      "name": "_autoRebase",
      "outputs": [
        {
          "internalType": "bool",
          "name": "",
          "type": "bool"
        }
      ],
      "stateMutability": "view",
      "type": "function"
    },
    {
      "inputs": [],
      "name": "_decimals",
      "outputs": [
        {
          "internalType": "uint8",
          "name": "",
          "type": "uint8"
        }
      ],
      "stateMutability": "view",
      "type": "function"
    },
    {
      "inputs": [],
      "name": "_initRebaseStartTime",
      "outputs": [
        {
          "internalType": "uint256",
          "name": "",
          "type": "uint256"
        }
      ],
      "stateMutability": "view",
      "type": "function"
    },
    {
      "inputs": [],
      "name": "_isRebaseStarted",
      "outputs": [
        {
          "internalType": "bool",
          "name": "",
          "type": "bool"
        }
      ],
      "stateMutability": "view",
      "type": "function"
    },
    {
      "inputs": [],
      "name": "_lastAddLiquidityTime",
      "outputs": [
        {
          "internalType": "uint256",
          "name": "",
          "type": "uint256"
        }
      ],
      "stateMutability": "view",
      "type": "function"
    },
    {
      "inputs": [],
      "name": "_lastRebasedTime",
      "outputs": [
        {
          "internalType": "uint256",
          "name": "",
          "type": "uint256"
        }
      ],
      "stateMutability": "view",
      "type": "function"
    },
    {
      "inputs": [],
      "name": "_name",
      "outputs": [
        {
          "internalType": "string",
          "name": "",
          "type": "string"
        }
      ],
      "stateMutability": "view",
      "type": "function"
    },
    {
      "inputs": [],
      "name": "_symbol",
      "outputs": [
        {
          "internalType": "string",
          "name": "",
          "type": "string"
        }
      ],
      "stateMutability": "view",
      "type": "function"
    },
    {
      "inputs": [],
      "name": "_totalSupply",
      "outputs": [
        {
          "internalType": "uint256",
          "name": "",
          "type": "uint256"
        }
      ],
      "stateMutability": "view",
      "type": "function"
    },
    {
      "inputs": [
        {
          "internalType": "address",
          "name": "owner_",
          "type": "address"
        },
        {
          "internalType": "address",
          "name": "spender",
          "type": "address"
        }
      ],
      "name": "allowance",
      "outputs": [
        {
          "internalType": "uint256",
          "name": "",
          "type": "uint256"
        }
      ],
      "stateMutability": "view",
      "type": "function"
    },
    {
      "inputs": [
        {
          "internalType": "address",
          "name": "spender",
          "type": "address"
        },
        {
          "internalType": "uint256",
          "name": "value",
          "type": "uint256"
        }
      ],
      "name": "approve",
      "outputs": [
        {
          "internalType": "bool",
          "name": "",
          "type": "bool"
        }
      ],
      "stateMutability": "nonpayable",
      "type": "function"
    },
    {
      "inputs": [],
      "name": "autoLiquidityReceiver",
      "outputs": [
        {
          "internalType": "address",
          "name": "",
          "type": "address"
        }
      ],
      "stateMutability": "view",
      "type": "function"
    },
    {
      "inputs": [
        {
          "internalType": "address",
          "name": "who",
          "type": "address"
        }
      ],
      "name": "balanceOf",
      "outputs": [
        {
          "internalType": "uint256",
          "name": "",
          "type": "uint256"
        }
      ],
      "stateMutability": "view",
      "type": "function"
    },
    {
      "inputs": [],
      "name": "blackHole",
      "outputs": [
        {
          "internalType": "address",
          "name": "",
          "type": "address"
        }
      ],
      "stateMutability": "view",
      "type": "function"
    },
    {
      "inputs": [],
      "name": "blackHoleFee",
      "outputs": [
        {
          "internalType": "uint256",
          "name": "",
          "type": "uint256"
        }
      ],
      "stateMutability": "view",
      "type": "function"
    },
    {
      "inputs": [
        {
          "internalType": "address",
          "name": "",
          "type": "address"
        }
      ],
      "name": "blacklist",
      "outputs": [
        {
          "internalType": "bool",
          "name": "",
          "type": "bool"
        }
      ],
      "stateMutability": "view",
      "type": "function"
    },
    {
      "inputs": [
        {
          "internalType": "address",
          "name": "_addr",
          "type": "address"
        }
      ],
      "name": "checkFeeExempt",
      "outputs": [
        {
          "internalType": "bool",
          "name": "",
          "type": "bool"
        }
      ],
      "stateMutability": "view",
      "type": "function"
    },
    {
      "inputs": [],
      "name": "decimals",
      "outputs": [
        {
          "internalType": "uint8",
          "name": "",
          "type": "uint8"
        }
      ],
      "stateMutability": "view",
      "type": "function"
    },
    {
      "inputs": [
        {
          "internalType": "address",
          "name": "spender",
          "type": "address"
        },
        {
          "internalType": "uint256",
          "name": "subtractedValue",
          "type": "uint256"
        }
      ],
      "name": "decreaseAllowance",
      "outputs": [
        {
          "internalType": "bool",
          "name": "",
          "type": "bool"
        }
      ],
      "stateMutability": "nonpayable",
      "type": "function"
    },
    {
      "inputs": [],
      "name": "feeDenominator",
      "outputs": [
        {
          "internalType": "uint256",
          "name": "",
          "type": "uint256"
        }
      ],
      "stateMutability": "view",
      "type": "function"
    },
    {
      "inputs": [],
      "name": "getCirculatingSupply",
      "outputs": [
        {
          "internalType": "uint256",
          "name": "",
          "type": "uint256"
        }
      ],
      "stateMutability": "view",
      "type": "function"
    },
    {
      "inputs": [
        {
          "internalType": "uint256",
          "name": "accuracy",
          "type": "uint256"
        }
      ],
      "name": "getLiquidityBacking",
      "outputs": [
        {
          "internalType": "uint256",
          "name": "",
          "type": "uint256"
        }
      ],
      "stateMutability": "view",
      "type": "function"
    },
    {
      "inputs": [
        {
          "internalType": "address",
          "name": "spender",
          "type": "address"
        },
        {
          "internalType": "uint256",
          "name": "addedValue",
          "type": "uint256"
        }
      ],
      "name": "increaseAllowance",
      "outputs": [
        {
          "internalType": "bool",
          "name": "",
          "type": "bool"
        }
      ],
      "stateMutability": "nonpayable",
      "type": "function"
    },
    {
      "inputs": [],
      "name": "isNotInSwap",
      "outputs": [
        {
          "internalType": "bool",
          "name": "",
          "type": "bool"
        }
      ],
      "stateMutability": "view",
      "type": "function"
    },
    {
      "inputs": [],
      "name": "isOwner",
      "outputs": [
        {
          "internalType": "bool",
          "name": "",
          "type": "bool"
        }
      ],
      "stateMutability": "view",
      "type": "function"
    },
    {
      "inputs": [],
      "name": "liquidityFee",
      "outputs": [
        {
          "internalType": "uint256",
          "name": "",
          "type": "uint256"
        }
      ],
      "stateMutability": "view",
      "type": "function"
    },
    {
      "inputs": [],
      "name": "manualSync",
      "outputs": [],
      "stateMutability": "nonpayable",
      "type": "function"
    },
    {
      "inputs": [],
      "name": "name",
      "outputs": [
        {
          "internalType": "string",
          "name": "",
          "type": "string"
        }
      ],
      "stateMutability": "view",
      "type": "function"
    },
    {
      "inputs": [],
      "name": "owner",
      "outputs": [
        {
          "internalType": "address",
          "name": "",
          "type": "address"
        }
      ],
      "stateMutability": "view",
      "type": "function"
    },
    {
      "inputs": [],
      "name": "pair",
      "outputs": [
        {
          "internalType": "address",
          "name": "",
          "type": "address"
        }
      ],
      "stateMutability": "view",
      "type": "function"
    },
    {
      "inputs": [],
      "name": "pairAddress",
      "outputs": [
        {
          "internalType": "address",
          "name": "",
          "type": "address"
        }
      ],
      "stateMutability": "view",
      "type": "function"
    },
    {
      "inputs": [],
      "name": "pairContract",
      "outputs": [
        {
          "internalType": "contract IPancakeSwapPair",
          "name": "",
          "type": "address"
        }
      ],
      "stateMutability": "view",
      "type": "function"
    },
    {
      "inputs": [],
      "name": "renounceOwnership",
      "outputs": [],
      "stateMutability": "nonpayable",
      "type": "function"
    },
    {
      "inputs": [],
      "name": "router",
      "outputs": [
        {
          "internalType": "contract IPancakeSwapRouter",
          "name": "",
          "type": "address"
        }
      ],
      "stateMutability": "view",
      "type": "function"
    },
    {
      "inputs": [],
      "name": "sellFee",
      "outputs": [
        {
          "internalType": "uint256",
          "name": "",
          "type": "uint256"
        }
      ],
      "stateMutability": "view",
      "type": "function"
    },
    {
      "inputs": [
        {
          "internalType": "bool",
          "name": "_flag",
          "type": "bool"
        }
      ],
      "name": "setAutoAddLiquidity",
      "outputs": [],
      "stateMutability": "nonpayable",
      "type": "function"
    },
    {
      "inputs": [
        {
          "internalType": "bool",
          "name": "_flag",
          "type": "bool"
        }
      ],
      "name": "setAutoRebase",
      "outputs": [],
      "stateMutability": "nonpayable",
      "type": "function"
    },
    {
      "inputs": [
        {
          "internalType": "address",
          "name": "_botAddress",
          "type": "address"
        },
        {
          "internalType": "bool",
          "name": "_flag",
          "type": "bool"
        }
      ],
      "name": "setBotBlacklist",
      "outputs": [],
      "stateMutability": "nonpayable",
      "type": "function"
    },
    {
      "inputs": [
        {
          "internalType": "address",
          "name": "_autoLiquidityReceiver",
          "type": "address"
        },
        {
          "internalType": "address",
          "name": "_stormYieldTreasuryReceiver",
          "type": "address"
        },
        {
          "internalType": "address",
          "name": "_stormYieldInsuranceFundReceiver",
          "type": "address"
        },
        {
          "internalType": "address",
          "name": "_blackHole",
          "type": "address"
        }
      ],
      "name": "setFeeReceivers",
      "outputs": [],
      "stateMutability": "nonpayable",
      "type": "function"
    },
    {
      "inputs": [
        {
          "internalType": "address",
          "name": "_address",
          "type": "address"
        }
      ],
      "name": "setLP",
      "outputs": [],
      "stateMutability": "nonpayable",
      "type": "function"
    },
    {
      "inputs": [
        {
          "internalType": "address",
          "name": "_pairAddress",
          "type": "address"
        }
      ],
      "name": "setPairAddress",
      "outputs": [],
      "stateMutability": "nonpayable",
      "type": "function"
    },
    {
      "inputs": [
        {
          "internalType": "address",
          "name": "_addr",
          "type": "address"
        }
      ],
      "name": "setWhitelist",
      "outputs": [],
      "stateMutability": "nonpayable",
      "type": "function"
    },
    {
      "inputs": [],
      "name": "startRebase",
      "outputs": [],
      "stateMutability": "nonpayable",
      "type": "function"
    },
    {
      "inputs": [],
      "name": "stormYieldInsuranceFundFee",
      "outputs": [
        {
          "internalType": "uint256",
          "name": "",
          "type": "uint256"
        }
      ],
      "stateMutability": "view",
      "type": "function"
    },
    {
      "inputs": [],
      "name": "stormYieldInsuranceFundReceiver",
      "outputs": [
        {
          "internalType": "address",
          "name": "",
          "type": "address"
        }
      ],
      "stateMutability": "view",
      "type": "function"
    },
    {
      "inputs": [],
      "name": "stormYieldTreasuryReceiver",
      "outputs": [
        {
          "internalType": "address",
          "name": "",
          "type": "address"
        }
      ],
      "stateMutability": "view",
      "type": "function"
    },
    {
      "inputs": [],
      "name": "swapEnabled",
      "outputs": [
        {
          "internalType": "bool",
          "name": "",
          "type": "bool"
        }
      ],
      "stateMutability": "view",
      "type": "function"
    },
    {
      "inputs": [],
      "name": "symbol",
      "outputs": [
        {
          "internalType": "string",
          "name": "",
          "type": "string"
        }
      ],
      "stateMutability": "view",
      "type": "function"
    },
    {
      "inputs": [],
      "name": "totalFee",
      "outputs": [
        {
          "internalType": "uint256",
          "name": "",
          "type": "uint256"
        }
      ],
      "stateMutability": "view",
      "type": "function"
    },
    {
      "inputs": [],
      "name": "totalSupply",
      "outputs": [
        {
          "internalType": "uint256",
          "name": "",
          "type": "uint256"
        }
      ],
      "stateMutability": "view",
      "type": "function"
    },
    {
      "inputs": [
        {
          "internalType": "address",
          "name": "to",
          "type": "address"
        },
        {
          "internalType": "uint256",
          "name": "value",
          "type": "uint256"
        }
      ],
      "name": "transfer",
      "outputs": [
        {
          "internalType": "bool",
          "name": "",
          "type": "bool"
        }
      ],
      "stateMutability": "nonpayable",
      "type": "function"
    },
    {
      "inputs": [
        {
          "internalType": "address",
          "name": "from",
          "type": "address"
        },
        {
          "internalType": "address",
          "name": "to",
          "type": "address"
        },
        {
          "internalType": "uint256",
          "name": "value",
          "type": "uint256"
        }
      ],
      "name": "transferFrom",
      "outputs": [
        {
          "internalType": "bool",
          "name": "",
          "type": "bool"
        }
      ],
      "stateMutability": "nonpayable",
      "type": "function"
    },
    {
      "inputs": [
        {
          "internalType": "address",
          "name": "newOwner",
          "type": "address"
        }
      ],
      "name": "transferOwnership",
      "outputs": [],
      "stateMutability": "nonpayable",
      "type": "function"
    },
    {
      "inputs": [],
      "name": "treasuryFee",
      "outputs": [
        {
          "internalType": "uint256",
          "name": "",
          "type": "uint256"
        }
      ],
      "stateMutability": "view",
      "type": "function"
    },
    {
      "inputs": [],
      "name": "withdrawAllToTreasury",
      "outputs": [],
      "stateMutability": "nonpayable",
      "type": "function"
    },
    {
      "stateMutability": "payable",
      "type": "receive"
    }
  ],
  "bytecode": "0x608060405262000040600f6200002c60326200002c6019601e6200045260201b620018261790919060201c565b6200045260201b620018261790919060201c565b600555600c805460ff60a01b191690553480156200005d57600080fd5b50604080518082018252600b81526a14dd1bdc9b48165a595b1960aa1b60208083019182528351808501909452600384526253545960e81b908401528151919291600591620000b0916000919062000620565b508151620000c690600190602085019062000620565b506002805460ff191660ff9290921691909117610100600160a81b03191661010033021790555050600b8054739ac64cc6e4415144c455bd8e4837fea55603e5c36001600160a01b031990911617908190556040805163c45a015560e01b815290516001600160a01b039092169163c45a015591600480820192602092909190829003018186803b1580156200015b57600080fd5b505afa15801562000170573d6000803e3d6000fd5b505050506040513d60208110156200018757600080fd5b5051600b54604080516315ab88c960e31b815290516001600160a01b039384169363c9c6539693169163ad5c4648916004808301926020929190829003018186803b158015620001d657600080fd5b505afa158015620001eb573d6000803e3d6000fd5b505050506040513d60208110156200020257600080fd5b5051604080516001600160e01b031960e085901b1681526001600160a01b0390921660048301523060248301525160448083019260209291908290030181600087803b1580156200025257600080fd5b505af115801562000267573d6000803e3d6000fd5b505050506040513d60208110156200027e57600080fd5b5051600c80546001600160a01b039283166001600160a01b0319918216178255600680548216731a25be1b836e553625effe5940ee0bd507b0ac1017905560078054821673ae3cda4c8932aa2aa77f98849ff68e71372fb64a17815560088054831673f1f47f90f6c8df3ab27efd1e7ed91fce819814cd17905560098054831673dd6ef0dd73c7d3437b067d295b5d5344a485f5d0179055306000908152601460209081526040808320600b5488168452825280832060001990559454600a80548616918816918217905560038054909516179093556409502f900060109081559154909416845260138252919092206407b6ae2fff199081905590546200038f92620004b4811b6200188017901c565b60115542600d819055600e55600c80546012805460ff1990811690915561ffff60a81b19909116600160b01b17909155600780546001600160a01b03908116600090815260046020526040808220805486166001908117909155308352912080549094161790925554620004049116620004fe565b60075460105460408051918252516001600160a01b03909216916000917fddf252ad1be2c89b69c2b068fc378daa952ba7f163c4a11628f55a4df523b3ef919081900360200190a3620006cc565b600082820183811015620004ad576040805162461bcd60e51b815260206004820152601b60248201527f536166654d6174683a206164646974696f6e206f766572666c6f770000000000604482015290519081900360640190fd5b9392505050565b6000620004ad83836040518060400160405280601a81526020017f536166654d6174683a206469766973696f6e206279207a65726f0000000000008152506200057960201b60201c565b6001600160a01b0381166200051257600080fd5b6002546040516001600160a01b0380841692610100900416907f8be0079c531659141344cd1fd0a4f28419497f9722a3daafe3b4186f6b6457e090600090a3600280546001600160a01b0390921661010002610100600160a81b0319909216919091179055565b60008183620006095760405162461bcd60e51b81526004018080602001828103825283818151815260200191508051906020019080838360005b83811015620005cd578181015183820152602001620005b3565b50505050905090810190601f168015620005fb5780820380516001836020036101000a031916815260200191505b509250505060405180910390fd5b5060008385816200061657fe5b0495945050505050565b828054600181600116156101000203166002900490600052602060002090601f016020900481019282620006585760008555620006a3565b82601f106200067357805160ff1916838001178555620006a3565b82800160010185558215620006a3579182015b82811115620006a357825182559160200191906001019062000686565b50620006b1929150620006b5565b5090565b5b80821115620006b15760008155600101620006b6565b6128cb80620006dc6000396000f3fe6080604052600436106103905760003560e01c806383b4ac68116101dc578063aac421f711610102578063d28d8852116100a0578063e15beb801161006f578063e15beb8014610af0578063f2fde38b14610b1c578063f887ea4014610b4f578063f9f92be414610b6457610397565b8063d28d885214610a43578063d439979014610a58578063d51ed1c814610a8b578063dd62ed3e14610ab557610397565b8063bd595581116100dc578063bd595581146109d8578063ca33e64c146109ed578063cc32d17614610a02578063cfbac92f14610a1757610397565b8063aac421f714610999578063afb9cf6d146109ae578063b09f1266146109c357610397565b80639b2912cc1161017a578063a457c2d711610149578063a457c2d7146108fd578063a8aa1b3114610936578063a8b089821461094b578063a9059cbb1461096057610397565b80639b2912cc1461088b5780639b87676c146108a05780639e90f9aa146108b5578063a22d4832146108ca57610397565b80638da5cb5b116101b65780638da5cb5b146108375780638f32d59b1461084c57806395d89b411461086157806398118cb41461087657610397565b806383b4ac68146107da578063854cff2f146107ef578063858931951461082257610397565b806337c9be87116102c15780635a604c521161025f578063706f86e91161022e578063706f86e91461076857806370a082311461077d578063715018a6146107b0578063753d02a1146107c557610397565b80635a604c52146107145780636912652c146107295780636d04730c1461073e5780636ddd17131461075357610397565b80633eaaf86b1161029b5780633eaaf86b146106a45780634d709adf146106b9578063564241cf146106ea578063568498c4146106ff57610397565b806337c9be87146105e557806339509351146106205780633c8e556d1461065957610397565b80632b14ca561161032e578063313ce56711610308578063313ce5671461057b57806332424aa3146105a657806332b75683146105bb57806333a581d2146105d057610397565b80632b14ca561461051c5780632e0f2625146105315780632f34d2821461054657610397565b806318160ddd1161036a57806318160ddd1461049a5780631df4ccfc146104af57806323b872dd146104c45780632b112e491461050757610397565b806306fdde031461039c578063095ea7b314610426578063180b0d7e1461047357610397565b3661039757005b600080fd5b3480156103a857600080fd5b506103b1610b97565b6040805160208082528351818301528351919283929083019185019080838360005b838110156103eb5781810151838201526020016103d3565b50505050905090810190601f1680156104185780820380516001836020036101000a031916815260200191505b509250505060405180910390f35b34801561043257600080fd5b5061045f6004803603604081101561044957600080fd5b506001600160a01b038135169060200135610c2d565b604080519115158252519081900360200190f35b34801561047f57600080fd5b50610488610c94565b60408051918252519081900360200190f35b3480156104a657600080fd5b50610488610c9a565b3480156104bb57600080fd5b50610488610ca0565b3480156104d057600080fd5b5061045f600480360360608110156104e757600080fd5b506001600160a01b03813581169160208101359091169060400135610ca6565b34801561051357600080fd5b50610488610d80565b34801561052857600080fd5b50610488610e03565b34801561053d57600080fd5b50610488610e08565b34801561055257600080fd5b506105796004803603602081101561056957600080fd5b50356001600160a01b0316610e0d565b005b34801561058757600080fd5b50610590610e40565b6040805160ff9092168252519081900360200190f35b3480156105b257600080fd5b50610590610e08565b3480156105c757600080fd5b50610488610e49565b3480156105dc57600080fd5b50610488610e4f565b3480156105f157600080fd5b506105796004803603604081101561060857600080fd5b506001600160a01b0381351690602001351515610e55565b34801561062c57600080fd5b5061045f6004803603604081101561064357600080fd5b506001600160a01b038135169060200135610ed5565b34801561066557600080fd5b506105796004803603608081101561067c57600080fd5b506001600160a01b038135811691602081013582169160408201358116916060013516610f68565b3480156106b057600080fd5b50610488610fc9565b3480156106c557600080fd5b506106ce610fcf565b604080516001600160a01b039092168252519081900360200190f35b3480156106f657600080fd5b50610488610fde565b34801561070b57600080fd5b506106ce610fe3565b34801561072057600080fd5b50610590610ff2565b34801561073557600080fd5b5061045f610ff7565b34801561074a57600080fd5b5061045f611007565b34801561075f57600080fd5b5061045f611010565b34801561077457600080fd5b50610579611015565b34801561078957600080fd5b50610488600480360360208110156107a057600080fd5b50356001600160a01b03166110b3565b3480156107bc57600080fd5b506105796110db565b3480156107d157600080fd5b5061057961113b565b3480156107e657600080fd5b5061045f6111a5565b3480156107fb57600080fd5b506105796004803603602081101561081257600080fd5b50356001600160a01b03166111b6565b34801561082e57600080fd5b506104886111eb565b34801561084357600080fd5b506106ce6111f0565b34801561085857600080fd5b5061045f611204565b34801561086d57600080fd5b506103b161121a565b34801561088257600080fd5b5061048861127a565b34801561089757600080fd5b5061048861127f565b3480156108ac57600080fd5b50610488611285565b3480156108c157600080fd5b506106ce61128b565b3480156108d657600080fd5b50610579600480360360208110156108ed57600080fd5b50356001600160a01b031661129a565b34801561090957600080fd5b5061045f6004803603604081101561092057600080fd5b506001600160a01b0381351690602001356112cd565b34801561094257600080fd5b506106ce6113b6565b34801561095757600080fd5b506106ce6113c5565b34801561096c57600080fd5b5061045f6004803603604081101561098357600080fd5b506001600160a01b0381351690602001356113d4565b3480156109a557600080fd5b506106ce611400565b3480156109ba57600080fd5b5061045f61140f565b3480156109cf57600080fd5b506103b161141f565b3480156109e457600080fd5b5061057961143e565b3480156109f957600080fd5b506106ce61166b565b348015610a0e57600080fd5b5061048861167a565b348015610a2357600080fd5b5061057960048036036020811015610a3a57600080fd5b5035151561167f565b348015610a4f57600080fd5b506103b16116d1565b348015610a6457600080fd5b5061045f60048036036020811015610a7b57600080fd5b50356001600160a01b03166116f8565b348015610a9757600080fd5b5061048860048036036020811015610aae57600080fd5b5035611716565b348015610ac157600080fd5b5061048860048036036040811015610ad857600080fd5b506001600160a01b038135811691602001351661176a565b348015610afc57600080fd5b5061057960048036036020811015610b1357600080fd5b50351515611795565b348015610b2857600080fd5b5061057960048036036020811015610b3f57600080fd5b50356001600160a01b03166117e8565b348015610b5b57600080fd5b506106ce611802565b348015610b7057600080fd5b5061045f60048036036020811015610b8757600080fd5b50356001600160a01b0316611811565b60008054604080516020601f6002600019610100600188161502019095169490940493840181900481028201810190925282815260609390929091830182828015610c235780601f10610bf857610100808354040283529160200191610c23565b820191906000526020600020905b815481529060010190602001808311610c0657829003601f168201915b5050505050905090565b3360008181526014602090815260408083206001600160a01b038716808552908352818420869055815186815291519394909390927f8c5be1e5ebec7d5bd14f71427d1e84f3dd0314c0f7b2291e5b200ac8c7c3b925928290030190a35060015b92915050565b6103e881565b60105490565b60055481565b6000826001600160a01b038116610cbc57600080fd5b6001600160a01b038516600090815260146020908152604080832033845290915290205460001914610d69576040805180820182526016815275496e73756666696369656e7420416c6c6f77616e636560501b6020808301919091526001600160a01b0388166000908152601482528381203382529091529190912054610d449185906118c2565b6001600160a01b03861660009081526014602090815260408083203384529091529020555b610d74858585611959565b50600195945050505050565b60115460136020527f8fa6efc3be94b5b348b21fea823fe8d100408cee9b7f90524494500445d8ff6c5461dead60009081527f2264e2d7bacabe6058f5009f42467b9be28015e7760f87409562384c94ac271c549092610dfe929091610df89190610df2906407b6ae2fff1990611b4a565b90611b4a565b90611880565b905090565b603c81565b600581565b610e15611204565b610e1e57600080fd5b600380546001600160a01b0319166001600160a01b0392909216919091179055565b60025460ff1690565b600e5481565b60001981565b610e5d611204565b610e6657600080fd5b610e6f82611b8c565b610eaa5760405162461bcd60e51b815260040180806020018281038252603b81526020018061285b603b913960400191505060405180910390fd5b6001600160a01b03919091166000908152601560205260409020805460ff1916911515919091179055565b3360009081526014602090815260408083206001600160a01b0386168452909152812054610f039083611826565b3360008181526014602090815260408083206001600160a01b0389168085529083529281902085905580519485525191937f8c5be1e5ebec7d5bd14f71427d1e84f3dd0314c0f7b2291e5b200ac8c7c3b925929081900390910190a350600192915050565b610f70611204565b610f7957600080fd5b600680546001600160a01b039586166001600160a01b0319918216179091556007805494861694821694909417909355600880549285169284169290921790915560098054919093169116179055565b60105481565b6003546001600160a01b031681565b603281565b6007546001600160a01b031681565b600781565b600c54600160b01b900460ff1681565b60125460ff1681565b600181565b61101d611204565b61102657600080fd5b60125460ff1615611077576040805162461bcd60e51b8152602060048201526016602482015275149958985cd948185b1c9958591e481cdd185c9d195960521b604482015290519081900360640190fd5b60125460ff1615611087576110b1565b42600d819055600e55600c805460ff60a81b1916600160a81b1790556012805460ff191660011790555b565b6011546001600160a01b0382166000908152601360205260408120549091610c8e9190611880565b6110e3611204565b6110ec57600080fd5b6002546040516101009091046001600160a01b0316907ff8df31144d9c2f0f6b59d69b8b98abd5459d07f2742c4df920b25aae33c6482090600090a260028054610100600160a81b0319169055565b600c60009054906101000a90046001600160a01b03166001600160a01b031663fff6cae96040518163ffffffff1660e01b8152600401600060405180830381600087803b15801561118b57600080fd5b505af115801561119f573d6000803e3d6000fd5b50505050565b600c54600160a01b900460ff161590565b6111be611204565b6111c757600080fd5b6001600160a01b03166000908152600460205260409020805460ff19166001179055565b600f81565b60025461010090046001600160a01b031690565b60025461010090046001600160a01b0316331490565b60018054604080516020601f60026000196101008789161502019095169490940493840181900481028201810190925282815260609390929091830182828015610c235780601f10610bf857610100808354040283529160200191610c23565b601e81565b600f5481565b600d5481565b6009546001600160a01b031681565b6112a2611204565b6112ab57600080fd5b600a80546001600160a01b0319166001600160a01b0392909216919091179055565b3360009081526014602090815260408083206001600160a01b0386168452909152812054808310611321573360009081526014602090815260408083206001600160a01b0388168452909152812055611350565b61132b8184611b4a565b3360009081526014602090815260408083206001600160a01b03891684529091529020555b3360008181526014602090815260408083206001600160a01b0389168085529083529281902054815190815290519293927f8c5be1e5ebec7d5bd14f71427d1e84f3dd0314c0f7b2291e5b200ac8c7c3b925929181900390910190a35060019392505050565b600c546001600160a01b031681565b600a546001600160a01b031681565b6000826001600160a01b0381166113ea57600080fd5b6113f5338585611959565b506001949350505050565b6008546001600160a01b031681565b600c54600160a81b900460ff1681565b6040518060400160405280600381526020016253545960e81b81525081565b600c805460ff60a01b1916600160a01b179055611459611204565b61146257600080fd5b6011543060009081526013602052604081205490916114819190611880565b9050600081116114c25760405162461bcd60e51b81526004018080602001828103825260398152602001806128016039913960400191505060405180910390fd5b604080516002808252606080830184529260208301908036833701905050905030816000815181106114f057fe5b6001600160a01b03928316602091820292909201810191909152600b54604080516315ab88c960e31b81529051919093169263ad5c4648926004808301939192829003018186803b15801561154457600080fd5b505afa158015611558573d6000803e3d6000fd5b505050506040513d602081101561156e57600080fd5b505181518290600190811061157f57fe5b6001600160a01b03928316602091820292909201810191909152600b5460075460405163791ac94760e01b81526004810187815260006024830181905292861660648301819052426084840181905260a060448501908152895160a48601528951969098169763791ac947978b978b969495939460c4019187810191028083838b5b83811015611619578181015183820152602001611601565b505050509050019650505050505050600060405180830381600087803b15801561164257600080fd5b505af1158015611656573d6000803e3d6000fd5b5050600c805460ff60a01b1916905550505050565b6006546001600160a01b031681565b601981565b611687611204565b61169057600080fd5b80156116b657600c805460ff60b01b1916600160b01b8315150217905542600f556116ce565b600c805460ff60b01b1916600160b01b831515021790555b50565b6040518060400160405280600b81526020016a14dd1bdc9b48165a595b1960aa1b81525081565b6001600160a01b031660009081526004602052604090205460ff1690565b601154600c546001600160a01b03166000908152601360205260408120549091829161174191611880565b905061176361174e610d80565b610df861175c846002611b92565b8690611b92565b9392505050565b6001600160a01b03918216600090815260146020908152604080832093909416825291909152205490565b61179d611204565b6117a657600080fd5b80156117cc57600c805460ff60a81b1916600160a81b8315150217905542600e556116ce565b600c8054821515600160a81b0260ff60a81b1990911617905550565b6117f0611204565b6117f957600080fd5b6116ce81611beb565b600b546001600160a01b031681565b60156020526000908152604090205460ff1681565b600082820183811015611763576040805162461bcd60e51b815260206004820152601b60248201527f536166654d6174683a206164646974696f6e206f766572666c6f770000000000604482015290519081900360640190fd5b600061176383836040518060400160405280601a81526020017f536166654d6174683a206469766973696f6e206279207a65726f000000000000815250611c65565b600081848411156119515760405162461bcd60e51b81526004018080602001828103825283818151815260200191508051906020019080838360005b838110156119165781810151838201526020016118fe565b50505050905090810190601f1680156119435780820380516001836020036101000a031916815260200191505b509250505060405180910390fd5b505050900390565b6001600160a01b03831660009081526015602052604081205460ff1615801561199b57506001600160a01b03831660009081526015602052604090205460ff16155b6119db576040805162461bcd60e51b815260206004820152600c60248201526b1a5b97d89b1858dadb1a5cdd60a21b604482015290519081900360640190fd5b600c54600160a01b900460ff16156119ff576119f8848484611cca565b9050611763565b611a07611d5c565b15611a1457611a14611dc2565b611a1c611f4d565b15611a2957611a29611fa0565b611a316122dd565b15611a3e57611a3e612308565b6000611a5560115484611b9290919063ffffffff16565b6001600160a01b038616600090815260136020526040902054909150611a7b9082611b4a565b6001600160a01b038616600090815260136020526040812091909155611aa18686612615565b611aab5781611ab6565b611ab6868684612669565b6001600160a01b038616600090815260136020526040902054909150611adc9082611826565b6001600160a01b03808716600081815260136020526040902092909255601154908816907fddf252ad1be2c89b69c2b068fc378daa952ba7f163c4a11628f55a4df523b3ef90611b2d908590611880565b60408051918252519081900360200190a350600195945050505050565b600061176383836040518060400160405280601e81526020017f536166654d6174683a207375627472616374696f6e206f766572666c6f7700008152506118c2565b3b151590565b600082611ba157506000610c8e565b82820282848281611bae57fe5b04146117635760405162461bcd60e51b815260040180806020018281038252602181526020018061283a6021913960400191505060405180910390fd5b6001600160a01b038116611bfe57600080fd5b6002546040516001600160a01b0380841692610100900416907f8be0079c531659141344cd1fd0a4f28419497f9722a3daafe3b4186f6b6457e090600090a3600280546001600160a01b0390921661010002610100600160a81b0319909216919091179055565b60008183611cb45760405162461bcd60e51b81526020600482018181528351602484015283519092839260449091019190850190808383600083156119165781810151838201526020016118fe565b506000838581611cc057fe5b0495945050505050565b600080611ce260115484611b9290919063ffffffff16565b6001600160a01b038616600090815260136020526040902054909150611d089082611b4a565b6001600160a01b038087166000908152601360205260408082209390935590861681522054611d379082611826565b6001600160a01b03851660009081526013602052604090205550600190509392505050565b600c54600090600160a81b900460ff168015611d8057506010546601c6bf52634000115b8015611d975750600c546001600160a01b03163314155b8015611dad5750600c54600160a01b900460ff16155b8015610dfe575050600e5461012c0142101590565b600c54600160a01b900460ff1615611dd9576110b1565b600d54600e546000914290810391900382611df68261012c611880565b90506000611e05826005611b92565b90506301e13380841015611e1d576103469450611e47565b6301e133808410158015611e3457506302d1cd4084105b15611e425760429450611e47565b600694505b60005b82811015611e7a57611e6f62989680610df8611e66828a611826565b60105490611b92565b601055600101611e4a565b50601054611e8f906407b6ae2fff1990611880565b601155611eaa611ea18361012c611b92565b600e5490611826565b600e556003546040805160016209351760e01b0319815290516001600160a01b039092169163fff6cae99160048082019260009290919082900301818387803b158015611ef657600080fd5b505af1158015611f0a573d6000803e3d6000fd5b505060105460408051918252518493507f72725a3b1e5bd622d6bcd1339bb31279c351abe8f541ac7fd320f24e1b1641f292509081900360200190a25050505050565b600c54600090600160b01b900460ff168015611f735750600c54600160a01b900460ff16155b8015611f8a5750600c546001600160a01b03163314155b8015610dfe575050600f546202a3000142101590565b600c805460ff60a01b1916600160a01b1790556011546006546001600160a01b03166000908152601360205260408120549091611fdd9190611880565b6006546001600160a01b03166000908152601360205260408082205430835291205491925061200c9190611826565b30600090815260136020526040808220929092556006546001600160a01b0316815290812081905561203f826002611880565b9050600061204d8383611b4a565b90508061205c575050506122ce565b6040805160028082526060808301845292602083019080368337019050509050308160008151811061208a57fe5b6001600160a01b03928316602091820292909201810191909152600b54604080516315ab88c960e31b81529051919093169263ad5c4648926004808301939192829003018186803b1580156120de57600080fd5b505afa1580156120f2573d6000803e3d6000fd5b505050506040513d602081101561210857600080fd5b505181518290600190811061211957fe5b6001600160a01b03928316602091820292909201810191909152600b5460405163791ac94760e01b8152600481018681526000602483018190523060648401819052426084850181905260a060448601908152895160a487015289514799979097169763791ac947978c9795968c9690939260c49091019187820191028083838b5b838110156121b357818101518382015260200161219b565b505050509050019650505050505050600060405180830381600087803b1580156121dc57600080fd5b505af11580156121f0573d6000803e3d6000fd5b5050505060006122098247611b4a90919063ffffffff16565b905060008511801561221b5750600081115b156122c357600b546006546040805163f305d71960e01b81523060048201526024810189905260006044820181905260648201526001600160a01b0392831660848201524260a48201529051919092169163f305d71991849160c48082019260609290919082900301818588803b15801561229557600080fd5b505af11580156122a9573d6000803e3d6000fd5b50505050506040513d60608110156122c057600080fd5b50505b505042600f55505050505b600c805460ff60a01b19169055565b600c54600090600160a01b900460ff16158015610dfe575050600c546001600160a01b031633141590565b600c805460ff60a01b1916600160a01b17905560115430600090815260136020526040812054909161233a9190611880565b90508061234757506122ce565b60408051600280825260608083018452479390929190602083019080368337019050509050308160008151811061237a57fe5b6001600160a01b03928316602091820292909201810191909152600b54604080516315ab88c960e31b81529051919093169263ad5c4648926004808301939192829003018186803b1580156123ce57600080fd5b505afa1580156123e2573d6000803e3d6000fd5b505050506040513d60208110156123f857600080fd5b505181518290600190811061240957fe5b60200260200101906001600160a01b031690816001600160a01b031681525050600b60009054906101000a90046001600160a01b03166001600160a01b031663791ac9478460008430426040518663ffffffff1660e01b81526004018086815260200185815260200180602001846001600160a01b03168152602001838152602001828103825285818151815260200191508051906020019060200280838360005b838110156124c35781810151838201526020016124ab565b505050509050019650505050505050600060405180830381600087803b1580156124ec57600080fd5b505af1158015612500573d6000803e3d6000fd5b5050505060006125198347611b4a90919063ffffffff16565b6007549091506000906001600160a01b031661254561253a60196032611826565b610df8856019611b92565b60405161753091906000818181858888f193505050503d8060008114612587576040519150601f19603f3d011682016040523d82523d6000602084013e61258c565b606091505b50506008549091506001600160a01b03166125b76125ac60196032611826565b610df8856032611b92565b60405161753091906000818181858888f193505050503d80600081146125f9576040519150601f19603f3d011682016040523d82523d6000602084013e6125fe565b606091505b5050505050505050600c805460ff60a01b19169055565b600c546000906001600160a01b03848116911614806126415750600c546001600160a01b038381169116145b8015611763575050506001600160a01b031660009081526004602052604090205460ff161590565b600554600c54600091906019906001600160a01b03868116911614156126a85760055461269790603c611826565b91506126a56019603c611826565b90505b60006126ba6103e8610df88786611b92565b90506126f16126d06103e8610df888600f611b92565b6009546001600160a01b031660009081526013602052604090205490611826565b6009546001600160a01b031660009081526013602052604090205561274061272a6103e8610df8612723866032611826565b8990611b92565b3060009081526013602052604090205490611826565b306000908152601360205260409020556127856127646103e8610df888601e611b92565b6006546001600160a01b031660009081526013602052604090205490611826565b6006546001600160a01b0390811660009081526013602052604090209190915560115430918916907fddf252ad1be2c89b69c2b068fc378daa952ba7f163c4a11628f55a4df523b3ef906127da908590611880565b60408051918252519081900360200190a36127f58582611b4a565b97965050505050505056fe5468657265206973206e6f2053746f726d205969656c6420746f6b656e206465706f736974656420696e20746f6b656e20636f6e7472616374536166654d6174683a206d756c7469706c69636174696f6e206f766572666c6f776f6e6c7920636f6e747261637420616464726573732c206e6f7420616c6c6f776564206578746572616e6c6c79206f776e6564206163636f756e74a264697066735822122013f267fd12a471c6da7ba347c1fc51d0d5dc769bd22532dd14b3663140222a7164736f6c63430007040033",
  "linkReferences": {},
  "deployedLinkReferences": {}
}